Archive member included to satisfy reference by file (symbol)

/usr/lib/gcc/avr/8.3.0/avr5/libgcc.a(_mulsi3.o)
                              .build/obj_dz60_paul2/quantum/quantum.o (__mulsi3)
/usr/lib/gcc/avr/8.3.0/avr5/libgcc.a(_udivmodhi4.o)
                              .build/obj_dz60_paul2/quantum/quantum.o (__udivmodhi4)
/usr/lib/gcc/avr/8.3.0/avr5/libgcc.a(_divmodhi4.o)
                              .build/obj_dz60_paul2/quantum/rgblight.o (__divmodhi4)
/usr/lib/gcc/avr/8.3.0/avr5/libgcc.a(_udivmodsi4.o)
                              .build/obj_dz60_paul2/quantum/quantum.o (__udivmodsi4)
/usr/lib/gcc/avr/8.3.0/avr5/libgcc.a(_exit.o)
                              /usr/lib/gcc/avr/8.3.0/../../../../avr/lib/avr5/crtatmega32u4.o (exit)
/usr/lib/gcc/avr/8.3.0/avr5/libgcc.a(_tablejump2.o)
                              .build/obj_dz60_paul2/quantum/quantum.o (__tablejump2__)
/usr/lib/gcc/avr/8.3.0/avr5/libgcc.a(_copy_data.o)
                              .build/obj_dz60_paul2/quantum/matrix.o (__do_copy_data)
/usr/lib/gcc/avr/8.3.0/avr5/libgcc.a(_clear_bss.o)
                              .build/obj_dz60_paul2/quantum/quantum.o (__do_clear_bss)
/usr/lib/gcc/avr/8.3.0/avr5/libgcc.a(_umulhisi3.o)
                              .build/obj_dz60_paul2/quantum/quantum.o (__umulhisi3)
/usr/lib/gcc/avr/8.3.0/avr5/libgcc.a(_muluhisi3.o)
                              /usr/lib/gcc/avr/8.3.0/avr5/libgcc.a(_mulsi3.o) (__muluhisi3)
/usr/lib/gcc/avr/8.3.0/../../../../avr/lib/avr5/libc.a(memchr.o)
                              .build/obj_dz60_paul2/quantum/rgblight.o (memchr)
/usr/lib/gcc/avr/8.3.0/../../../../avr/lib/avr5/libc.a(memmove.o)
                              .build/obj_dz60_paul2/lib/lufa/LUFA/Drivers/USB/Class/Common/HIDParser.o (memmove)
/usr/lib/gcc/avr/8.3.0/../../../../avr/lib/avr5/libc.a(memcpy.o)
                              /usr/lib/gcc/avr/8.3.0/../../../../avr/lib/avr5/libc.a(memmove.o) (memcpy)
/usr/lib/gcc/avr/8.3.0/../../../../avr/lib/avr5/libatmega32u4.a(eerd_byte.o)
                              .build/obj_dz60_paul2/common/eeconfig.o (eeprom_read_byte)
/usr/lib/gcc/avr/8.3.0/../../../../avr/lib/avr5/libatmega32u4.a(eerd_dword.o)
                              .build/obj_dz60_paul2/quantum/rgblight.o (eeprom_read_dword)
/usr/lib/gcc/avr/8.3.0/../../../../avr/lib/avr5/libatmega32u4.a(eerd_word.o)
                              .build/obj_dz60_paul2/common/eeconfig.o (eeprom_read_word)
/usr/lib/gcc/avr/8.3.0/../../../../avr/lib/avr5/libatmega32u4.a(eeupd_byte.o)
                              .build/obj_dz60_paul2/common/eeconfig.o (eeprom_update_byte)
/usr/lib/gcc/avr/8.3.0/../../../../avr/lib/avr5/libatmega32u4.a(eeupd_dword.o)
                              .build/obj_dz60_paul2/quantum/rgblight.o (eeprom_update_dword)
/usr/lib/gcc/avr/8.3.0/../../../../avr/lib/avr5/libatmega32u4.a(eeupd_word.o)
                              .build/obj_dz60_paul2/common/eeconfig.o (eeprom_update_word)
/usr/lib/gcc/avr/8.3.0/../../../../avr/lib/avr5/libatmega32u4.a(eerd_block.o)
                              /usr/lib/gcc/avr/8.3.0/../../../../avr/lib/avr5/libatmega32u4.a(eerd_dword.o) (eeprom_read_blraw)

Allocating common symbols
Common symbol       size              file

rgblight_config     0x5               .build/obj_dz60_paul2/quantum/rgblight.o
USB_IsInitialized   0x1               .build/obj_dz60_paul2/lib/lufa/LUFA/Drivers/USB/Core/USBTask.o
keymap_config       0x2               .build/obj_dz60_paul2/common/bootmagic.o
backlight_config    0x1               .build/obj_dz60_paul2/common/backlight.o
USB_DeviceState     0x1               .build/obj_dz60_paul2/lib/lufa/LUFA/Drivers/USB/Core/USBTask.o
USB_Device_ConfigurationNumber
                    0x1               .build/obj_dz60_paul2/lib/lufa/LUFA/Drivers/USB/Core/DeviceStandardReq.o
led                 0x30              .build/obj_dz60_paul2/quantum/rgblight.o
USB_Device_CurrentlySelfPowered
                    0x1               .build/obj_dz60_paul2/lib/lufa/LUFA/Drivers/USB/Core/DeviceStandardReq.o
USB_ControlRequest  0x8               .build/obj_dz60_paul2/lib/lufa/LUFA/Drivers/USB/Core/USBTask.o
tp_buttons          0x2               .build/obj_dz60_paul2/common/action.o
USB_Device_RemoteWakeupEnabled
                    0x1               .build/obj_dz60_paul2/lib/lufa/LUFA/Drivers/USB/Core/DeviceStandardReq.o
timer_count         0x4               .build/obj_dz60_paul2/common/avr/timer.o

Discarded input sections

 .data          0x0000000000000000        0x0 /usr/lib/gcc/avr/8.3.0/../../../../avr/lib/avr5/crtatmega32u4.o
 .bss           0x0000000000000000        0x0 /usr/lib/gcc/avr/8.3.0/../../../../avr/lib/avr5/crtatmega32u4.o
 .text          0x0000000000000000        0x0 .build/obj_dz60_paul2/keyboards/dz60/dz60.o
 .data          0x0000000000000000        0x0 .build/obj_dz60_paul2/keyboards/dz60/dz60.o
 .bss           0x0000000000000000        0x0 .build/obj_dz60_paul2/keyboards/dz60/dz60.o
 .text          0x0000000000000000        0x0 .build/obj_dz60_paul2/keyboards/dz60/keymaps/paul2/keymap.o
 .data          0x0000000000000000        0x0 .build/obj_dz60_paul2/keyboards/dz60/keymaps/paul2/keymap.o
 .bss           0x0000000000000000        0x0 .build/obj_dz60_paul2/keyboards/dz60/keymaps/paul2/keymap.o
 .text          0x0000000000000000        0x0 .build/obj_dz60_paul2/quantum/quantum.o
 .data          0x0000000000000000        0x0 .build/obj_dz60_paul2/quantum/quantum.o
 .bss           0x0000000000000000        0x0 .build/obj_dz60_paul2/quantum/quantum.o
 .text.do_code16
                0x0000000000000000       0x6c .build/obj_dz60_paul2/quantum/quantum.o
 .text.qk_register_weak_mods
                0x0000000000000000       0x16 .build/obj_dz60_paul2/quantum/quantum.o
 .text.qk_register_mods
                0x0000000000000000        0x4 .build/obj_dz60_paul2/quantum/quantum.o
 .text.qk_unregister_weak_mods
Memory Configuration

Name             Origin             Length             Attributes
text             0x0000000000000000 0x0000000000020000 xr
data             0x0000000000800060 0x000000000000ffa0 rw !x
eeprom           0x0000000000810000 0x0000000000010000 rw !x
fuse             0x0000000000820000 0x0000000000000400 rw !x
lock             0x0000000000830000 0x0000000000000400 rw !x
signature        0x0000000000840000 0x0000000000000400 rw !x
user_signatures  0x0000000000850000 0x0000000000000400 rw !x
*default*        0x0000000000000000 0xffffffffffffffff

Linker script and memory map

Address of section .data set to 0x800100
LOAD /usr/lib/gcc/avr/8.3.0/../../../../avr/lib/avr5/crtatmega32u4.o
LOAD .build/obj_dz60_paul2/keyboards/dz60/dz60.o
LOAD .build/obj_dz60_paul2/keyboards/dz60/keymaps/paul2/keymap.o
LOAD .build/obj_dz60_paul2/quantum/quantum.o
LOAD .build/obj_dz60_paul2/quantum/keymap_common.o
LOAD .build/obj_dz60_paul2/quantum/keycode_config.o
LOAD .build/obj_dz60_paul2/quantum/matrix.o
LOAD .build/obj_dz60_paul2/quantum/debounce/sym_g.o
LOAD .build/obj_dz60_paul2/quantum/color.o
LOAD .build/obj_dz60_paul2/quantum/rgblight.o
LOAD .build/obj_dz60_paul2/ws2812.o
LOAD .build/obj_dz60_paul2/quantum/led_tables.o
LOAD .build/obj_dz60_paul2/quantum/process_keycode/process_space_cadet.o
LOAD .build/obj_dz60_paul2/common/host.o
LOAD .build/obj_dz60_paul2/common/keyboard.o
LOAD .build/obj_dz60_paul2/common/action.o
LOAD .build/obj_dz60_paul2/common/action_tapping.o
LOAD .build/obj_dz60_paul2/common/action_macro.o
LOAD .build/obj_dz60_paul2/common/action_layer.o
LOAD .build/obj_dz60_paul2/common/action_util.o
LOAD .build/obj_dz60_paul2/common/print.o
LOAD .build/obj_dz60_paul2/common/debug.o
LOAD .build/obj_dz60_paul2/common/util.o
LOAD .build/obj_dz60_paul2/common/eeconfig.o
LOAD .build/obj_dz60_paul2/common/report.o
LOAD .build/obj_dz60_paul2/common/avr/suspend.o
LOAD .build/obj_dz60_paul2/common/avr/timer.o
LOAD .build/obj_dz60_paul2/common/avr/bootloader.o
LOAD .build/obj_dz60_paul2/common/avr/xprintf.o
LOAD .build/obj_dz60_paul2/common/bootmagic.o
LOAD .build/obj_dz60_paul2/common/mousekey.o
LOAD .build/obj_dz60_paul2/common/backlight.o
LOAD .build/obj_dz60_paul2/lufa.o
LOAD .build/obj_dz60_paul2/usb_descriptor.o
LOAD .build/obj_dz60_paul2/outputselect.o
LOAD .build/obj_dz60_paul2/lib/lufa/LUFA/Drivers/USB/Class/Common/HIDParser.o
LOAD .build/obj_dz60_paul2/lib/lufa/LUFA/Drivers/USB/Core/AVR8/Device_AVR8.o
LOAD .build/obj_dz60_paul2/lib/lufa/LUFA/Drivers/USB/Core/AVR8/EndpointStream_AVR8.o
LOAD .build/obj_dz60_paul2/lib/lufa/LUFA/Drivers/USB/Core/AVR8/Endpoint_AVR8.o
LOAD .build/obj_dz60_paul2/lib/lufa/LUFA/Drivers/USB/Core/AVR8/Host_AVR8.o
LOAD .build/obj_dz60_paul2/lib/lufa/LUFA/Drivers/USB/Core/AVR8/PipeStream_AVR8.o
LOAD .build/obj_dz60_paul2/lib/lufa/LUFA/Drivers/USB/Core/AVR8/Pipe_AVR8.o
LOAD .build/obj_dz60_paul2/lib/lufa/LUFA/Drivers/USB/Core/AVR8/USBController_AVR8.o
LOAD .build/obj_dz60_paul2/lib/lufa/LUFA/Drivers/USB/Core/AVR8/USBInterrupt_AVR8.o
LOAD .build/obj_dz60_paul2/lib/lufa/LUFA/Drivers/USB/Core/ConfigDescriptors.o
LOAD .build/obj_dz60_paul2/lib/lufa/LUFA/Drivers/USB/Core/DeviceStandardReq.o
LOAD .build/obj_dz60_paul2/lib/lufa/LUFA/Drivers/USB/Core/Events.o
LOAD .build/obj_dz60_paul2/lib/lufa/LUFA/Drivers/USB/Core/HostStandardReq.o
LOAD .build/obj_dz60_paul2/lib/lufa/LUFA/Drivers/USB/Core/USBTask.o
LOAD /usr/lib/gcc/avr/8.3.0/../../../../avr/lib/avr5/libm.a
START GROUP
LOAD /usr/lib/gcc/avr/8.3.0/avr5/libgcc.a
LOAD /usr/lib/gcc/avr/8.3.0/../../../../avr/lib/avr5/libm.a
LOAD /usr/lib/gcc/avr/8.3.0/../../../../avr/lib/avr5/libc.a
LOAD /usr/lib/gcc/avr/8.3.0/../../../../avr/lib/avr5/libatmega32u4.a
END GROUP
                0x0000000000020000                __TEXT_REGION_LENGTH__ = DEFINED (__TEXT_REGION_LENGTH__)?__TEXT_REGION_LENGTH__:0x20000
                0x000000000000ffa0                __DATA_REGION_LENGTH__ = DEFINED (__DATA_REGION_LENGTH__)?__DATA_REGION_LENGTH__:0xffa0
                0x0000000000010000                __EEPROM_REGION_LENGTH__ = DEFINED (__EEPROM_REGION_LENGTH__)?__EEPROM_REGION_LENGTH__:0x10000
                0x0000000000000400                __FUSE_REGION_LENGTH__ = DEFINED (__FUSE_REGION_LENGTH__)?__FUSE_REGION_LENGTH__:0x400
                0x0000000000000400                __LOCK_REGION_LENGTH__ = DEFINED (__LOCK_REGION_LENGTH__)?__LOCK_REGION_LENGTH__:0x400
                0x0000000000000400                __SIGNATURE_REGION_LENGTH__ = DEFINED (__SIGNATURE_REGION_LENGTH__)?__SIGNATURE_REGION_LENGTH__:0x400
                0x0000000000000400                __USER_SIGNATURE_REGION_LENGTH__ = DEFINED (__USER_SIGNATURE_REGION_LENGTH__)?__USER_SIGNATURE_REGION_LENGTH__:0x400

.hash
 *(.hash)

.dynsym
 *(.dynsym)

.dynstr
 *(.dynstr)

.gnu.version
 *(.gnu.version)

.gnu.version_d
 *(.gnu.version_d)

.gnu.version_r
 *(.gnu.version_r)

.rel.init
 *(.rel.init)

.rela.init
 *(.rela.init)

.rel.text
 *(.rel.text)
 *(.rel.text.*)
 *(.rel.gnu.linkonce.t*)

.rela.text
 *(.rela.text)
 *(.rela.text.*)
 *(.rela.gnu.linkonce.t*)

.rel.fini
 *(.rel.fini)

.rela.fini
 *(.rela.fini)

.rel.rodata
 *(.rel.rodata)
 *(.rel.rodata.*)
 *(.rel.gnu.linkonce.r*)

.rela.rodata
 *(.rela.rodata)
 *(.rela.rodata.*)
 *(.rela.gnu.linkonce.r*)

.rel.data
 *(.rel.data)
 *(.rel.data.*)
 *(.rel.gnu.linkonce.d*)

.rela.data
 *(.rela.data)
 *(.rela.data.*)
 *(.rela.gnu.linkonce.d*)

.rel.ctors
 *(.rel.ctors)

.rela.ctors
 *(.rela.ctors)

.rel.dtors
 *(.rel.dtors)

.rela.dtors
 *(.rela.dtors)

.rel.got
 *(.rel.got)

.rela.got
 *(.rela.got)

.rel.bss
 *(.rel.bss)

.rela.bss
 *(.rela.bss)

.rel.plt
 *(.rel.plt)

.rela.plt
 *(.rela.plt)

.text           0x0000000000000000     0x54f8
 *(.vectors)
 .vectors       0x0000000000000000       0xac /usr/lib/gcc/avr/8.3.0/../../../../avr/lib/avr5/crtatmega32u4.o
                0x0000000000000000                __vectors
                0x0000000000000000                __vector_default
 *(.vectors)
 *(.progmem.gcc*)
                0x00000000000000ac                . = ALIGN (0x2)
                0x00000000000000ac                __trampolines_start = .
 *(.trampolines)
 .trampolines   0x00000000000000ac        0x0 linker stubs
 *(.trampolines*)
                0x00000000000000ac                __trampolines_end = .
 *libprintf_flt.a:*(.progmem.data)
 *libc.a:*(.progmem.data)
 *(.progmem.*)
 .progmem.data.keymaps
                0x00000000000000ac      0x12c .build/obj_dz60_paul2/keyboards/dz60/keymaps/paul2/keymap.o
                0x00000000000000ac                keymaps
 .progmem.data.fn_actions
                0x00000000000001d8        0x0 .build/obj_dz60_paul2/quantum/keymap_common.o
                0x00000000000001d8                fn_actions
 .progmem.data.RGBLED_RGBTEST_INTERVALS
                0x00000000000001d8        0x2 .build/obj_dz60_paul2/quantum/rgblight.o
                0x00000000000001d8                RGBLED_RGBTEST_INTERVALS
 .progmem.data.RGBLED_KNIGHT_INTERVALS
                0x00000000000001da        0x3 .build/obj_dz60_paul2/quantum/rgblight.o
                0x00000000000001da                RGBLED_KNIGHT_INTERVALS
 .progmem.data.RGBLED_SNAKE_INTERVALS
                0x00000000000001dd        0x3 .build/obj_dz60_paul2/quantum/rgblight.o
                0x00000000000001dd                RGBLED_SNAKE_INTERVALS
 .progmem.data.RGBLED_RAINBOW_SWIRL_INTERVALS
                0x00000000000001e0        0x3 .build/obj_dz60_paul2/quantum/rgblight.o
                0x00000000000001e0                RGBLED_RAINBOW_SWIRL_INTERVALS
 .progmem.data.RGBLED_RAINBOW_MOOD_INTERVALS
                0x00000000000001e3        0x3 .build/obj_dz60_paul2/quantum/rgblight.o
                0x00000000000001e3                RGBLED_RAINBOW_MOOD_INTERVALS
 .progmem.data.RGBLED_BREATHING_INTERVALS
                0x00000000000001e6        0x4 .build/obj_dz60_paul2/quantum/rgblight.o
                0x00000000000001e6                RGBLED_BREATHING_INTERVALS
 .progmem.data.rgblight_effect_breathe_table
                0x00000000000001ea      0x100 .build/obj_dz60_paul2/quantum/rgblight.o
                0x00000000000001ea                rgblight_effect_breathe_table
 .progmem.data.RGBLED_GRADIENT_RANGES
                0x00000000000002ea        0x5 .build/obj_dz60_paul2/quantum/rgblight.o
                0x00000000000002ea                RGBLED_GRADIENT_RANGES
 .progmem.data.CIE1931_CURVE
                0x00000000000002ef      0x100 .build/obj_dz60_paul2/quantum/led_tables.o
                0x00000000000002ef                CIE1931_CURVE
 .progmem.data.SerialNumberString
                0x00000000000003ef        0x6 .build/obj_dz60_paul2/usb_descriptor.o
                0x00000000000003ef                SerialNumberString
 .progmem.data.ProductString
                0x00000000000003f5        0xc .build/obj_dz60_paul2/usb_descriptor.o
                0x00000000000003f5                ProductString
 .progmem.data.ManufacturerString
                0x0000000000000401       0x12 .build/obj_dz60_paul2/usb_descriptor.o
                0x0000000000000401                ManufacturerString
 .progmem.data.LanguageString
                0x0000000000000413        0x4 .build/obj_dz60_paul2/usb_descriptor.o
                0x0000000000000413                LanguageString
 .progmem.data.ConfigurationDescriptor
                0x0000000000000417       0x3b .build/obj_dz60_paul2/usb_descriptor.o
                0x0000000000000417                ConfigurationDescriptor
 .progmem.data.DeviceDescriptor
                0x0000000000000452       0x12 .build/obj_dz60_paul2/usb_descriptor.o
                0x0000000000000452                DeviceDescriptor
 .progmem.data.SharedReport
                0x0000000000000464       0xc0 .build/obj_dz60_paul2/usb_descriptor.o
                0x0000000000000464                SharedReport
 .progmem.data.KeyboardReport
                0x0000000000000524       0x40 .build/obj_dz60_paul2/usb_descriptor.o
                0x0000000000000524                KeyboardReport
                0x0000000000000564                . = ALIGN (0x2)
 *(.lowtext)
 *(.lowtext*)
                0x0000000000000564                __ctors_start = .
 *(.ctors)
                0x0000000000000564                __ctors_end = .
                0x0000000000000564                __dtors_start = .
 *(.dtors)
                0x0000000000000564                __dtors_end = .
 SORT_BY_NAME(*)(.ctors)
 SORT_BY_NAME(*)(.dtors)
 *(.init0)
 .init0         0x0000000000000564        0x0 /usr/lib/gcc/avr/8.3.0/../../../../avr/lib/avr5/crtatmega32u4.o
                0x0000000000000564                __init
 *(.init0)
 *(.init1)
 *(.init1)
 *(.init2)
 .init2         0x0000000000000564        0xc /usr/lib/gcc/avr/8.3.0/../../../../avr/lib/avr5/crtatmega32u4.o
 *(.init2)
 *(.init3)
 .init3         0x0000000000000570       0x54 .build/obj_dz60_paul2/common/avr/bootloader.o
                0x0000000000000570                bootloader_jump_after_watchdog_reset
 *(.init3)
 *(.init4)
 .init4         0x00000000000005c4       0x16 /usr/lib/gcc/avr/8.3.0/avr5/libgcc.a(_copy_data.o)
                0x00000000000005c4                __do_copy_data
 .init4         0x00000000000005da       0x10 /usr/lib/gcc/avr/8.3.0/avr5/libgcc.a(_clear_bss.o)
                0x00000000000005da                __do_clear_bss
 *(.init4)
 *(.init5)
 *(.init5)
 *(.init6)
 *(.init6)
 *(.init7)
 *(.init7)
 *(.init8)
 *(.init8)
 *(.init9)
 .init9         0x00000000000005ea        0x8 /usr/lib/gcc/avr/8.3.0/../../../../avr/lib/avr5/crtatmega32u4.o
 *(.init9)
 *(.text)
 .text          0x00000000000005f2        0x4 /usr/lib/gcc/avr/8.3.0/../../../../avr/lib/avr5/crtatmega32u4.o
                0x00000000000005f2                __vector_38
                0x00000000000005f2                __vector_22
                0x00000000000005f2                __vector_28
                0x00000000000005f2                __vector_1
                0x00000000000005f2                __vector_32
                0x00000000000005f2                __vector_34
                0x00000000000005f2                __vector_24
                0x00000000000005f2                __bad_interrupt
                0x00000000000005f2                __vector_6
                0x00000000000005f2                __vector_31
                0x00000000000005f2                __vector_35
                0x00000000000005f2                __vector_39
                0x00000000000005f2                __vector_3
                0x00000000000005f2                __vector_23
                0x00000000000005f2                __vector_30
                0x00000000000005f2                __vector_25
                0x00000000000005f2                __vector_13
                0x00000000000005f2                __vector_17
                0x00000000000005f2                __vector_19
                0x00000000000005f2                __vector_7
                0x00000000000005f2                __vector_41
                0x00000000000005f2                __vector_27
                0x00000000000005f2                __vector_5
                0x00000000000005f2                __vector_33
                0x00000000000005f2                __vector_37
                0x00000000000005f2                __vector_4
                0x00000000000005f2                __vector_9
                0x00000000000005f2                __vector_2
                0x00000000000005f2                __vector_15
                0x00000000000005f2                __vector_36
                0x00000000000005f2                __vector_29
                0x00000000000005f2                __vector_40
                0x00000000000005f2                __vector_8
                0x00000000000005f2                __vector_26
                0x00000000000005f2                __vector_14
                0x00000000000005f2                __vector_16
                0x00000000000005f2                __vector_18
                0x00000000000005f2                __vector_20
                0x00000000000005f2                __vector_42
                0x00000000000005f6                . = ALIGN (0x2)
 *(.text.*)
 .text.matrix_scan_kb
                0x00000000000005f6        0x4 .build/obj_dz60_paul2/keyboards/dz60/dz60.o
                0x00000000000005f6                matrix_scan_kb
 .text.led_init_ports
                0x00000000000005fa        0x6 .build/obj_dz60_paul2/keyboards/dz60/dz60.o
                0x00000000000005fa                led_init_ports
 .text.matrix_init_kb
                0x0000000000000600        0x8 .build/obj_dz60_paul2/keyboards/dz60/dz60.o
                0x0000000000000600                matrix_init_kb
 .text.led_set_kb
                0x0000000000000608        0xe .build/obj_dz60_paul2/keyboards/dz60/dz60.o
                0x0000000000000608                led_set_kb
 .text.process_action_kb
                0x0000000000000616        0x4 .build/obj_dz60_paul2/quantum/quantum.o
                0x0000000000000616                process_action_kb
 .text.process_record_user
                0x000000000000061a        0x4 .build/obj_dz60_paul2/quantum/quantum.o
                0x000000000000061a                process_record_user
 .text.process_record_kb
                0x000000000000061e        0x4 .build/obj_dz60_paul2/quantum/quantum.o
                0x000000000000061e                process_record_kb
 .text.get_event_keycode
                0x0000000000000622       0x62 .build/obj_dz60_paul2/quantum/quantum.o
                0x0000000000000622                get_event_keycode
 .text.get_record_keycode
                0x0000000000000684       0x10 .build/obj_dz60_paul2/quantum/quantum.o
                0x0000000000000684                get_record_keycode
 .text.matrix_scan_quantum
                0x0000000000000694        0x4 .build/obj_dz60_paul2/quantum/quantum.o
                0x0000000000000694                matrix_scan_quantum
 .text.backlight_on
                0x0000000000000698       0x22 .build/obj_dz60_paul2/quantum/quantum.o
                0x0000000000000698                backlight_on
 .text.backlight_set
                0x00000000000006ba       0xae .build/obj_dz60_paul2/quantum/quantum.o
                0x00000000000006ba                backlight_set
 .text.backlight_init_ports
                0x0000000000000768       0x24 .build/obj_dz60_paul2/quantum/quantum.o
                0x0000000000000768                backlight_init_ports
 .text.matrix_init_quantum
                0x000000000000078c       0x14 .build/obj_dz60_paul2/quantum/quantum.o
                0x000000000000078c                matrix_init_quantum
 .text.led_set_user
                0x00000000000007a0        0x2 .build/obj_dz60_paul2/quantum/quantum.o
                0x00000000000007a0                led_set_user
 .text.led_set  0x00000000000007a2        0x4 .build/obj_dz60_paul2/quantum/quantum.o
                0x00000000000007a2                led_set
 .text.shutdown_user
                0x00000000000007a6        0x2 .build/obj_dz60_paul2/quantum/quantum.o
                0x00000000000007a6                shutdown_user
 .text.reset_keyboard
                0x00000000000007a8       0x1e .build/obj_dz60_paul2/quantum/quantum.o
                0x00000000000007a8                reset_keyboard
 .text.process_record_quantum
                0x00000000000007c6      0x41e .build/obj_dz60_paul2/quantum/quantum.o
                0x00000000000007c6                process_record_quantum
 .text.action_get_macro
                0x0000000000000be4        0x6 .build/obj_dz60_paul2/quantum/keymap_common.o
                0x0000000000000be4                action_get_macro
 .text.action_function
                0x0000000000000bea        0x2 .build/obj_dz60_paul2/quantum/keymap_common.o
                0x0000000000000bea                action_function
 .text.keymap_key_to_keycode
                0x0000000000000bec       0x28 .build/obj_dz60_paul2/quantum/keymap_common.o
                0x0000000000000bec                keymap_key_to_keycode
 .text.keymap_function_id_to_action
                0x0000000000000c14       0x10 .build/obj_dz60_paul2/quantum/keymap_common.o
                0x0000000000000c14                keymap_function_id_to_action
 .text.action_for_key
                0x0000000000000c24      0x3d0 .build/obj_dz60_paul2/quantum/keymap_common.o
                0x0000000000000c24                action_for_key
 .text.keycode_config
                0x0000000000000ff4       0xf6 .build/obj_dz60_paul2/quantum/keycode_config.o
                0x0000000000000ff4                keycode_config
 .text.mod_config
                0x00000000000010ea       0x46 .build/obj_dz60_paul2/quantum/keycode_config.o
                0x00000000000010ea                mod_config
 .text.matrix_init_user
                0x0000000000001130        0x2 .build/obj_dz60_paul2/quantum/matrix.o
                0x0000000000001130                matrix_init_user
 .text.matrix_scan_user
                0x0000000000001132        0x2 .build/obj_dz60_paul2/quantum/matrix.o
                0x0000000000001132                matrix_scan_user
 .text.matrix_get_row
                0x0000000000001134       0x12 .build/obj_dz60_paul2/quantum/matrix.o
                0x0000000000001134                matrix_get_row
 .text.matrix_print
                0x0000000000001146        0x2 .build/obj_dz60_paul2/quantum/matrix.o
                0x0000000000001146                matrix_print
 .text.matrix_init
                0x0000000000001148       0xcc .build/obj_dz60_paul2/quantum/matrix.o
                0x0000000000001148                matrix_init
 .text.matrix_scan
                0x0000000000001214      0x132 .build/obj_dz60_paul2/quantum/matrix.o
                0x0000000000001214                matrix_scan
 .text.debounce_init
                0x0000000000001346        0x2 .build/obj_dz60_paul2/quantum/debounce/sym_g.o
                0x0000000000001346                debounce_init
 .text.debounce
                0x0000000000001348       0x72 .build/obj_dz60_paul2/quantum/debounce/sym_g.o
                0x0000000000001348                debounce
 .text.hsv_to_rgb
                0x00000000000013ba      0x12c .build/obj_dz60_paul2/quantum/color.o
                0x00000000000013ba                hsv_to_rgb
 .text.rgblight_effect_dummy
                0x00000000000014e6        0x2 .build/obj_dz60_paul2/quantum/rgblight.o
 .text.sethsv   0x00000000000014e8       0x20 .build/obj_dz60_paul2/quantum/rgblight.o
                0x00000000000014e8                sethsv
 .text.rgblight_check_config
                0x0000000000001508       0x1e .build/obj_dz60_paul2/quantum/rgblight.o
                0x0000000000001508                rgblight_check_config
 .text.eeconfig_read_rgblight
                0x0000000000001526        0x8 .build/obj_dz60_paul2/quantum/rgblight.o
                0x0000000000001526                eeconfig_read_rgblight
 .text.eeconfig_update_rgblight
                0x000000000000152e       0x24 .build/obj_dz60_paul2/quantum/rgblight.o
                0x000000000000152e                eeconfig_update_rgblight
 .text.eeconfig_update_rgblight_default
                0x0000000000001552       0x1e .build/obj_dz60_paul2/quantum/rgblight.o
                0x0000000000001552                eeconfig_update_rgblight_default
 .text.rgblight_get_mode
                0x0000000000001570       0x10 .build/obj_dz60_paul2/quantum/rgblight.o
                0x0000000000001570                rgblight_get_mode
 .text.rgblight_increase_speed
                0x0000000000001580       0x22 .build/obj_dz60_paul2/quantum/rgblight.o
                0x0000000000001580                rgblight_increase_speed
 .text.rgblight_decrease_speed
                0x00000000000015a2       0x22 .build/obj_dz60_paul2/quantum/rgblight.o
                0x00000000000015a2                rgblight_decrease_speed
 .text.rgblight_set
                0x00000000000015c4       0x36 .build/obj_dz60_paul2/quantum/rgblight.o
                0x00000000000015c4                rgblight_set
 .text.rgblight_setrgb
                0x00000000000015fa       0x22 .build/obj_dz60_paul2/quantum/rgblight.o
                0x00000000000015fa                rgblight_setrgb
 .text.rgblight_sethsv_noeeprom_old
                0x000000000000161c       0x34 .build/obj_dz60_paul2/quantum/rgblight.o
                0x000000000000161c                rgblight_sethsv_noeeprom_old
 .text.rgblight_effect_breathing
                0x0000000000001650       0x28 .build/obj_dz60_paul2/quantum/rgblight.o
                0x0000000000001650                rgblight_effect_breathing
 .text.rgblight_effect_rainbow_mood
                0x0000000000001678       0x20 .build/obj_dz60_paul2/quantum/rgblight.o
                0x0000000000001678                rgblight_effect_rainbow_mood
 .text.rgblight_effect_rgbtest
                0x0000000000001698       0x7e .build/obj_dz60_paul2/quantum/rgblight.o
                0x0000000000001698                rgblight_effect_rgbtest
 .text.rgblight_sethsv_eeprom_helper
                0x0000000000001716      0x122 .build/obj_dz60_paul2/quantum/rgblight.o
                0x0000000000001716                rgblight_sethsv_eeprom_helper
 .text.rgblight_increase_hue_helper
                0x0000000000001838       0x14 .build/obj_dz60_paul2/quantum/rgblight.o
                0x0000000000001838                rgblight_increase_hue_helper
 .text.rgblight_increase_hue
                0x000000000000184c        0x6 .build/obj_dz60_paul2/quantum/rgblight.o
                0x000000000000184c                rgblight_increase_hue
 .text.rgblight_decrease_hue_helper
                0x0000000000001852       0x14 .build/obj_dz60_paul2/quantum/rgblight.o
                0x0000000000001852                rgblight_decrease_hue_helper
 .text.rgblight_decrease_hue
                0x0000000000001866        0x6 .build/obj_dz60_paul2/quantum/rgblight.o
                0x0000000000001866                rgblight_decrease_hue
 .text.rgblight_increase_sat_helper
                0x000000000000186c       0x18 .build/obj_dz60_paul2/quantum/rgblight.o
                0x000000000000186c                rgblight_increase_sat_helper
 .text.rgblight_increase_sat
                0x0000000000001884        0x6 .build/obj_dz60_paul2/quantum/rgblight.o
                0x0000000000001884                rgblight_increase_sat
 .text.rgblight_decrease_sat_helper
                0x000000000000188a       0x18 .build/obj_dz60_paul2/quantum/rgblight.o
                0x000000000000188a                rgblight_decrease_sat_helper
 .text.rgblight_decrease_sat
                0x00000000000018a2        0x6 .build/obj_dz60_paul2/quantum/rgblight.o
                0x00000000000018a2                rgblight_decrease_sat
 .text.rgblight_increase_val_helper
                0x00000000000018a8       0x18 .build/obj_dz60_paul2/quantum/rgblight.o
                0x00000000000018a8                rgblight_increase_val_helper
 .text.rgblight_increase_val
                0x00000000000018c0        0x6 .build/obj_dz60_paul2/quantum/rgblight.o
                0x00000000000018c0                rgblight_increase_val
 .text.rgblight_decrease_val_helper
                0x00000000000018c6       0x18 .build/obj_dz60_paul2/quantum/rgblight.o
                0x00000000000018c6                rgblight_decrease_val_helper
 .text.rgblight_decrease_val
                0x00000000000018de        0x6 .build/obj_dz60_paul2/quantum/rgblight.o
                0x00000000000018de                rgblight_decrease_val
 .text.rgblight_sethsv_noeeprom
                0x00000000000018e4        0x6 .build/obj_dz60_paul2/quantum/rgblight.o
                0x00000000000018e4                rgblight_sethsv_noeeprom
 .text.rgblight_effect_rainbow_swirl
                0x00000000000018ea       0x54 .build/obj_dz60_paul2/quantum/rgblight.o
                0x00000000000018ea                rgblight_effect_rainbow_swirl
 .text.rgblight_effect_snake
                0x000000000000193e       0xbe .build/obj_dz60_paul2/quantum/rgblight.o
                0x000000000000193e                rgblight_effect_snake
 .text.rgblight_effect_knight
                0x00000000000019fc       0x9c .build/obj_dz60_paul2/quantum/rgblight.o
                0x00000000000019fc                rgblight_effect_knight
 .text.rgblight_effect_christmas
                0x0000000000001a98       0x68 .build/obj_dz60_paul2/quantum/rgblight.o
                0x0000000000001a98                rgblight_effect_christmas
 .text.rgblight_effect_alternating
                0x0000000000001b00       0x72 .build/obj_dz60_paul2/quantum/rgblight.o
                0x0000000000001b00                rgblight_effect_alternating
 .text.rgblight_disable
                0x0000000000001b72       0x30 .build/obj_dz60_paul2/quantum/rgblight.o
                0x0000000000001b72                rgblight_disable
 .text.rgblight_timer_enable
                0x0000000000001ba2       0x2c .build/obj_dz60_paul2/quantum/rgblight.o
                0x0000000000001ba2                rgblight_timer_enable
 .text.rgblight_mode_eeprom_helper
                0x0000000000001bce       0x74 .build/obj_dz60_paul2/quantum/rgblight.o
                0x0000000000001bce                rgblight_mode_eeprom_helper
 .text.rgblight_step_helper
                0x0000000000001c42       0x16 .build/obj_dz60_paul2/quantum/rgblight.o
                0x0000000000001c42                rgblight_step_helper
 .text.rgblight_step
                0x0000000000001c58        0x6 .build/obj_dz60_paul2/quantum/rgblight.o
                0x0000000000001c58                rgblight_step
 .text.rgblight_step_reverse_helper
                0x0000000000001c5e       0x14 .build/obj_dz60_paul2/quantum/rgblight.o
                0x0000000000001c5e                rgblight_step_reverse_helper
 .text.rgblight_step_reverse
                0x0000000000001c72        0x6 .build/obj_dz60_paul2/quantum/rgblight.o
                0x0000000000001c72                rgblight_step_reverse
 .text.rgblight_mode
                0x0000000000001c78        0x6 .build/obj_dz60_paul2/quantum/rgblight.o
                0x0000000000001c78                rgblight_mode
 .text.rgblight_enable
                0x0000000000001c7e       0x10 .build/obj_dz60_paul2/quantum/rgblight.o
                0x0000000000001c7e                rgblight_enable
 .text.rgblight_toggle
                0x0000000000001c8e        0xe .build/obj_dz60_paul2/quantum/rgblight.o
                0x0000000000001c8e                rgblight_toggle
 .text.rgblight_mode_noeeprom
                0x0000000000001c9c        0x6 .build/obj_dz60_paul2/quantum/rgblight.o
                0x0000000000001c9c                rgblight_mode_noeeprom
 .text.rgblight_init
                0x0000000000001ca2       0x70 .build/obj_dz60_paul2/quantum/rgblight.o
                0x0000000000001ca2                rgblight_init
 .text.rgblight_task
                0x0000000000001d12      0x136 .build/obj_dz60_paul2/quantum/rgblight.o
                0x0000000000001d12                rgblight_task
 .text.ws2812_sendarray_mask
                0x0000000000001e48       0x44 .build/obj_dz60_paul2/ws2812.o
                0x0000000000001e48                ws2812_sendarray_mask
 .text.ws2812_setleds_pin
                0x0000000000001e8c       0x22 .build/obj_dz60_paul2/ws2812.o
                0x0000000000001e8c                ws2812_setleds_pin
 .text.ws2812_setleds
                0x0000000000001eae        0x6 .build/obj_dz60_paul2/ws2812.o
                0x0000000000001eae                ws2812_setleds
 .text.perform_space_cadet
                0x0000000000001eb4       0xda .build/obj_dz60_paul2/quantum/process_keycode/process_space_cadet.o
                0x0000000000001eb4                perform_space_cadet
 .text.process_space_cadet
                0x0000000000001f8e       0x78 .build/obj_dz60_paul2/quantum/process_keycode/process_space_cadet.o
                0x0000000000001f8e                process_space_cadet
 .text.host_set_driver
                0x0000000000002006        0xa .build/obj_dz60_paul2/common/host.o
                0x0000000000002006                host_set_driver
 .text.host_keyboard_leds
                0x0000000000002010       0x18 .build/obj_dz60_paul2/common/host.o
                0x0000000000002010                host_keyboard_leds
 .text.host_keyboard_send
                0x0000000000002028       0x34 .build/obj_dz60_paul2/common/host.o
                0x0000000000002028                host_keyboard_send
 .text.host_mouse_send
                0x000000000000205c       0x1c .build/obj_dz60_paul2/common/host.o
                0x000000000000205c                host_mouse_send
 .text.host_system_send
                0x0000000000002078       0x2c .build/obj_dz60_paul2/common/host.o
                0x0000000000002078                host_system_send
 .text.host_consumer_send
                0x00000000000020a4       0x2c .build/obj_dz60_paul2/common/host.o
                0x00000000000020a4                host_consumer_send
 .text.disable_jtag
                0x00000000000020d0        0xe .build/obj_dz60_paul2/common/keyboard.o
                0x00000000000020d0                disable_jtag
 .text.keyboard_pre_init_user
                0x00000000000020de        0x2 .build/obj_dz60_paul2/common/keyboard.o
                0x00000000000020de                keyboard_pre_init_user
 .text.matrix_setup
                0x00000000000020e0        0x2 .build/obj_dz60_paul2/common/keyboard.o
                0x00000000000020e0                matrix_setup
 .text.keyboard_pre_init_kb
                0x00000000000020e2        0x4 .build/obj_dz60_paul2/common/keyboard.o
                0x00000000000020e2                keyboard_pre_init_kb
 .text.keyboard_post_init_user
                0x00000000000020e6        0x2 .build/obj_dz60_paul2/common/keyboard.o
                0x00000000000020e6                keyboard_post_init_user
 .text.keyboard_post_init_kb
                0x00000000000020e8        0x4 .build/obj_dz60_paul2/common/keyboard.o
                0x00000000000020e8                keyboard_post_init_kb
 .text.keyboard_setup
                0x00000000000020ec        0xc .build/obj_dz60_paul2/common/keyboard.o
                0x00000000000020ec                keyboard_setup
 .text.is_keyboard_master
                0x00000000000020f8        0x4 .build/obj_dz60_paul2/common/keyboard.o
                0x00000000000020f8                is_keyboard_master
 .text.keyboard_init
                0x00000000000020fc       0x18 .build/obj_dz60_paul2/common/keyboard.o
                0x00000000000020fc                keyboard_init
 .text.keyboard_task
                0x0000000000002114      0x17e .build/obj_dz60_paul2/common/keyboard.o
                0x0000000000002114                keyboard_task
 .text.action_exec
                0x0000000000002292       0x54 .build/obj_dz60_paul2/common/action.o
                0x0000000000002292                action_exec
 .text.process_record_tap_hint
                0x00000000000022e6        0xa .build/obj_dz60_paul2/common/action.o
                0x00000000000022e6                process_record_tap_hint
 .text.register_code
                0x00000000000022f0      0x212 .build/obj_dz60_paul2/common/action.o
                0x00000000000022f0                register_code
 .text.unregister_code
                0x0000000000002502       0xac .build/obj_dz60_paul2/common/action.o
                0x0000000000002502                unregister_code
 .text.tap_code
                0x00000000000025ae       0x10 .build/obj_dz60_paul2/common/action.o
                0x00000000000025ae                tap_code
 .text.register_mods
                0x00000000000025be        0xe .build/obj_dz60_paul2/common/action.o
                0x00000000000025be                register_mods
 .text.unregister_mods
                0x00000000000025cc        0xe .build/obj_dz60_paul2/common/action.o
                0x00000000000025cc                unregister_mods
 .text.process_action
                0x00000000000025da      0x4fa .build/obj_dz60_paul2/common/action.o
                0x00000000000025da                process_action
 .text.process_record
                0x0000000000002ad4       0x54 .build/obj_dz60_paul2/common/action.o
                0x0000000000002ad4                process_record
 .text.clear_keyboard_but_mods_and_keys
                0x0000000000002b28       0x24 .build/obj_dz60_paul2/common/action.o
                0x0000000000002b28                clear_keyboard_but_mods_and_keys
 .text.clear_keyboard_but_mods
                0x0000000000002b4c        0x8 .build/obj_dz60_paul2/common/action.o
                0x0000000000002b4c                clear_keyboard_but_mods
 .text.clear_keyboard
                0x0000000000002b54        0x8 .build/obj_dz60_paul2/common/action.o
                0x0000000000002b54                clear_keyboard
 .text.is_tap_action
                0x0000000000002b5c       0x3e .build/obj_dz60_paul2/common/action.o
                0x0000000000002b5c                is_tap_action
 .text.is_tap_key
                0x0000000000002b9a        0x8 .build/obj_dz60_paul2/common/action.o
                0x0000000000002b9a                is_tap_key
 .text.debug_event
                0x0000000000002ba2       0x1e .build/obj_dz60_paul2/common/action.o
                0x0000000000002ba2                debug_event
 .text.debug_record
                0x0000000000002bc0       0x20 .build/obj_dz60_paul2/common/action.o
                0x0000000000002bc0                debug_record
 .text.debug_waiting_buffer
                0x0000000000002be0       0x42 .build/obj_dz60_paul2/common/action_tapping.o
 .text.debug_tapping_key
                0x0000000000002c22       0x1c .build/obj_dz60_paul2/common/action_tapping.o
 .text.waiting_buffer_scan_tap
                0x0000000000002c3e       0xc8 .build/obj_dz60_paul2/common/action_tapping.o
 .text.process_tapping
                0x0000000000002d06      0x38e .build/obj_dz60_paul2/common/action_tapping.o
 .text.action_tapping_process
                0x0000000000003094      0x134 .build/obj_dz60_paul2/common/action_tapping.o
                0x0000000000003094                action_tapping_process
 .text.action_macro_play
                0x00000000000031c8       0xf0 .build/obj_dz60_paul2/common/action_macro.o
                0x00000000000031c8                action_macro_play
 .text.default_layer_state_set_user
                0x00000000000032b8        0x2 .build/obj_dz60_paul2/common/action_layer.o
                0x00000000000032b8                default_layer_state_set_user
 .text.default_layer_state_set_kb
                0x00000000000032ba        0x4 .build/obj_dz60_paul2/common/action_layer.o
                0x00000000000032ba                default_layer_state_set_kb
 .text.default_layer_state_set
                0x00000000000032be       0x18 .build/obj_dz60_paul2/common/action_layer.o
 .text.default_layer_debug
                0x00000000000032d6        0x2 .build/obj_dz60_paul2/common/action_layer.o
                0x00000000000032d6                default_layer_debug
 .text.default_layer_set
                0x00000000000032d8        0x4 .build/obj_dz60_paul2/common/action_layer.o
                0x00000000000032d8                default_layer_set
 .text.default_layer_or
                0x00000000000032dc       0x24 .build/obj_dz60_paul2/common/action_layer.o
                0x00000000000032dc                default_layer_or
 .text.default_layer_and
                0x0000000000003300       0x24 .build/obj_dz60_paul2/common/action_layer.o
                0x0000000000003300                default_layer_and
 .text.default_layer_xor
                0x0000000000003324       0x24 .build/obj_dz60_paul2/common/action_layer.o
                0x0000000000003324                default_layer_xor
 .text.layer_state_set_user
                0x0000000000003348        0x4 .build/obj_dz60_paul2/common/action_layer.o
                0x0000000000003348                layer_state_set_user
 .text.layer_state_set_kb
                0x000000000000334c        0x4 .build/obj_dz60_paul2/common/action_layer.o
                0x000000000000334c                layer_state_set_kb
 .text.layer_state_set
                0x0000000000003350       0x18 .build/obj_dz60_paul2/common/action_layer.o
                0x0000000000003350                layer_state_set
 .text.layer_clear
                0x0000000000003368        0xa .build/obj_dz60_paul2/common/action_layer.o
                0x0000000000003368                layer_clear
 .text.layer_move
                0x0000000000003372       0x2a .build/obj_dz60_paul2/common/action_layer.o
                0x0000000000003372                layer_move
 .text.layer_on
                0x000000000000339c       0x42 .build/obj_dz60_paul2/common/action_layer.o
                0x000000000000339c                layer_on
 .text.layer_off
                0x00000000000033de       0x46 .build/obj_dz60_paul2/common/action_layer.o
                0x00000000000033de                layer_off
 .text.layer_invert
                0x0000000000003424       0x42 .build/obj_dz60_paul2/common/action_layer.o
                0x0000000000003424                layer_invert
 .text.layer_or
                0x0000000000003466       0x24 .build/obj_dz60_paul2/common/action_layer.o
                0x0000000000003466                layer_or
 .text.layer_and
                0x000000000000348a       0x24 .build/obj_dz60_paul2/common/action_layer.o
                0x000000000000348a                layer_and
 .text.layer_xor
                0x00000000000034ae       0x24 .build/obj_dz60_paul2/common/action_layer.o
                0x00000000000034ae                layer_xor
 .text.layer_debug
                0x00000000000034d2        0x2 .build/obj_dz60_paul2/common/action_layer.o
                0x00000000000034d2                layer_debug
 .text.update_source_layers_cache
                0x00000000000034d4       0x58 .build/obj_dz60_paul2/common/action_layer.o
                0x00000000000034d4                update_source_layers_cache
 .text.read_source_layers_cache
                0x000000000000352c       0x50 .build/obj_dz60_paul2/common/action_layer.o
                0x000000000000352c                read_source_layers_cache
 .text.layer_switch_get_layer
                0x000000000000357c       0x84 .build/obj_dz60_paul2/common/action_layer.o
                0x000000000000357c                layer_switch_get_layer
 .text.layer_switch_get_action
                0x0000000000003600       0x14 .build/obj_dz60_paul2/common/action_layer.o
                0x0000000000003600                layer_switch_get_action
 .text.store_or_get_action
                0x0000000000003614       0x48 .build/obj_dz60_paul2/common/action_layer.o
                0x0000000000003614                store_or_get_action
 .text.add_key  0x000000000000365c        0xe .build/obj_dz60_paul2/common/action_util.o
                0x000000000000365c                add_key
 .text.del_key  0x000000000000366a        0xe .build/obj_dz60_paul2/common/action_util.o
                0x000000000000366a                del_key
 .text.clear_keys
                0x0000000000003678        0xc .build/obj_dz60_paul2/common/action_util.o
                0x0000000000003678                clear_keys
 .text.get_oneshot_layer
                0x0000000000003684        0xc .build/obj_dz60_paul2/common/action_util.o
                0x0000000000003684                get_oneshot_layer
 .text.get_oneshot_layer_state
                0x0000000000003690        0x8 .build/obj_dz60_paul2/common/action_util.o
                0x0000000000003690                get_oneshot_layer_state
 .text.is_oneshot_layer_active
                0x0000000000003698        0xe .build/obj_dz60_paul2/common/action_util.o
                0x0000000000003698                is_oneshot_layer_active
 .text.get_mods
                0x00000000000036a6        0x6 .build/obj_dz60_paul2/common/action_util.o
                0x00000000000036a6                get_mods
 .text.add_mods
                0x00000000000036ac        0xc .build/obj_dz60_paul2/common/action_util.o
                0x00000000000036ac                add_mods
 .text.del_mods
                0x00000000000036b8        0xe .build/obj_dz60_paul2/common/action_util.o
                0x00000000000036b8                del_mods
 .text.clear_mods
                0x00000000000036c6        0x6 .build/obj_dz60_paul2/common/action_util.o
                0x00000000000036c6                clear_mods
 .text.add_weak_mods
                0x00000000000036cc        0xc .build/obj_dz60_paul2/common/action_util.o
                0x00000000000036cc                add_weak_mods
 .text.del_weak_mods
                0x00000000000036d8        0xe .build/obj_dz60_paul2/common/action_util.o
                0x00000000000036d8                del_weak_mods
 .text.clear_weak_mods
                0x00000000000036e6        0x6 .build/obj_dz60_paul2/common/action_util.o
                0x00000000000036e6                clear_weak_mods
 .text.add_macro_mods
                0x00000000000036ec        0xc .build/obj_dz60_paul2/common/action_util.o
                0x00000000000036ec                add_macro_mods
 .text.del_macro_mods
                0x00000000000036f8        0xe .build/obj_dz60_paul2/common/action_util.o
                0x00000000000036f8                del_macro_mods
 .text.clear_macro_mods
                0x0000000000003706        0x6 .build/obj_dz60_paul2/common/action_util.o
                0x0000000000003706                clear_macro_mods
 .text.get_oneshot_mods
                0x000000000000370c        0x6 .build/obj_dz60_paul2/common/action_util.o
                0x000000000000370c                get_oneshot_mods
 .text.oneshot_mods_changed_user
                0x0000000000003712        0x2 .build/obj_dz60_paul2/common/action_util.o
                0x0000000000003712                oneshot_mods_changed_user
 .text.oneshot_mods_changed_kb
                0x0000000000003714        0x4 .build/obj_dz60_paul2/common/action_util.o
                0x0000000000003714                oneshot_mods_changed_kb
 .text.set_oneshot_mods
                0x0000000000003718       0x12 .build/obj_dz60_paul2/common/action_util.o
                0x0000000000003718                set_oneshot_mods
 .text.clear_oneshot_mods
                0x000000000000372a       0x14 .build/obj_dz60_paul2/common/action_util.o
                0x000000000000372a                clear_oneshot_mods
 .text.send_keyboard_report
                0x000000000000373e       0x66 .build/obj_dz60_paul2/common/action_util.o
                0x000000000000373e                send_keyboard_report
 .text.oneshot_layer_changed_user
                0x00000000000037a4        0x2 .build/obj_dz60_paul2/common/action_util.o
                0x00000000000037a4                oneshot_layer_changed_user
 .text.oneshot_layer_changed_kb
                0x00000000000037a6        0x4 .build/obj_dz60_paul2/common/action_util.o
                0x00000000000037a6                oneshot_layer_changed_kb
 .text.set_oneshot_layer
                0x00000000000037aa       0x20 .build/obj_dz60_paul2/common/action_util.o
                0x00000000000037aa                set_oneshot_layer
 .text.reset_oneshot_layer
                0x00000000000037ca        0xa .build/obj_dz60_paul2/common/action_util.o
                0x00000000000037ca                reset_oneshot_layer
 .text.clear_oneshot_layer_state
                0x00000000000037d4       0x30 .build/obj_dz60_paul2/common/action_util.o
                0x00000000000037d4                clear_oneshot_layer_state
 .text.eeconfig_is_enabled
                0x0000000000003804       0x16 .build/obj_dz60_paul2/common/eeconfig.o
                0x0000000000003804                eeconfig_is_enabled
 .text.eeconfig_read_debug
                0x000000000000381a        0x8 .build/obj_dz60_paul2/common/eeconfig.o
                0x000000000000381a                eeconfig_read_debug
 .text.eeconfig_update_debug
                0x0000000000003822        0xa .build/obj_dz60_paul2/common/eeconfig.o
                0x0000000000003822                eeconfig_update_debug
 .text.eeconfig_read_default_layer
                0x000000000000382c        0x8 .build/obj_dz60_paul2/common/eeconfig.o
                0x000000000000382c                eeconfig_read_default_layer
 .text.eeconfig_update_default_layer
                0x0000000000003834        0xa .build/obj_dz60_paul2/common/eeconfig.o
                0x0000000000003834                eeconfig_update_default_layer
 .text.eeconfig_read_keymap
                0x000000000000383e        0x8 .build/obj_dz60_paul2/common/eeconfig.o
                0x000000000000383e                eeconfig_read_keymap
 .text.eeconfig_update_keymap
                0x0000000000003846        0xa .build/obj_dz60_paul2/common/eeconfig.o
                0x0000000000003846                eeconfig_update_keymap
 .text.eeconfig_read_backlight
                0x0000000000003850        0x8 .build/obj_dz60_paul2/common/eeconfig.o
                0x0000000000003850                eeconfig_read_backlight
 .text.eeconfig_update_backlight
                0x0000000000003858        0xa .build/obj_dz60_paul2/common/eeconfig.o
                0x0000000000003858                eeconfig_update_backlight
 .text.eeconfig_update_kb
                0x0000000000003862        0xc .build/obj_dz60_paul2/common/eeconfig.o
                0x0000000000003862                eeconfig_update_kb
 .text.eeconfig_update_user
                0x000000000000386e        0xc .build/obj_dz60_paul2/common/eeconfig.o
                0x000000000000386e                eeconfig_update_user
 .text.eeconfig_init_user
                0x000000000000387a        0xa .build/obj_dz60_paul2/common/eeconfig.o
                0x000000000000387a                eeconfig_init_user
 .text.eeconfig_init_kb
                0x0000000000003884        0xe .build/obj_dz60_paul2/common/eeconfig.o
                0x0000000000003884                eeconfig_init_kb
 .text.eeconfig_init_quantum
                0x0000000000003892       0x8c .build/obj_dz60_paul2/common/eeconfig.o
                0x0000000000003892                eeconfig_init_quantum
 .text.eeconfig_init
                0x000000000000391e        0x4 .build/obj_dz60_paul2/common/eeconfig.o
                0x000000000000391e                eeconfig_init
 .text.has_anykey
                0x0000000000003922       0x28 .build/obj_dz60_paul2/common/report.o
                0x0000000000003922                has_anykey
 .text.add_key_byte
                0x000000000000394a       0x34 .build/obj_dz60_paul2/common/report.o
                0x000000000000394a                add_key_byte
 .text.del_key_byte
                0x000000000000397e       0x1a .build/obj_dz60_paul2/common/report.o
                0x000000000000397e                del_key_byte
 .text.add_key_bit
                0x0000000000003998       0x28 .build/obj_dz60_paul2/common/report.o
                0x0000000000003998                add_key_bit
 .text.del_key_bit
                0x00000000000039c0       0x2a .build/obj_dz60_paul2/common/report.o
                0x00000000000039c0                del_key_bit
 .text.add_key_to_report
                0x00000000000039ea       0x16 .build/obj_dz60_paul2/common/report.o
                0x00000000000039ea                add_key_to_report
 .text.del_key_from_report
                0x0000000000003a00       0x16 .build/obj_dz60_paul2/common/report.o
                0x0000000000003a00                del_key_from_report
 .text.clear_keys_from_report
                0x0000000000003a16       0x24 .build/obj_dz60_paul2/common/report.o
                0x0000000000003a16                clear_keys_from_report
 .text.matrix_power_up
                0x0000000000003a3a        0x2 .build/obj_dz60_paul2/common/avr/suspend.o
                0x0000000000003a3a                matrix_power_up
 .text.suspend_power_down_user
                0x0000000000003a3c        0x2 .build/obj_dz60_paul2/common/avr/suspend.o
                0x0000000000003a3c                suspend_power_down_user
 .text.suspend_power_down_kb
                0x0000000000003a3e        0x4 .build/obj_dz60_paul2/common/avr/suspend.o
                0x0000000000003a3e                suspend_power_down_kb
 .text.suspend_power_down
                0x0000000000003a42       0x66 .build/obj_dz60_paul2/common/avr/suspend.o
                0x0000000000003a42                suspend_power_down
 .text.matrix_power_down
                0x0000000000003aa8        0x2 .build/obj_dz60_paul2/common/avr/suspend.o
                0x0000000000003aa8                matrix_power_down
 .text.suspend_wakeup_condition
                0x0000000000003aaa       0x2a .build/obj_dz60_paul2/common/avr/suspend.o
                0x0000000000003aaa                suspend_wakeup_condition
 .text.suspend_wakeup_init_user
                0x0000000000003ad4        0x2 .build/obj_dz60_paul2/common/avr/suspend.o
                0x0000000000003ad4                suspend_wakeup_init_user
 .text.suspend_wakeup_init_kb
                0x0000000000003ad6        0x4 .build/obj_dz60_paul2/common/avr/suspend.o
                0x0000000000003ad6                suspend_wakeup_init_kb
 .text.suspend_wakeup_init
                0x0000000000003ada       0x14 .build/obj_dz60_paul2/common/avr/suspend.o
                0x0000000000003ada                suspend_wakeup_init
 .text.__vector_12
                0x0000000000003aee       0x4e .build/obj_dz60_paul2/common/avr/suspend.o
                0x0000000000003aee                __vector_12
 .text.timer_init
                0x0000000000003b3c       0x12 .build/obj_dz60_paul2/common/avr/timer.o
                0x0000000000003b3c                timer_init
 .text.timer_read
                0x0000000000003b4e       0x18 .build/obj_dz60_paul2/common/avr/timer.o
                0x0000000000003b4e                timer_read
 .text.timer_elapsed
                0x0000000000003b66       0x54 .build/obj_dz60_paul2/common/avr/timer.o
                0x0000000000003b66                timer_elapsed
 .text.__vector_21
                0x0000000000003bba       0x48 .build/obj_dz60_paul2/common/avr/timer.o
                0x0000000000003bba                __vector_21
 .text.bootloader_jump
                0x0000000000003c02       0x48 .build/obj_dz60_paul2/common/avr/bootloader.o
                0x0000000000003c02                bootloader_jump
 .text.scan_keycode
                0x0000000000003c4a       0x7a .build/obj_dz60_paul2/common/bootmagic.o
 .text.bootmagic_scan_keycode
                0x0000000000003cc4       0x1c .build/obj_dz60_paul2/common/bootmagic.o
                0x0000000000003cc4                bootmagic_scan_keycode
 .text.bootmagic
                0x0000000000003ce0      0x212 .build/obj_dz60_paul2/common/bootmagic.o
                0x0000000000003ce0                bootmagic
 .text.move_unit
                0x0000000000003ef2       0x94 .build/obj_dz60_paul2/common/mousekey.o
 .text.wheel_unit
                0x0000000000003f86       0x72 .build/obj_dz60_paul2/common/mousekey.o
 .text.mousekey_on
                0x0000000000003ff8       0xd0 .build/obj_dz60_paul2/common/mousekey.o
                0x0000000000003ff8                mousekey_on
 .text.mousekey_off
                0x00000000000040c8       0xfe .build/obj_dz60_paul2/common/mousekey.o
                0x00000000000040c8                mousekey_off
 .text.mousekey_send
                0x00000000000041c6       0x16 .build/obj_dz60_paul2/common/mousekey.o
                0x00000000000041c6                mousekey_send
 .text.mousekey_task
                0x00000000000041dc      0x12e .build/obj_dz60_paul2/common/mousekey.o
                0x00000000000041dc                mousekey_task
 .text.mousekey_clear
                0x000000000000430a       0x18 .build/obj_dz60_paul2/common/mousekey.o
                0x000000000000430a                mousekey_clear
 .text.backlight_init
                0x0000000000004322       0x34 .build/obj_dz60_paul2/common/backlight.o
                0x0000000000004322                backlight_init
 .text.backlight_increase
                0x0000000000004356       0x30 .build/obj_dz60_paul2/common/backlight.o
                0x0000000000004356                backlight_increase
 .text.backlight_decrease
                0x0000000000004386       0x32 .build/obj_dz60_paul2/common/backlight.o
                0x0000000000004386                backlight_decrease
 .text.backlight_enable
                0x00000000000043b8       0x2c .build/obj_dz60_paul2/common/backlight.o
                0x00000000000043b8                backlight_enable
 .text.backlight_disable
                0x00000000000043e4       0x1a .build/obj_dz60_paul2/common/backlight.o
                0x00000000000043e4                backlight_disable
 .text.backlight_toggle
                0x00000000000043fe        0xe .build/obj_dz60_paul2/common/backlight.o
                0x00000000000043fe                backlight_toggle
 .text.backlight_step
                0x000000000000440c       0x46 .build/obj_dz60_paul2/common/backlight.o
                0x000000000000440c                backlight_step
 .text.backlight_level
                0x0000000000004452       0x38 .build/obj_dz60_paul2/common/backlight.o
                0x0000000000004452                backlight_level
 .text.keyboard_leds
                0x000000000000448a        0x6 .build/obj_dz60_paul2/lufa.o
 .text.send_consumer
                0x0000000000004490       0x76 .build/obj_dz60_paul2/lufa.o
 .text.send_system
                0x0000000000004506       0x6c .build/obj_dz60_paul2/lufa.o
 .text.send_mouse
                0x0000000000004572       0x56 .build/obj_dz60_paul2/lufa.o
 .text.send_keyboard
                0x00000000000045c8       0x8c .build/obj_dz60_paul2/lufa.o
 .text.EVENT_USB_Device_Connect
                0x0000000000004654       0x1c .build/obj_dz60_paul2/lufa.o
                0x0000000000004654                EVENT_USB_Device_Connect
 .text.EVENT_USB_Device_Disconnect
                0x0000000000004670        0x6 .build/obj_dz60_paul2/lufa.o
                0x0000000000004670                EVENT_USB_Device_Disconnect
 .text.EVENT_USB_Device_Reset
                0x0000000000004676        0x2 .build/obj_dz60_paul2/lufa.o
                0x0000000000004676                EVENT_USB_Device_Reset
 .text.EVENT_USB_Device_Suspend
                0x0000000000004678        0x2 .build/obj_dz60_paul2/lufa.o
                0x0000000000004678                EVENT_USB_Device_Suspend
 .text.EVENT_USB_Device_WakeUp
                0x000000000000467a        0x4 .build/obj_dz60_paul2/lufa.o
                0x000000000000467a                EVENT_USB_Device_WakeUp
 .text.EVENT_USB_Device_ConfigurationChanged
                0x000000000000467e       0x14 .build/obj_dz60_paul2/lufa.o
                0x000000000000467e                EVENT_USB_Device_ConfigurationChanged
 .text.EVENT_USB_Device_ControlRequest
                0x0000000000004692      0x16e .build/obj_dz60_paul2/lufa.o
                0x0000000000004692                EVENT_USB_Device_ControlRequest
 .text.startup.main
                0x0000000000004800       0x7a .build/obj_dz60_paul2/lufa.o
                0x0000000000004800                main
 .text.CALLBACK_USB_GetDescriptor
                0x000000000000487a        0x4 .build/obj_dz60_paul2/lufa.o
                0x000000000000487a                CALLBACK_USB_GetDescriptor
 .text.get_usb_descriptor
                0x000000000000487e       0xbc .build/obj_dz60_paul2/usb_descriptor.o
                0x000000000000487e                get_usb_descriptor
 .text.set_output_user
                0x000000000000493a        0x2 .build/obj_dz60_paul2/outputselect.o
                0x000000000000493a                set_output_user
 .text.set_output
                0x000000000000493c       0x10 .build/obj_dz60_paul2/outputselect.o
                0x000000000000493c                set_output
 .text.auto_detect_output
                0x000000000000494c       0x10 .build/obj_dz60_paul2/outputselect.o
                0x000000000000494c                auto_detect_output
 .text.where_to_send
                0x000000000000495c        0xe .build/obj_dz60_paul2/outputselect.o
                0x000000000000495c                where_to_send
 .text.USB_Device_SendRemoteWakeup
                0x000000000000496a       0x2c .build/obj_dz60_paul2/lib/lufa/LUFA/Drivers/USB/Core/AVR8/Device_AVR8.o
                0x000000000000496a                USB_Device_SendRemoteWakeup
 .text.Endpoint_Write_Stream_LE
                0x0000000000004996       0x9e .build/obj_dz60_paul2/lib/lufa/LUFA/Drivers/USB/Core/AVR8/EndpointStream_AVR8.o
                0x0000000000004996                Endpoint_Write_Stream_LE
 .text.Endpoint_Write_Control_Stream_LE
                0x0000000000004a34       0xbc .build/obj_dz60_paul2/lib/lufa/LUFA/Drivers/USB/Core/AVR8/EndpointStream_AVR8.o
                0x0000000000004a34                Endpoint_Write_Control_Stream_LE
 .text.Endpoint_Write_Control_PStream_LE
                0x0000000000004af0       0xbe .build/obj_dz60_paul2/lib/lufa/LUFA/Drivers/USB/Core/AVR8/EndpointStream_AVR8.o
                0x0000000000004af0                Endpoint_Write_Control_PStream_LE
 .text.Endpoint_ConfigureEndpoint_Prv
                0x0000000000004bae       0x68 .build/obj_dz60_paul2/lib/lufa/LUFA/Drivers/USB/Core/AVR8/Endpoint_AVR8.o
                0x0000000000004bae                Endpoint_ConfigureEndpoint_Prv
 .text.Endpoint_ClearStatusStage
                0x0000000000004c16       0x3e .build/obj_dz60_paul2/lib/lufa/LUFA/Drivers/USB/Core/AVR8/Endpoint_AVR8.o
                0x0000000000004c16                Endpoint_ClearStatusStage
 .text.Endpoint_WaitUntilReady
                0x0000000000004c54       0x62 .build/obj_dz60_paul2/lib/lufa/LUFA/Drivers/USB/Core/AVR8/Endpoint_AVR8.o
                0x0000000000004c54                Endpoint_WaitUntilReady
 .text.USB_Disable
                0x0000000000004cb6       0x34 .build/obj_dz60_paul2/lib/lufa/LUFA/Drivers/USB/Core/AVR8/USBController_AVR8.o
                0x0000000000004cb6                USB_Disable
 .text.USB_ResetInterface
                0x0000000000004cea       0x86 .build/obj_dz60_paul2/lib/lufa/LUFA/Drivers/USB/Core/AVR8/USBController_AVR8.o
                0x0000000000004cea                USB_ResetInterface
 .text.USB_Init
                0x0000000000004d70       0x22 .build/obj_dz60_paul2/lib/lufa/LUFA/Drivers/USB/Core/AVR8/USBController_AVR8.o
                0x0000000000004d70                USB_Init
 .text.USB_INT_DisableAllInterrupts
                0x0000000000004d92       0x10 .build/obj_dz60_paul2/lib/lufa/LUFA/Drivers/USB/Core/AVR8/USBInterrupt_AVR8.o
                0x0000000000004d92                USB_INT_DisableAllInterrupts
 .text.USB_INT_ClearAllInterrupts
                0x0000000000004da2        0xa .build/obj_dz60_paul2/lib/lufa/LUFA/Drivers/USB/Core/AVR8/USBInterrupt_AVR8.o
                0x0000000000004da2                USB_INT_ClearAllInterrupts
 .text.__vector_10
                0x0000000000004dac      0x1a8 .build/obj_dz60_paul2/lib/lufa/LUFA/Drivers/USB/Core/AVR8/USBInterrupt_AVR8.o
                0x0000000000004dac                __vector_10
 .text.__vector_11
                0x0000000000004f54       0x88 .build/obj_dz60_paul2/lib/lufa/LUFA/Drivers/USB/Core/AVR8/USBInterrupt_AVR8.o
                0x0000000000004f54                __vector_11
 .text.USB_Device_ProcessControlRequest
                0x0000000000004fdc      0x2a4 .build/obj_dz60_paul2/lib/lufa/LUFA/Drivers/USB/Core/DeviceStandardReq.o
                0x0000000000004fdc                USB_Device_ProcessControlRequest
 .text.USB_Event_Stub
                0x0000000000005280        0x2 .build/obj_dz60_paul2/lib/lufa/LUFA/Drivers/USB/Core/Events.o
                0x0000000000005280                USB_Event_Stub
                0x0000000000005280                EVENT_USB_Device_StartOfFrame
 .text.USB_USBTask
                0x0000000000005282       0x36 .build/obj_dz60_paul2/lib/lufa/LUFA/Drivers/USB/Core/USBTask.o
                0x0000000000005282                USB_USBTask
 .text.libgcc.mul
                0x00000000000052b8       0x20 /usr/lib/gcc/avr/8.3.0/avr5/libgcc.a(_mulsi3.o)
                0x00000000000052b8                __mulsi3
 .text.libgcc.div
                0x00000000000052d8       0x28 /usr/lib/gcc/avr/8.3.0/avr5/libgcc.a(_udivmodhi4.o)
                0x00000000000052d8                __udivmodhi4
 .text.libgcc.div
                0x0000000000005300       0x28 /usr/lib/gcc/avr/8.3.0/avr5/libgcc.a(_divmodhi4.o)
                0x0000000000005300                __divmodhi4
                0x0000000000005300                _div
 .text.libgcc.div
                0x0000000000005328       0x44 /usr/lib/gcc/avr/8.3.0/avr5/libgcc.a(_udivmodsi4.o)
                0x0000000000005328                __udivmodsi4
 .text.libgcc   0x000000000000536c        0xc /usr/lib/gcc/avr/8.3.0/avr5/libgcc.a(_tablejump2.o)
                0x000000000000536c                __tablejump2__
 .text.libgcc.mul
                0x0000000000005378       0x1e /usr/lib/gcc/avr/8.3.0/avr5/libgcc.a(_umulhisi3.o)
                0x0000000000005378                __umulhisi3
 .text.libgcc.mul
                0x0000000000005396       0x16 /usr/lib/gcc/avr/8.3.0/avr5/libgcc.a(_muluhisi3.o)
                0x0000000000005396                __muluhisi3
 .text.avr-libc
                0x00000000000053ac       0x1a /usr/lib/gcc/avr/8.3.0/../../../../avr/lib/avr5/libc.a(memchr.o)
                0x00000000000053ac                memchr
 .text.avr-libc
                0x00000000000053c6       0x10 /usr/lib/gcc/avr/8.3.0/../../../../avr/lib/avr5/libatmega32u4.a(eerd_byte.o)
                0x00000000000053c6                eeprom_read_byte
 .text.avr-libc
                0x00000000000053d6        0xc /usr/lib/gcc/avr/8.3.0/../../../../avr/lib/avr5/libatmega32u4.a(eerd_dword.o)
                0x00000000000053d6                eeprom_read_dword
                0x00000000000053d6                eeprom_read_float
 .text.avr-libc
                0x00000000000053e2        0xc /usr/lib/gcc/avr/8.3.0/../../../../avr/lib/avr5/libatmega32u4.a(eerd_word.o)
                0x00000000000053e2                eeprom_read_word
 .text.avr-libc
                0x00000000000053ee       0x24 /usr/lib/gcc/avr/8.3.0/../../../../avr/lib/avr5/libatmega32u4.a(eeupd_byte.o)
                0x00000000000053ee                eeprom_update_byte
                0x00000000000053f0                eeprom_update_r18
 .text.avr-libc
                0x0000000000005412       0x18 /usr/lib/gcc/avr/8.3.0/../../../../avr/lib/avr5/libatmega32u4.a(eeupd_dword.o)
                0x0000000000005412                eeprom_update_dword
                0x0000000000005412                eeprom_update_float
 .text.avr-libc
                0x000000000000542a        0xc /usr/lib/gcc/avr/8.3.0/../../../../avr/lib/avr5/libatmega32u4.a(eeupd_word.o)
                0x000000000000542a                eeprom_update_word
 .text.avr-libc
                0x0000000000005436       0x20 /usr/lib/gcc/avr/8.3.0/../../../../avr/lib/avr5/libatmega32u4.a(eerd_block.o)
                0x0000000000005436                eeprom_read_block
                0x000000000000543a                eeprom_read_blraw
                0x0000000000005456                . = ALIGN (0x2)
 *(.fini9)
 .fini9         0x0000000000005456        0x0 /usr/lib/gcc/avr/8.3.0/avr5/libgcc.a(_exit.o)
                0x0000000000005456                exit
                0x0000000000005456                _exit
 *(.fini9)
 *(.fini8)
 *(.fini8)
 *(.fini7)
 *(.fini7)
 *(.fini6)
 *(.fini6)
 *(.fini5)
 *(.fini5)
 *(.fini4)
 *(.fini4)
 *(.fini3)
 *(.fini3)
 *(.fini2)
 *(.fini2)
 *(.fini1)
 *(.fini1)
 *(.fini0)
 .fini0         0x0000000000005456        0x4 /usr/lib/gcc/avr/8.3.0/avr5/libgcc.a(_exit.o)
 *(.fini0)
 *(.hightext)
 *(.hightext*)
 *(.progmemx.*)
                0x000000000000545a                . = ALIGN (0x2)
 *(.jumptables)
 *(.jumptables*)
 .jumptables.gcc.process_record_quantum
                0x000000000000545a       0x24 .build/obj_dz60_paul2/quantum/quantum.o
 .jumptables.gcc.process_action
                0x000000000000547e       0x4a .build/obj_dz60_paul2/common/action.o
 .jumptables.gcc.is_tap_action
                0x00000000000054c8       0x1c .build/obj_dz60_paul2/common/action.o
 .jumptables.gcc.USB_Device_ProcessControlRequest
                0x00000000000054e4       0x14 .build/obj_dz60_paul2/lib/lufa/LUFA/Drivers/USB/Core/DeviceStandardReq.o
                0x00000000000054f8                _etext = .

.data           0x0000000000800100       0x5a load address 0x00000000000054f8
                0x0000000000800100                PROVIDE (__data_start = .)
 *(.data)
 *(.data*)
 .data.increment.3182
                0x0000000000800100        0x1 .build/obj_dz60_paul2/quantum/rgblight.o
 .data.high_bound.3181
                0x0000000000800101        0x1 .build/obj_dz60_paul2/quantum/rgblight.o
 .data.clipping_num_leds
                0x0000000000800102        0x1 .build/obj_dz60_paul2/quantum/rgblight.o
 .data.static_effect_table
                0x0000000000800103        0xb .build/obj_dz60_paul2/quantum/rgblight.o
 .data.keyboard_report
                0x000000000080010e        0x2 .build/obj_dz60_paul2/common/action_util.o
                0x000000000080010e                keyboard_report
 .data.mk_wheel_time_to_max
                0x0000000000800110        0x1 .build/obj_dz60_paul2/common/mousekey.o
                0x0000000000800110                mk_wheel_time_to_max
 .data.mk_wheel_max_speed
                0x0000000000800111        0x1 .build/obj_dz60_paul2/common/mousekey.o
                0x0000000000800111                mk_wheel_max_speed
 .data.mk_time_to_max
                0x0000000000800112        0x1 .build/obj_dz60_paul2/common/mousekey.o
                0x0000000000800112                mk_time_to_max
 .data.mk_max_speed
                0x0000000000800113        0x1 .build/obj_dz60_paul2/common/mousekey.o
                0x0000000000800113                mk_max_speed
 .data.mk_interval
                0x0000000000800114        0x1 .build/obj_dz60_paul2/common/mousekey.o
                0x0000000000800114                mk_interval
 .data.mk_delay
                0x0000000000800115        0x1 .build/obj_dz60_paul2/common/mousekey.o
                0x0000000000800115                mk_delay
 .data.lufa_driver
                0x0000000000800116        0xa .build/obj_dz60_paul2/lufa.o
                0x0000000000800116                lufa_driver
 .data.keyboard_protocol
                0x0000000000800120        0x1 .build/obj_dz60_paul2/lufa.o
                0x0000000000800120                keyboard_protocol
 *(.gnu.linkonce.d*)
 *(.rodata)
 *(.rodata*)
 .rodata.col_pins
                0x0000000000800121        0xf .build/obj_dz60_paul2/quantum/matrix.o
 .rodata.row_pins
                0x0000000000800130        0x5 .build/obj_dz60_paul2/quantum/matrix.o
 .rodata.mode_base_table
                0x0000000000800135       0x25 .build/obj_dz60_paul2/quantum/rgblight.o
 *(.gnu.linkonce.r*)
                0x000000000080015a                . = ALIGN (0x2)
                0x000000000080015a                _edata = .
                0x000000000080015a                PROVIDE (__data_end = .)

.bss            0x000000000080015a      0x14b
                0x000000000080015a                PROVIDE (__bss_start = .)
 *(.bss)
 *(.bss*)
 .bss.grave_esc_was_shifted
                0x000000000080015a        0x1 .build/obj_dz60_paul2/quantum/quantum.o
 .bss.matrix    0x000000000080015b        0xa .build/obj_dz60_paul2/quantum/matrix.o
 .bss.raw_matrix
                0x0000000000800165        0xa .build/obj_dz60_paul2/quantum/matrix.o
 .bss.debouncing_time
                0x000000000080016f        0x2 .build/obj_dz60_paul2/quantum/debounce/sym_g.o
 .bss.debouncing
                0x0000000000800171        0x1 .build/obj_dz60_paul2/quantum/debounce/sym_g.o
 .bss.maxval.3203
                0x0000000000800172        0x1 .build/obj_dz60_paul2/quantum/rgblight.o
 .bss.low_bound.3180
                0x0000000000800173        0x1 .build/obj_dz60_paul2/quantum/rgblight.o
 .bss.pos.3165  0x0000000000800174        0x1 .build/obj_dz60_paul2/quantum/rgblight.o
 .bss.clipping_start_pos
                0x0000000000800175        0x1 .build/obj_dz60_paul2/quantum/rgblight.o
 .bss.animation_status
                0x0000000000800176        0x6 .build/obj_dz60_paul2/quantum/rgblight.o
                0x0000000000800176                animation_status
 .bss.is_rgblight_initialized
                0x000000000080017c        0x1 .build/obj_dz60_paul2/quantum/rgblight.o
                0x000000000080017c                is_rgblight_initialized
 .bss.rgblight_status
                0x000000000080017d        0x2 .build/obj_dz60_paul2/quantum/rgblight.o
                0x000000000080017d                rgblight_status
 .bss.sc_timer  0x000000000080017f        0x2 .build/obj_dz60_paul2/quantum/process_keycode/process_space_cadet.o
 .bss.sc_last   0x0000000000800181        0x1 .build/obj_dz60_paul2/quantum/process_keycode/process_space_cadet.o
 .bss.last_consumer_report
                0x0000000000800182        0x2 .build/obj_dz60_paul2/common/host.o
 .bss.last_system_report
                0x0000000000800184        0x2 .build/obj_dz60_paul2/common/host.o
 .bss.driver    0x0000000000800186        0x2 .build/obj_dz60_paul2/common/host.o
 .bss.led_status.5631
                0x0000000000800188        0x1 .build/obj_dz60_paul2/common/keyboard.o
 .bss.matrix_prev.5630
                0x0000000000800189        0xa .build/obj_dz60_paul2/common/keyboard.o
 .bss.disable_action_cache
                0x0000000000800193        0x1 .build/obj_dz60_paul2/common/action.o
                0x0000000000800193                disable_action_cache
 .bss.waiting_buffer_tail
                0x0000000000800194        0x1 .build/obj_dz60_paul2/common/action_tapping.o
 .bss.waiting_buffer_head
                0x0000000000800195        0x1 .build/obj_dz60_paul2/common/action_tapping.o
 .bss.waiting_buffer
                0x0000000000800196       0x30 .build/obj_dz60_paul2/common/action_tapping.o
 .bss.tapping_key
                0x00000000008001c6        0x6 .build/obj_dz60_paul2/common/action_tapping.o
 .bss.source_layers_cache
                0x00000000008001cc       0x32 .build/obj_dz60_paul2/common/action_layer.o
                0x00000000008001cc                source_layers_cache
 .bss.layer_state
                0x00000000008001fe        0x4 .build/obj_dz60_paul2/common/action_layer.o
                0x00000000008001fe                layer_state
 .bss.default_layer_state
                0x0000000000800202        0x4 .build/obj_dz60_paul2/common/action_layer.o
                0x0000000000800202                default_layer_state
 .bss.oneshot_layer_data
                0x0000000000800206        0x1 .build/obj_dz60_paul2/common/action_util.o
 .bss.oneshot_mods
                0x0000000000800207        0x1 .build/obj_dz60_paul2/common/action_util.o
 .bss.__compound_literal.0
                0x0000000000800208       0x20 .build/obj_dz60_paul2/common/action_util.o
 .bss.macro_mods
                0x0000000000800228        0x1 .build/obj_dz60_paul2/common/action_util.o
 .bss.weak_mods
                0x0000000000800229        0x1 .build/obj_dz60_paul2/common/action_util.o
 .bss.real_mods
                0x000000000080022a        0x1 .build/obj_dz60_paul2/common/action_util.o
 .bss.debug_config
                0x000000000080022b        0x1 .build/obj_dz60_paul2/common/debug.o
                0x000000000080022b                debug_config
 .bss.wdt_timeout
                0x000000000080022c        0x1 .build/obj_dz60_paul2/common/avr/suspend.o
 .bss.last_timer
                0x000000000080022d        0x2 .build/obj_dz60_paul2/common/mousekey.o
 .bss.mousekey_repeat
                0x000000000080022f        0x1 .build/obj_dz60_paul2/common/mousekey.o
 .bss.mousekey_accel
                0x0000000000800230        0x1 .build/obj_dz60_paul2/common/mousekey.o
 .bss.mouse_report
                0x0000000000800231        0x6 .build/obj_dz60_paul2/common/mousekey.o
 .bss.keyboard_report_sent
                0x0000000000800237       0x20 .build/obj_dz60_paul2/lufa.o
 .bss.keyboard_led_stats
                0x0000000000800257        0x1 .build/obj_dz60_paul2/lufa.o
 .bss.keyboard_idle
                0x0000000000800258        0x1 .build/obj_dz60_paul2/lufa.o
                0x0000000000800258                keyboard_idle
 .bss.desired_output
                0x0000000000800259        0x1 .build/obj_dz60_paul2/outputselect.o
                0x0000000000800259                desired_output
 *(COMMON)
 COMMON         0x000000000080025a       0x35 .build/obj_dz60_paul2/quantum/rgblight.o
                0x000000000080025a                rgblight_config
                0x000000000080025f                led
 COMMON         0x000000000080028f        0x2 .build/obj_dz60_paul2/common/action.o
                0x000000000080028f                tp_buttons
 COMMON         0x0000000000800291        0x4 .build/obj_dz60_paul2/common/avr/timer.o
                0x0000000000800291                timer_count
 COMMON         0x0000000000800295        0x2 .build/obj_dz60_paul2/common/bootmagic.o
                0x0000000000800295                keymap_config
 COMMON         0x0000000000800297        0x1 .build/obj_dz60_paul2/common/backlight.o
                0x0000000000800297                backlight_config
 COMMON         0x0000000000800298        0x3 .build/obj_dz60_paul2/lib/lufa/LUFA/Drivers/USB/Core/DeviceStandardReq.o
                0x0000000000800298                USB_Device_ConfigurationNumber
                0x0000000000800299                USB_Device_CurrentlySelfPowered
                0x000000000080029a                USB_Device_RemoteWakeupEnabled
 COMMON         0x000000000080029b        0xa .build/obj_dz60_paul2/lib/lufa/LUFA/Drivers/USB/Core/USBTask.o
                0x000000000080029b                USB_IsInitialized
                0x000000000080029c                USB_DeviceState
                0x000000000080029d                USB_ControlRequest
                0x00000000008002a5                PROVIDE (__bss_end = .)
                0x00000000000054f8                __data_load_start = LOADADDR (.data)
                0x0000000000005552                __data_load_end = (__data_load_start + SIZEOF (.data))

.noinit         0x00000000008002a5        0x4
                [!provide]                        PROVIDE (__noinit_start = .)
 *(.noinit*)
 .noinit        0x00000000008002a5        0x4 .build/obj_dz60_paul2/common/avr/bootloader.o
                0x00000000008002a5                reset_key
                [!provide]                        PROVIDE (__noinit_end = .)
                0x00000000008002a9                _end = .
                [!provide]                        PROVIDE (__heap_start = .)

.eeprom         0x0000000000810000        0x0
 *(.eeprom*)
                0x0000000000810000                __eeprom_end = .

.fuse
 *(.fuse)
 *(.lfuse)
 *(.hfuse)
 *(.efuse)

.lock
 *(.lock*)

.signature
 *(.signature*)

.stab
 *(.stab)

.stabstr        0x0000000000000000       0x6d
 *(.stabstr)
 .stabstr       0x0000000000000000       0x6d .build/obj_dz60_paul2/common/avr/xprintf.o

.stab.excl
 *(.stab.excl)

.stab.exclstr
 *(.stab.exclstr)

.stab.index
 *(.stab.index)

.stab.indexstr
 *(.stab.indexstr)

.comment        0x0000000000000000       0x11
 *(.comment)
 .comment       0x0000000000000000       0x11 .build/obj_dz60_paul2/keyboards/dz60/dz60.o
                                         0x12 (size before relaxing)
 .comment       0x0000000000000011       0x12 .build/obj_dz60_paul2/keyboards/dz60/keymaps/paul2/keymap.o
 .comment       0x0000000000000011       0x12 .build/obj_dz60_paul2/quantum/quantum.o
 .comment       0x0000000000000011       0x12 .build/obj_dz60_paul2/quantum/keymap_common.o
 .comment       0x0000000000000011       0x12 .build/obj_dz60_paul2/quantum/keycode_config.o
 .comment       0x0000000000000011       0x12 .build/obj_dz60_paul2/quantum/matrix.o
 .comment       0x0000000000000011       0x12 .build/obj_dz60_paul2/quantum/debounce/sym_g.o
 .comment       0x0000000000000011       0x12 .build/obj_dz60_paul2/quantum/color.o
 .comment       0x0000000000000011       0x12 .build/obj_dz60_paul2/quantum/rgblight.o
 .comment       0x0000000000000011       0x12 .build/obj_dz60_paul2/ws2812.o
 .comment       0x0000000000000011       0x12 .build/obj_dz60_paul2/quantum/led_tables.o
 .comment       0x0000000000000011       0x12 .build/obj_dz60_paul2/quantum/process_keycode/process_space_cadet.o
 .comment       0x0000000000000011       0x12 .build/obj_dz60_paul2/common/host.o
 .comment       0x0000000000000011       0x12 .build/obj_dz60_paul2/common/keyboard.o
 .comment       0x0000000000000011       0x12 .build/obj_dz60_paul2/common/action.o
 .comment       0x0000000000000011       0x12 .build/obj_dz60_paul2/common/action_tapping.o
 .comment       0x0000000000000011       0x12 .build/obj_dz60_paul2/common/action_macro.o
 .comment       0x0000000000000011       0x12 .build/obj_dz60_paul2/common/action_layer.o
 .comment       0x0000000000000011       0x12 .build/obj_dz60_paul2/common/action_util.o
 .comment       0x0000000000000011       0x12 .build/obj_dz60_paul2/common/debug.o
 .comment       0x0000000000000011       0x12 .build/obj_dz60_paul2/common/eeconfig.o
 .comment       0x0000000000000011       0x12 .build/obj_dz60_paul2/common/report.o
 .comment       0x0000000000000011       0x12 .build/obj_dz60_paul2/common/avr/suspend.o
 .comment       0x0000000000000011       0x12 .build/obj_dz60_paul2/common/avr/timer.o
 .comment       0x0000000000000011       0x12 .build/obj_dz60_paul2/common/avr/bootloader.o
 .comment       0x0000000000000011       0x12 .build/obj_dz60_paul2/common/bootmagic.o
 .comment       0x0000000000000011       0x12 .build/obj_dz60_paul2/common/mousekey.o
 .comment       0x0000000000000011       0x12 .build/obj_dz60_paul2/common/backlight.o
 .comment       0x0000000000000011       0x12 .build/obj_dz60_paul2/lufa.o
 .comment       0x0000000000000011       0x12 .build/obj_dz60_paul2/usb_descriptor.o
 .comment       0x0000000000000011       0x12 .build/obj_dz60_paul2/outputselect.o
 .comment       0x0000000000000011       0x12 .build/obj_dz60_paul2/lib/lufa/LUFA/Drivers/USB/Core/AVR8/Device_AVR8.o
 .comment       0x0000000000000011       0x12 .build/obj_dz60_paul2/lib/lufa/LUFA/Drivers/USB/Core/AVR8/EndpointStream_AVR8.o
 .comment       0x0000000000000011       0x12 .build/obj_dz60_paul2/lib/lufa/LUFA/Drivers/USB/Core/AVR8/Endpoint_AVR8.o
 .comment       0x0000000000000011       0x12 .build/obj_dz60_paul2/lib/lufa/LUFA/Drivers/USB/Core/AVR8/USBController_AVR8.o
 .comment       0x0000000000000011       0x12 .build/obj_dz60_paul2/lib/lufa/LUFA/Drivers/USB/Core/AVR8/USBInterrupt_AVR8.o
 .comment       0x0000000000000011       0x12 .build/obj_dz60_paul2/lib/lufa/LUFA/Drivers/USB/Core/DeviceStandardReq.o
 .comment       0x0000000000000011       0x12 .build/obj_dz60_paul2/lib/lufa/LUFA/Drivers/USB/Core/Events.o
 .comment       0x0000000000000011       0x12 .build/obj_dz60_paul2/lib/lufa/LUFA/Drivers/USB/Core/USBTask.o

.note.gnu.avr.deviceinfo
                0x0000000000000000       0x40
 .note.gnu.avr.deviceinfo
                0x0000000000000000       0x40 /usr/lib/gcc/avr/8.3.0/../../../../avr/lib/avr5/crtatmega32u4.o

.note.gnu.build-id
 *(.note.gnu.build-id)

.debug
 *(.debug)

.line
 *(.line)

.debug_srcinfo
 *(.debug_srcinfo)

.debug_sfnames
 *(.debug_sfnames)

.debug_aranges  0x0000000000000000      0xfe0
 *(.debug_aranges)
 .debug_aranges
                0x0000000000000000       0x38 .build/obj_dz60_paul2/keyboards/dz60/dz60.o
 .debug_aranges
                0x0000000000000038       0x18 .build/obj_dz60_paul2/keyboards/dz60/keymaps/paul2/keymap.o
 .debug_aranges
                0x0000000000000050      0x158 .build/obj_dz60_paul2/quantum/quantum.o
 .debug_aranges
                0x00000000000001a8       0x40 .build/obj_dz60_paul2/quantum/keymap_common.o
 .debug_aranges
                0x00000000000001e8       0x28 .build/obj_dz60_paul2/quantum/keycode_config.o
 .debug_aranges
                0x0000000000000210       0x88 .build/obj_dz60_paul2/quantum/matrix.o
 .debug_aranges
                0x0000000000000298       0x30 .build/obj_dz60_paul2/quantum/debounce/sym_g.o
 .debug_aranges
                0x00000000000002c8       0x20 .build/obj_dz60_paul2/quantum/color.o
 .debug_aranges
                0x00000000000002e8      0x298 .build/obj_dz60_paul2/quantum/rgblight.o
 .debug_aranges
                0x0000000000000580       0x40 .build/obj_dz60_paul2/ws2812.o
 .debug_aranges
                0x00000000000005c0       0x18 .build/obj_dz60_paul2/quantum/led_tables.o
 .debug_aranges
                0x00000000000005d8       0x28 .build/obj_dz60_paul2/quantum/process_keycode/process_space_cadet.o
 .debug_aranges
                0x0000000000000600       0x60 .build/obj_dz60_paul2/common/host.o
 .debug_aranges
                0x0000000000000660       0x60 .build/obj_dz60_paul2/common/keyboard.o
 .debug_aranges
                0x00000000000006c0       0xb0 .build/obj_dz60_paul2/common/action.o
 .debug_aranges
                0x0000000000000770       0x48 .build/obj_dz60_paul2/common/action_tapping.o
 .debug_aranges
                0x00000000000007b8       0x20 .build/obj_dz60_paul2/common/action_macro.o
 .debug_aranges
                0x00000000000007d8       0xe0 .build/obj_dz60_paul2/common/action_layer.o
 .debug_aranges
                0x00000000000008b8      0x140 .build/obj_dz60_paul2/common/action_util.o
 .debug_aranges
                0x00000000000009f8       0x18 .build/obj_dz60_paul2/common/debug.o
 .debug_aranges
                0x0000000000000a10       0xd8 .build/obj_dz60_paul2/common/eeconfig.o
 .debug_aranges
                0x0000000000000ae8       0x60 .build/obj_dz60_paul2/common/report.o
 .debug_aranges
                0x0000000000000b48       0x58 .build/obj_dz60_paul2/common/avr/suspend.o
 .debug_aranges
                0x0000000000000ba0       0x50 .build/obj_dz60_paul2/common/avr/timer.o
 .debug_aranges
                0x0000000000000bf0       0x28 .build/obj_dz60_paul2/common/avr/bootloader.o
 .debug_aranges
                0x0000000000000c18       0x30 .build/obj_dz60_paul2/common/bootmagic.o
 .debug_aranges
                0x0000000000000c48       0x50 .build/obj_dz60_paul2/common/mousekey.o
 .debug_aranges
                0x0000000000000c98       0x68 .build/obj_dz60_paul2/common/backlight.o
 .debug_aranges
                0x0000000000000d00       0x88 .build/obj_dz60_paul2/lufa.o
 .debug_aranges
                0x0000000000000d88       0x20 .build/obj_dz60_paul2/usb_descriptor.o
 .debug_aranges
                0x0000000000000da8       0x38 .build/obj_dz60_paul2/outputselect.o
 .debug_aranges
                0x0000000000000de0       0x20 .build/obj_dz60_paul2/lib/lufa/LUFA/Drivers/USB/Core/AVR8/Device_AVR8.o
 .debug_aranges
                0x0000000000000e00       0xc8 .build/obj_dz60_paul2/lib/lufa/LUFA/Drivers/USB/Core/AVR8/EndpointStream_AVR8.o
 .debug_aranges
                0x0000000000000ec8       0x40 .build/obj_dz60_paul2/lib/lufa/LUFA/Drivers/USB/Core/AVR8/Endpoint_AVR8.o
 .debug_aranges
                0x0000000000000f08       0x30 .build/obj_dz60_paul2/lib/lufa/LUFA/Drivers/USB/Core/AVR8/USBController_AVR8.o
 .debug_aranges
                0x0000000000000f38       0x38 .build/obj_dz60_paul2/lib/lufa/LUFA/Drivers/USB/Core/AVR8/USBInterrupt_AVR8.o
 .debug_aranges
                0x0000000000000f70       0x20 .build/obj_dz60_paul2/lib/lufa/LUFA/Drivers/USB/Core/DeviceStandardReq.o
 .debug_aranges
                0x0000000000000f90       0x30 .build/obj_dz60_paul2/lib/lufa/LUFA/Drivers/USB/Core/Events.o
 .debug_aranges
                0x0000000000000fc0       0x20 .build/obj_dz60_paul2/lib/lufa/LUFA/Drivers/USB/Core/USBTask.o

.debug_pubnames
 *(.debug_pubnames)

.debug_info     0x0000000000000000    0x1ea40
 *(.debug_info .gnu.linkonce.wi.*)
 .debug_info    0x0000000000000000      0x9f4 /usr/lib/gcc/avr/8.3.0/../../../../avr/lib/avr5/crtatmega32u4.o
 .debug_info    0x00000000000009f4      0x846 .build/obj_dz60_paul2/keyboards/dz60/dz60.o
 .debug_info    0x000000000000123a     0x1669 .build/obj_dz60_paul2/keyboards/dz60/keymaps/paul2/keymap.o
 .debug_info    0x00000000000028a3     0x2f4e .build/obj_dz60_paul2/quantum/quantum.o
 .debug_info    0x00000000000057f1     0x1ee3 .build/obj_dz60_paul2/quantum/keymap_common.o
 .debug_info    0x00000000000076d4      0x618 .build/obj_dz60_paul2/quantum/keycode_config.o
 .debug_info    0x0000000000007cec      0xd99 .build/obj_dz60_paul2/quantum/matrix.o
 .debug_info    0x0000000000008a85      0x8a6 .build/obj_dz60_paul2/quantum/debounce/sym_g.o
 .debug_info    0x000000000000932b      0x282 .build/obj_dz60_paul2/quantum/color.o
 .debug_info    0x00000000000095ad     0x2883 .build/obj_dz60_paul2/quantum/rgblight.o
 .debug_info    0x000000000000be30      0x4bf .build/obj_dz60_paul2/ws2812.o
 .debug_info    0x000000000000c2ef       0xaf .build/obj_dz60_paul2/quantum/led_tables.o
 .debug_info    0x000000000000c39e     0x1743 .build/obj_dz60_paul2/quantum/process_keycode/process_space_cadet.o
 .debug_info    0x000000000000dae1      0x789 .build/obj_dz60_paul2/common/host.o
 .debug_info    0x000000000000e26a      0xaaa .build/obj_dz60_paul2/common/keyboard.o
 .debug_info    0x000000000000ed14     0x2036 .build/obj_dz60_paul2/common/action.o
 .debug_info    0x0000000000010d4a      0xfcf .build/obj_dz60_paul2/common/action_tapping.o
 .debug_info    0x0000000000011d19      0xb40 .build/obj_dz60_paul2/common/action_macro.o
 .debug_info    0x0000000000012859      0xce4 .build/obj_dz60_paul2/common/action_layer.o
 .debug_info    0x000000000001353d      0xd58 .build/obj_dz60_paul2/common/action_util.o
 .debug_info    0x0000000000014295      0x110 .build/obj_dz60_paul2/common/debug.o
 .debug_info    0x00000000000143a5      0x7b3 .build/obj_dz60_paul2/common/eeconfig.o
 .debug_info    0x0000000000014b58      0x7d4 .build/obj_dz60_paul2/common/report.o
 .debug_info    0x000000000001532c      0x7b8 .build/obj_dz60_paul2/common/avr/suspend.o
 .debug_info    0x0000000000015ae4      0x43e .build/obj_dz60_paul2/common/avr/timer.o
 .debug_info    0x0000000000015f22      0x3c4 .build/obj_dz60_paul2/common/avr/bootloader.o
 .debug_info    0x00000000000162e6      0xd76 .build/obj_dz60_paul2/common/bootmagic.o
 .debug_info    0x000000000001705c      0x764 .build/obj_dz60_paul2/common/mousekey.o
 .debug_info    0x00000000000177c0      0x3ab .build/obj_dz60_paul2/common/backlight.o
 .debug_info    0x0000000000017b6b     0x183f .build/obj_dz60_paul2/lufa.o
 .debug_info    0x00000000000193aa      0x9c3 .build/obj_dz60_paul2/usb_descriptor.o
 .debug_info    0x0000000000019d6d      0x581 .build/obj_dz60_paul2/outputselect.o
 .debug_info    0x000000000001a2ee      0x1c0 .build/obj_dz60_paul2/lib/lufa/LUFA/Drivers/USB/Core/AVR8/Device_AVR8.o
 .debug_info    0x000000000001a4ae     0x1da4 .build/obj_dz60_paul2/lib/lufa/LUFA/Drivers/USB/Core/AVR8/EndpointStream_AVR8.o
 .debug_info    0x000000000001c252      0x75d .build/obj_dz60_paul2/lib/lufa/LUFA/Drivers/USB/Core/AVR8/Endpoint_AVR8.o
 .debug_info    0x000000000001c9af      0x606 .build/obj_dz60_paul2/lib/lufa/LUFA/Drivers/USB/Core/AVR8/USBController_AVR8.o
 .debug_info    0x000000000001cfb5      0xa43 .build/obj_dz60_paul2/lib/lufa/LUFA/Drivers/USB/Core/AVR8/USBInterrupt_AVR8.o
 .debug_info    0x000000000001d9f8      0xc64 .build/obj_dz60_paul2/lib/lufa/LUFA/Drivers/USB/Core/DeviceStandardReq.o
 .debug_info    0x000000000001e65c       0xe9 .build/obj_dz60_paul2/lib/lufa/LUFA/Drivers/USB/Core/Events.o
 .debug_info    0x000000000001e745      0x2fb .build/obj_dz60_paul2/lib/lufa/LUFA/Drivers/USB/Core/USBTask.o

.debug_abbrev   0x0000000000000000     0x6dc7
 *(.debug_abbrev)
 .debug_abbrev  0x0000000000000000      0x96a /usr/lib/gcc/avr/8.3.0/../../../../avr/lib/avr5/crtatmega32u4.o
 .debug_abbrev  0x000000000000096a      0x24b .build/obj_dz60_paul2/keyboards/dz60/dz60.o
 .debug_abbrev  0x0000000000000bb5      0x205 .build/obj_dz60_paul2/keyboards/dz60/keymaps/paul2/keymap.o
 .debug_abbrev  0x0000000000000dba      0x632 .build/obj_dz60_paul2/quantum/quantum.o
 .debug_abbrev  0x00000000000013ec      0x338 .build/obj_dz60_paul2/quantum/keymap_common.o
 .debug_abbrev  0x0000000000001724      0x119 .build/obj_dz60_paul2/quantum/keycode_config.o
 .debug_abbrev  0x000000000000183d      0x4b5 .build/obj_dz60_paul2/quantum/matrix.o
 .debug_abbrev  0x0000000000001cf2      0x29a .build/obj_dz60_paul2/quantum/debounce/sym_g.o
 .debug_abbrev  0x0000000000001f8c      0x11e .build/obj_dz60_paul2/quantum/color.o
 .debug_abbrev  0x00000000000020aa      0x661 .build/obj_dz60_paul2/quantum/rgblight.o
 .debug_abbrev  0x000000000000270b      0x1f0 .build/obj_dz60_paul2/ws2812.o
 .debug_abbrev  0x00000000000028fb       0x6c .build/obj_dz60_paul2/quantum/led_tables.o
 .debug_abbrev  0x0000000000002967      0x29c .build/obj_dz60_paul2/quantum/process_keycode/process_space_cadet.o
 .debug_abbrev  0x0000000000002c03      0x248 .build/obj_dz60_paul2/common/host.o
 .debug_abbrev  0x0000000000002e4b      0x349 .build/obj_dz60_paul2/common/keyboard.o
 .debug_abbrev  0x0000000000003194      0x45e .build/obj_dz60_paul2/common/action.o
 .debug_abbrev  0x00000000000035f2      0x35f .build/obj_dz60_paul2/common/action_tapping.o
 .debug_abbrev  0x0000000000003951      0x284 .build/obj_dz60_paul2/common/action_macro.o
 .debug_abbrev  0x0000000000003bd5      0x305 .build/obj_dz60_paul2/common/action_layer.o
 .debug_abbrev  0x0000000000003eda      0x375 .build/obj_dz60_paul2/common/action_util.o
 .debug_abbrev  0x000000000000424f       0xa2 .build/obj_dz60_paul2/common/debug.o
 .debug_abbrev  0x00000000000042f1       0xf0 .build/obj_dz60_paul2/common/eeconfig.o
 .debug_abbrev  0x00000000000043e1      0x25b .build/obj_dz60_paul2/common/report.o
 .debug_abbrev  0x000000000000463c      0x321 .build/obj_dz60_paul2/common/avr/suspend.o
 .debug_abbrev  0x000000000000495d      0x1ba .build/obj_dz60_paul2/common/avr/timer.o
 .debug_abbrev  0x0000000000004b17      0x250 .build/obj_dz60_paul2/common/avr/bootloader.o
 .debug_abbrev  0x0000000000004d67      0x2f3 .build/obj_dz60_paul2/common/bootmagic.o
 .debug_abbrev  0x000000000000505a      0x2c7 .build/obj_dz60_paul2/common/mousekey.o
 .debug_abbrev  0x0000000000005321      0x153 .build/obj_dz60_paul2/common/backlight.o
 .debug_abbrev  0x0000000000005474      0x557 .build/obj_dz60_paul2/lufa.o
 .debug_abbrev  0x00000000000059cb      0x207 .build/obj_dz60_paul2/usb_descriptor.o
 .debug_abbrev  0x0000000000005bd2      0x236 .build/obj_dz60_paul2/outputselect.o
 .debug_abbrev  0x0000000000005e08       0xcb .build/obj_dz60_paul2/lib/lufa/LUFA/Drivers/USB/Core/AVR8/Device_AVR8.o
 .debug_abbrev  0x0000000000005ed3      0x23b .build/obj_dz60_paul2/lib/lufa/LUFA/Drivers/USB/Core/AVR8/EndpointStream_AVR8.o
 .debug_abbrev  0x000000000000610e      0x29d .build/obj_dz60_paul2/lib/lufa/LUFA/Drivers/USB/Core/AVR8/Endpoint_AVR8.o
 .debug_abbrev  0x00000000000063ab      0x1f5 .build/obj_dz60_paul2/lib/lufa/LUFA/Drivers/USB/Core/AVR8/USBController_AVR8.o
 .debug_abbrev  0x00000000000065a0      0x2a5 .build/obj_dz60_paul2/lib/lufa/LUFA/Drivers/USB/Core/AVR8/USBInterrupt_AVR8.o
 .debug_abbrev  0x0000000000006845      0x346 .build/obj_dz60_paul2/lib/lufa/LUFA/Drivers/USB/Core/DeviceStandardReq.o
 .debug_abbrev  0x0000000000006b8b       0x89 .build/obj_dz60_paul2/lib/lufa/LUFA/Drivers/USB/Core/Events.o
 .debug_abbrev  0x0000000000006c14      0x1b3 .build/obj_dz60_paul2/lib/lufa/LUFA/Drivers/USB/Core/USBTask.o

.debug_line     0x0000000000000000    0x15c7c
 *(.debug_line .debug_line.* .debug_line_end)
 .debug_line    0x0000000000000000       0x1d /usr/lib/gcc/avr/8.3.0/../../../../avr/lib/avr5/crtatmega32u4.o
 .debug_line    0x000000000000001d      0x2ae .build/obj_dz60_paul2/keyboards/dz60/dz60.o
 .debug_line    0x00000000000002cb      0x21d .build/obj_dz60_paul2/keyboards/dz60/keymaps/paul2/keymap.o
 .debug_line    0x00000000000004e8     0x1c0f .build/obj_dz60_paul2/quantum/quantum.o
 .debug_line    0x00000000000020f7      0x86b .build/obj_dz60_paul2/quantum/keymap_common.o
 .debug_line    0x0000000000002962      0x3e5 .build/obj_dz60_paul2/quantum/keycode_config.o
 .debug_line    0x0000000000002d47      0x79d .build/obj_dz60_paul2/quantum/matrix.o
 .debug_line    0x00000000000034e4      0x33c .build/obj_dz60_paul2/quantum/debounce/sym_g.o
 .debug_line    0x0000000000003820      0x2ad .build/obj_dz60_paul2/quantum/color.o
 .debug_line    0x0000000000003acd     0x271f .build/obj_dz60_paul2/quantum/rgblight.o
 .debug_line    0x00000000000061ec      0x2a5 .build/obj_dz60_paul2/ws2812.o
 .debug_line    0x0000000000006491       0x62 .build/obj_dz60_paul2/quantum/led_tables.o
 .debug_line    0x00000000000064f3      0x4ed .build/obj_dz60_paul2/quantum/process_keycode/process_space_cadet.o
 .debug_line    0x00000000000069e0      0x3d4 .build/obj_dz60_paul2/common/host.o
 .debug_line    0x0000000000006db4      0x597 .build/obj_dz60_paul2/common/keyboard.o
 .debug_line    0x000000000000734b     0x16f0 .build/obj_dz60_paul2/common/action.o
 .debug_line    0x0000000000008a3b      0xd0d .build/obj_dz60_paul2/common/action_tapping.o
 .debug_line    0x0000000000009748      0x491 .build/obj_dz60_paul2/common/action_macro.o
 .debug_line    0x0000000000009bd9      0x8fb .build/obj_dz60_paul2/common/action_layer.o
 .debug_line    0x000000000000a4d4      0x998 .build/obj_dz60_paul2/common/action_util.o
 .debug_line    0x000000000000ae6c       0x60 .build/obj_dz60_paul2/common/debug.o
 .debug_line    0x000000000000aecc      0x42a .build/obj_dz60_paul2/common/eeconfig.o
 .debug_line    0x000000000000b2f6      0x5c6 .build/obj_dz60_paul2/common/report.o
 .debug_line    0x000000000000b8bc      0x466 .build/obj_dz60_paul2/common/avr/suspend.o
 .debug_line    0x000000000000bd22      0x493 .build/obj_dz60_paul2/common/avr/timer.o
 .debug_line    0x000000000000c1b5      0x2c1 .build/obj_dz60_paul2/common/avr/bootloader.o
 .debug_line    0x000000000000c476      0x8f5 .build/obj_dz60_paul2/common/bootmagic.o
 .debug_line    0x000000000000cd6b      0xf3d .build/obj_dz60_paul2/common/mousekey.o
 .debug_line    0x000000000000dca8      0x4ba .build/obj_dz60_paul2/common/backlight.o
 .debug_line    0x000000000000e162     0x1275 .build/obj_dz60_paul2/lufa.o
 .debug_line    0x000000000000f3d7      0x36e .build/obj_dz60_paul2/usb_descriptor.o
 .debug_line    0x000000000000f745      0x242 .build/obj_dz60_paul2/outputselect.o
 .debug_line    0x000000000000f987      0x225 .build/obj_dz60_paul2/lib/lufa/LUFA/Drivers/USB/Core/AVR8/Device_AVR8.o
 .debug_line    0x000000000000fbac     0x336f .build/obj_dz60_paul2/lib/lufa/LUFA/Drivers/USB/Core/AVR8/EndpointStream_AVR8.o
 .debug_line    0x0000000000012f1b      0x97f .build/obj_dz60_paul2/lib/lufa/LUFA/Drivers/USB/Core/AVR8/Endpoint_AVR8.o
 .debug_line    0x000000000001389a      0x676 .build/obj_dz60_paul2/lib/lufa/LUFA/Drivers/USB/Core/AVR8/USBController_AVR8.o
 .debug_line    0x0000000000013f10      0xd18 .build/obj_dz60_paul2/lib/lufa/LUFA/Drivers/USB/Core/AVR8/USBInterrupt_AVR8.o
 .debug_line    0x0000000000014c28      0xd42 .build/obj_dz60_paul2/lib/lufa/LUFA/Drivers/USB/Core/DeviceStandardReq.o
 .debug_line    0x000000000001596a       0xc3 .build/obj_dz60_paul2/lib/lufa/LUFA/Drivers/USB/Core/Events.o
 .debug_line    0x0000000000015a2d      0x24f .build/obj_dz60_paul2/lib/lufa/LUFA/Drivers/USB/Core/USBTask.o

.debug_frame    0x0000000000000000     0x281c
 *(.debug_frame)
 .debug_frame   0x0000000000000000       0x54 .build/obj_dz60_paul2/keyboards/dz60/dz60.o
 .debug_frame   0x0000000000000054      0x438 .build/obj_dz60_paul2/quantum/quantum.o
 .debug_frame   0x000000000000048c       0x70 .build/obj_dz60_paul2/quantum/keymap_common.o
 .debug_frame   0x00000000000004fc       0x34 .build/obj_dz60_paul2/quantum/keycode_config.o
 .debug_frame   0x0000000000000530      0x180 .build/obj_dz60_paul2/quantum/matrix.o
 .debug_frame   0x00000000000006b0       0x64 .build/obj_dz60_paul2/quantum/debounce/sym_g.o
 .debug_frame   0x0000000000000714       0x54 .build/obj_dz60_paul2/quantum/color.o
 .debug_frame   0x0000000000000768      0x724 .build/obj_dz60_paul2/quantum/rgblight.o
 .debug_frame   0x0000000000000e8c       0x64 .build/obj_dz60_paul2/ws2812.o
 .debug_frame   0x0000000000000ef0       0x4c .build/obj_dz60_paul2/quantum/process_keycode/process_space_cadet.o
 .debug_frame   0x0000000000000f3c       0xa4 .build/obj_dz60_paul2/common/host.o
 .debug_frame   0x0000000000000fe0      0x124 .build/obj_dz60_paul2/common/keyboard.o
 .debug_frame   0x0000000000001104      0x1e8 .build/obj_dz60_paul2/common/action.o
 .debug_frame   0x00000000000012ec       0xf0 .build/obj_dz60_paul2/common/action_tapping.o
 .debug_frame   0x00000000000013dc       0x48 .build/obj_dz60_paul2/common/action_macro.o
 .debug_frame   0x0000000000001424      0x294 .build/obj_dz60_paul2/common/action_layer.o
 .debug_frame   0x00000000000016b8      0x284 .build/obj_dz60_paul2/common/action_util.o
 .debug_frame   0x000000000000193c      0x194 .build/obj_dz60_paul2/common/eeconfig.o
 .debug_frame   0x0000000000001ad0       0xb0 .build/obj_dz60_paul2/common/report.o
 .debug_frame   0x0000000000001b80       0xe0 .build/obj_dz60_paul2/common/avr/suspend.o
 .debug_frame   0x0000000000001c60       0xbc .build/obj_dz60_paul2/common/avr/timer.o
 .debug_frame   0x0000000000001d1c       0x34 .build/obj_dz60_paul2/common/avr/bootloader.o
 .debug_frame   0x0000000000001d50       0x8c .build/obj_dz60_paul2/common/bootmagic.o
 .debug_frame   0x0000000000001ddc       0x98 .build/obj_dz60_paul2/common/mousekey.o
 .debug_frame   0x0000000000001e74       0xb4 .build/obj_dz60_paul2/common/backlight.o
 .debug_frame   0x0000000000001f28      0x150 .build/obj_dz60_paul2/lufa.o
 .debug_frame   0x0000000000002078       0x24 .build/obj_dz60_paul2/usb_descriptor.o
 .debug_frame   0x000000000000209c       0x5c .build/obj_dz60_paul2/outputselect.o
 .debug_frame   0x00000000000020f8       0x24 .build/obj_dz60_paul2/lib/lufa/LUFA/Drivers/USB/Core/AVR8/Device_AVR8.o
 .debug_frame   0x000000000000211c      0x474 .build/obj_dz60_paul2/lib/lufa/LUFA/Drivers/USB/Core/AVR8/EndpointStream_AVR8.o
 .debug_frame   0x0000000000002590       0x7c .build/obj_dz60_paul2/lib/lufa/LUFA/Drivers/USB/Core/AVR8/Endpoint_AVR8.o
 .debug_frame   0x000000000000260c       0x5c .build/obj_dz60_paul2/lib/lufa/LUFA/Drivers/USB/Core/AVR8/USBController_AVR8.o
 .debug_frame   0x0000000000002668      0x108 .build/obj_dz60_paul2/lib/lufa/LUFA/Drivers/USB/Core/AVR8/USBInterrupt_AVR8.o
 .debug_frame   0x0000000000002770       0x3c .build/obj_dz60_paul2/lib/lufa/LUFA/Drivers/USB/Core/DeviceStandardReq.o
 .debug_frame   0x00000000000027ac       0x44 .build/obj_dz60_paul2/lib/lufa/LUFA/Drivers/USB/Core/Events.o
 .debug_frame   0x00000000000027f0       0x2c .build/obj_dz60_paul2/lib/lufa/LUFA/Drivers/USB/Core/USBTask.o

.debug_str      0x0000000000000000     0x66d1
 *(.debug_str)
 .debug_str     0x0000000000000000      0x371 /usr/lib/gcc/avr/8.3.0/../../../../avr/lib/avr5/crtatmega32u4.o
 .debug_str     0x0000000000000371      0x5f7 .build/obj_dz60_paul2/keyboards/dz60/dz60.o
                                        0x68d (size before relaxing)
 .debug_str     0x0000000000000968     0x1659 .build/obj_dz60_paul2/keyboards/dz60/keymaps/paul2/keymap.o
                                       0x1c71 (size before relaxing)
 .debug_str     0x0000000000001fc1      0xb3c .build/obj_dz60_paul2/quantum/quantum.o
                                       0x2505 (size before relaxing)
 .debug_str     0x0000000000002afd      0x3a1 .build/obj_dz60_paul2/quantum/keymap_common.o
                                       0x20e1 (size before relaxing)
 .debug_str     0x0000000000002e9e       0x6a .build/obj_dz60_paul2/quantum/keycode_config.o
                                        0x881 (size before relaxing)
 .debug_str     0x0000000000002f08      0x158 .build/obj_dz60_paul2/quantum/matrix.o
                                        0x827 (size before relaxing)
 .debug_str     0x0000000000003060       0x5d .build/obj_dz60_paul2/quantum/debounce/sym_g.o
                                        0x6a1 (size before relaxing)
 .debug_str     0x00000000000030bd       0x4e .build/obj_dz60_paul2/quantum/color.o
                                        0x1f9 (size before relaxing)
 .debug_str     0x000000000000310b      0x85e .build/obj_dz60_paul2/quantum/rgblight.o
                                       0x11e3 (size before relaxing)
 .debug_str     0x0000000000003969       0x9b .build/obj_dz60_paul2/ws2812.o
                                        0x2e5 (size before relaxing)
 .debug_str     0x0000000000003a04       0x15 .build/obj_dz60_paul2/quantum/led_tables.o
                                        0x1c7 (size before relaxing)
 .debug_str     0x0000000000003a19       0x62 .build/obj_dz60_paul2/quantum/process_keycode/process_space_cadet.o
                                       0x1a06 (size before relaxing)
 .debug_str     0x0000000000003a7b      0x113 .build/obj_dz60_paul2/common/host.o
                                        0x553 (size before relaxing)
 .debug_str     0x0000000000003b8e      0x1c2 .build/obj_dz60_paul2/common/keyboard.o
                                        0x7d1 (size before relaxing)
 .debug_str     0x0000000000003d50      0x3ed .build/obj_dz60_paul2/common/action.o
                                       0x16ad (size before relaxing)
 .debug_str     0x000000000000413d       0xf7 .build/obj_dz60_paul2/common/action_tapping.o
                                        0xbd6 (size before relaxing)
 .debug_str     0x0000000000004234       0x74 .build/obj_dz60_paul2/common/action_macro.o
                                        0xa46 (size before relaxing)
 .debug_str     0x00000000000042a8       0xd3 .build/obj_dz60_paul2/common/action_layer.o
                                        0x5bf (size before relaxing)
 .debug_str     0x000000000000437b      0x21a .build/obj_dz60_paul2/common/action_util.o
                                        0x86c (size before relaxing)
 .debug_str     0x0000000000004595       0x18 .build/obj_dz60_paul2/common/debug.o
                                        0x1f0 (size before relaxing)
 .debug_str     0x00000000000045ad      0x1dc .build/obj_dz60_paul2/common/eeconfig.o
                                        0x43b (size before relaxing)
 .debug_str     0x0000000000004789       0x65 .build/obj_dz60_paul2/common/report.o
                                        0x4b6 (size before relaxing)
 .debug_str     0x00000000000047ee      0x1ce .build/obj_dz60_paul2/common/avr/suspend.o
                                        0x5f6 (size before relaxing)
 .debug_str     0x00000000000049bc       0x84 .build/obj_dz60_paul2/common/avr/timer.o
                                        0x25b (size before relaxing)
 .debug_str     0x0000000000004a40       0x5b .build/obj_dz60_paul2/common/avr/bootloader.o
                                        0x38b (size before relaxing)
 .debug_str     0x0000000000004a9b       0x33 .build/obj_dz60_paul2/common/bootmagic.o
                                        0xb90 (size before relaxing)
 .debug_str     0x0000000000004ace       0x7b .build/obj_dz60_paul2/common/mousekey.o
                                        0x57a (size before relaxing)
 .debug_str     0x0000000000004b49       0x68 .build/obj_dz60_paul2/common/backlight.o
                                        0x339 (size before relaxing)
 .debug_str     0x0000000000004bb1      0x522 .build/obj_dz60_paul2/lufa.o
                                        0xdb3 (size before relaxing)
 .debug_str     0x00000000000050d3      0x6df .build/obj_dz60_paul2/usb_descriptor.o
                                        0xa9c (size before relaxing)
 .debug_str     0x00000000000057b2       0x58 .build/obj_dz60_paul2/outputselect.o
                                        0x4fa (size before relaxing)
 .debug_str     0x000000000000580a       0x5e .build/obj_dz60_paul2/lib/lufa/LUFA/Drivers/USB/Core/AVR8/Device_AVR8.o
                                        0x2ee (size before relaxing)
 .debug_str     0x0000000000005868      0x4a3 .build/obj_dz60_paul2/lib/lufa/LUFA/Drivers/USB/Core/AVR8/EndpointStream_AVR8.o
                                        0x8e2 (size before relaxing)
 .debug_str     0x0000000000005d0b      0x254 .build/obj_dz60_paul2/lib/lufa/LUFA/Drivers/USB/Core/AVR8/Endpoint_AVR8.o
                                        0x6a2 (size before relaxing)
 .debug_str     0x0000000000005f5f      0x181 .build/obj_dz60_paul2/lib/lufa/LUFA/Drivers/USB/Core/AVR8/USBController_AVR8.o
                                        0x5c6 (size before relaxing)
 .debug_str     0x00000000000060e0      0x146 .build/obj_dz60_paul2/lib/lufa/LUFA/Drivers/USB/Core/AVR8/USBInterrupt_AVR8.o
                                        0x696 (size before relaxing)
 .debug_str     0x0000000000006226      0x40d .build/obj_dz60_paul2/lib/lufa/LUFA/Drivers/USB/Core/DeviceStandardReq.o
                                        0x9f6 (size before relaxing)
 .debug_str     0x0000000000006633       0x59 .build/obj_dz60_paul2/lib/lufa/LUFA/Drivers/USB/Core/Events.o
                                        0x1e9 (size before relaxing)
 .debug_str     0x000000000000668c       0x45 .build/obj_dz60_paul2/lib/lufa/LUFA/Drivers/USB/Core/USBTask.o
                                        0x3f5 (size before relaxing)

.debug_loc      0x0000000000000000     0xc972
 *(.debug_loc)
 .debug_loc     0x0000000000000000       0x32 .build/obj_dz60_paul2/keyboards/dz60/dz60.o
 .debug_loc     0x0000000000000032     0x1637 .build/obj_dz60_paul2/quantum/quantum.o
 .debug_loc     0x0000000000001669      0x54d .build/obj_dz60_paul2/quantum/keymap_common.o
 .debug_loc     0x0000000000001bb6      0x1bf .build/obj_dz60_paul2/quantum/keycode_config.o
 .debug_loc     0x0000000000001d75      0x50d .build/obj_dz60_paul2/quantum/matrix.o
 .debug_loc     0x0000000000002282      0x13a .build/obj_dz60_paul2/quantum/debounce/sym_g.o
 .debug_loc     0x00000000000023bc      0x257 .build/obj_dz60_paul2/quantum/color.o
 .debug_loc     0x0000000000002613     0x21cf .build/obj_dz60_paul2/quantum/rgblight.o
 .debug_loc     0x00000000000047e2      0x2e4 .build/obj_dz60_paul2/ws2812.o
 .debug_loc     0x0000000000004ac6      0x40f .build/obj_dz60_paul2/quantum/process_keycode/process_space_cadet.o
 .debug_loc     0x0000000000004ed5       0xf0 .build/obj_dz60_paul2/common/host.o
 .debug_loc     0x0000000000004fc5      0x209 .build/obj_dz60_paul2/common/keyboard.o
 .debug_loc     0x00000000000051ce      0xdaf .build/obj_dz60_paul2/common/action.o
 .debug_loc     0x0000000000005f7d      0x6a5 .build/obj_dz60_paul2/common/action_tapping.o
 .debug_loc     0x0000000000006622      0x583 .build/obj_dz60_paul2/common/action_macro.o
 .debug_loc     0x0000000000006ba5      0x92e .build/obj_dz60_paul2/common/action_layer.o
 .debug_loc     0x00000000000074d3      0x2b6 .build/obj_dz60_paul2/common/action_util.o
 .debug_loc     0x0000000000007789      0x18a .build/obj_dz60_paul2/common/eeconfig.o
 .debug_loc     0x0000000000007913      0x41b .build/obj_dz60_paul2/common/report.o
 .debug_loc     0x0000000000007d2e       0xdf .build/obj_dz60_paul2/common/avr/suspend.o
 .debug_loc     0x0000000000007e0d      0x35b .build/obj_dz60_paul2/common/avr/timer.o
 .debug_loc     0x0000000000008168       0x4e .build/obj_dz60_paul2/common/avr/bootloader.o
 .debug_loc     0x00000000000081b6      0x2fa .build/obj_dz60_paul2/common/bootmagic.o
 .debug_loc     0x00000000000084b0      0x499 .build/obj_dz60_paul2/common/mousekey.o
 .debug_loc     0x0000000000008949       0x3b .build/obj_dz60_paul2/common/backlight.o
 .debug_loc     0x0000000000008984      0x7ad .build/obj_dz60_paul2/lufa.o
 .debug_loc     0x0000000000009131      0x28b .build/obj_dz60_paul2/usb_descriptor.o
 .debug_loc     0x00000000000093bc       0x55 .build/obj_dz60_paul2/outputselect.o
 .debug_loc     0x0000000000009411     0x274e .build/obj_dz60_paul2/lib/lufa/LUFA/Drivers/USB/Core/AVR8/EndpointStream_AVR8.o
 .debug_loc     0x000000000000bb5f      0x4a0 .build/obj_dz60_paul2/lib/lufa/LUFA/Drivers/USB/Core/AVR8/Endpoint_AVR8.o
 .debug_loc     0x000000000000bfff       0xf9 .build/obj_dz60_paul2/lib/lufa/LUFA/Drivers/USB/Core/AVR8/USBController_AVR8.o
 .debug_loc     0x000000000000c0f8      0x492 .build/obj_dz60_paul2/lib/lufa/LUFA/Drivers/USB/Core/AVR8/USBInterrupt_AVR8.o
 .debug_loc     0x000000000000c58a      0x386 .build/obj_dz60_paul2/lib/lufa/LUFA/Drivers/USB/Core/DeviceStandardReq.o
 .debug_loc     0x000000000000c910       0x62 .build/obj_dz60_paul2/lib/lufa/LUFA/Drivers/USB/Core/USBTask.o

.debug_macinfo
 *(.debug_macinfo)

.debug_weaknames
 *(.debug_weaknames)

.debug_funcnames
 *(.debug_funcnames)

.debug_typenames
 *(.debug_typenames)

.debug_varnames
 *(.debug_varnames)

.debug_pubtypes
 *(.debug_pubtypes)

.debug_ranges   0x0000000000000000     0x1768
 *(.debug_ranges)
 .debug_ranges  0x0000000000000000       0x28 .build/obj_dz60_paul2/keyboards/dz60/dz60.o
 .debug_ranges  0x0000000000000028      0x1d8 .build/obj_dz60_paul2/quantum/quantum.o
 .debug_ranges  0x0000000000000200       0x30 .build/obj_dz60_paul2/quantum/keymap_common.o
 .debug_ranges  0x0000000000000230       0x18 .build/obj_dz60_paul2/quantum/keycode_config.o
 .debug_ranges  0x0000000000000248      0x178 .build/obj_dz60_paul2/quantum/matrix.o
 .debug_ranges  0x00000000000003c0       0x38 .build/obj_dz60_paul2/quantum/debounce/sym_g.o
 .debug_ranges  0x00000000000003f8       0x10 .build/obj_dz60_paul2/quantum/color.o
 .debug_ranges  0x0000000000000408      0x460 .build/obj_dz60_paul2/quantum/rgblight.o
 .debug_ranges  0x0000000000000868       0x30 .build/obj_dz60_paul2/ws2812.o
 .debug_ranges  0x0000000000000898       0x18 .build/obj_dz60_paul2/quantum/process_keycode/process_space_cadet.o
 .debug_ranges  0x00000000000008b0       0x50 .build/obj_dz60_paul2/common/host.o
 .debug_ranges  0x0000000000000900       0xb0 .build/obj_dz60_paul2/common/keyboard.o
 .debug_ranges  0x00000000000009b0       0xd8 .build/obj_dz60_paul2/common/action.o
 .debug_ranges  0x0000000000000a88       0xf0 .build/obj_dz60_paul2/common/action_tapping.o
 .debug_ranges  0x0000000000000b78       0x28 .build/obj_dz60_paul2/common/action_macro.o
 .debug_ranges  0x0000000000000ba0      0x128 .build/obj_dz60_paul2/common/action_layer.o
 .debug_ranges  0x0000000000000cc8      0x130 .build/obj_dz60_paul2/common/action_util.o
 .debug_ranges  0x0000000000000df8       0xc8 .build/obj_dz60_paul2/common/eeconfig.o
 .debug_ranges  0x0000000000000ec0       0x50 .build/obj_dz60_paul2/common/report.o
 .debug_ranges  0x0000000000000f10       0x90 .build/obj_dz60_paul2/common/avr/suspend.o
 .debug_ranges  0x0000000000000fa0       0x40 .build/obj_dz60_paul2/common/avr/timer.o
 .debug_ranges  0x0000000000000fe0       0x30 .build/obj_dz60_paul2/common/avr/bootloader.o
 .debug_ranges  0x0000000000001010       0x78 .build/obj_dz60_paul2/common/bootmagic.o
 .debug_ranges  0x0000000000001088       0x40 .build/obj_dz60_paul2/common/mousekey.o
 .debug_ranges  0x00000000000010c8       0x58 .build/obj_dz60_paul2/common/backlight.o
 .debug_ranges  0x0000000000001120      0x138 .build/obj_dz60_paul2/lufa.o
 .debug_ranges  0x0000000000001258       0x28 .build/obj_dz60_paul2/usb_descriptor.o
 .debug_ranges  0x0000000000001280       0x28 .build/obj_dz60_paul2/outputselect.o
 .debug_ranges  0x00000000000012a8       0x10 .build/obj_dz60_paul2/lib/lufa/LUFA/Drivers/USB/Core/AVR8/Device_AVR8.o
 .debug_ranges  0x00000000000012b8      0x1f8 .build/obj_dz60_paul2/lib/lufa/LUFA/Drivers/USB/Core/AVR8/EndpointStream_AVR8.o
 .debug_ranges  0x00000000000014b0       0xd8 .build/obj_dz60_paul2/lib/lufa/LUFA/Drivers/USB/Core/AVR8/Endpoint_AVR8.o
 .debug_ranges  0x0000000000001588       0x50 .build/obj_dz60_paul2/lib/lufa/LUFA/Drivers/USB/Core/AVR8/USBController_AVR8.o
 .debug_ranges  0x00000000000015d8       0x70 .build/obj_dz60_paul2/lib/lufa/LUFA/Drivers/USB/Core/AVR8/USBInterrupt_AVR8.o
 .debug_ranges  0x0000000000001648       0xf0 .build/obj_dz60_paul2/lib/lufa/LUFA/Drivers/USB/Core/DeviceStandardReq.o
 .debug_ranges  0x0000000000001738       0x20 .build/obj_dz60_paul2/lib/lufa/LUFA/Drivers/USB/Core/Events.o
 .debug_ranges  0x0000000000001758       0x10 .build/obj_dz60_paul2/lib/lufa/LUFA/Drivers/USB/Core/USBTask.o

.debug_macro
 *(.debug_macro)

.debug_addr
 *(.debug_addr)
OUTPUT(.build/dz60_paul2.elf elf32-avr)
LOAD linker stubs

Cross Reference Table

Symbol                                            File
CALLBACK_HIDParser_FilterHIDReportItem            .build/obj_dz60_paul2/lib/lufa/LUFA/Drivers/USB/Class/Common/HIDParser.o
CALLBACK_USB_GetDescriptor                        .build/obj_dz60_paul2/lufa.o
                                                  .build/obj_dz60_paul2/lib/lufa/LUFA/Drivers/USB/Core/DeviceStandardReq.o
CIE1931_CURVE                                     .build/obj_dz60_paul2/quantum/led_tables.o
                                                  .build/obj_dz60_paul2/quantum/color.o
ConfigurationDescriptor                           .build/obj_dz60_paul2/usb_descriptor.o
DeviceDescriptor                                  .build/obj_dz60_paul2/usb_descriptor.o
EVENT_USB_Device_ConfigurationChanged             .build/obj_dz60_paul2/lufa.o
                                                  .build/obj_dz60_paul2/lib/lufa/LUFA/Drivers/USB/Core/DeviceStandardReq.o
EVENT_USB_Device_Connect                          .build/obj_dz60_paul2/lufa.o
                                                  .build/obj_dz60_paul2/lib/lufa/LUFA/Drivers/USB/Core/AVR8/USBInterrupt_AVR8.o
EVENT_USB_Device_ControlRequest                   .build/obj_dz60_paul2/lufa.o
                                                  .build/obj_dz60_paul2/lib/lufa/LUFA/Drivers/USB/Core/DeviceStandardReq.o
EVENT_USB_Device_Disconnect                       .build/obj_dz60_paul2/lufa.o
                                                  .build/obj_dz60_paul2/lib/lufa/LUFA/Drivers/USB/Core/AVR8/USBInterrupt_AVR8.o
EVENT_USB_Device_Reset                            .build/obj_dz60_paul2/lufa.o
                                                  .build/obj_dz60_paul2/lib/lufa/LUFA/Drivers/USB/Core/AVR8/USBInterrupt_AVR8.o
EVENT_USB_Device_StartOfFrame                     .build/obj_dz60_paul2/lib/lufa/LUFA/Drivers/USB/Core/Events.o
                                                  .build/obj_dz60_paul2/lib/lufa/LUFA/Drivers/USB/Core/AVR8/USBInterrupt_AVR8.o
EVENT_USB_Device_Suspend                          .build/obj_dz60_paul2/lufa.o
                                                  .build/obj_dz60_paul2/lib/lufa/LUFA/Drivers/USB/Core/AVR8/USBInterrupt_AVR8.o
EVENT_USB_Device_WakeUp                           .build/obj_dz60_paul2/lufa.o
                                                  .build/obj_dz60_paul2/lib/lufa/LUFA/Drivers/USB/Core/AVR8/USBInterrupt_AVR8.o
Endpoint_ClearEndpoints                           .build/obj_dz60_paul2/lib/lufa/LUFA/Drivers/USB/Core/AVR8/Endpoint_AVR8.o
Endpoint_ClearStatusStage                         .build/obj_dz60_paul2/lib/lufa/LUFA/Drivers/USB/Core/AVR8/Endpoint_AVR8.o
                                                  .build/obj_dz60_paul2/lib/lufa/LUFA/Drivers/USB/Core/DeviceStandardReq.o
                                                  .build/obj_dz60_paul2/lufa.o
Endpoint_ConfigureEndpointTable                   .build/obj_dz60_paul2/lib/lufa/LUFA/Drivers/USB/Core/AVR8/Endpoint_AVR8.o
Endpoint_ConfigureEndpoint_Prv                    .build/obj_dz60_paul2/lib/lufa/LUFA/Drivers/USB/Core/AVR8/Endpoint_AVR8.o
                                                  .build/obj_dz60_paul2/lib/lufa/LUFA/Drivers/USB/Core/AVR8/USBInterrupt_AVR8.o
                                                  .build/obj_dz60_paul2/lib/lufa/LUFA/Drivers/USB/Core/AVR8/USBController_AVR8.o
                                                  .build/obj_dz60_paul2/lufa.o
Endpoint_Discard_Stream                           .build/obj_dz60_paul2/lib/lufa/LUFA/Drivers/USB/Core/AVR8/EndpointStream_AVR8.o
Endpoint_Null_Stream                              .build/obj_dz60_paul2/lib/lufa/LUFA/Drivers/USB/Core/AVR8/EndpointStream_AVR8.o
Endpoint_Read_Control_EStream_BE                  .build/obj_dz60_paul2/lib/lufa/LUFA/Drivers/USB/Core/AVR8/EndpointStream_AVR8.o
Endpoint_Read_Control_EStream_LE                  .build/obj_dz60_paul2/lib/lufa/LUFA/Drivers/USB/Core/AVR8/EndpointStream_AVR8.o
Endpoint_Read_Control_Stream_BE                   .build/obj_dz60_paul2/lib/lufa/LUFA/Drivers/USB/Core/AVR8/EndpointStream_AVR8.o
Endpoint_Read_Control_Stream_LE                   .build/obj_dz60_paul2/lib/lufa/LUFA/Drivers/USB/Core/AVR8/EndpointStream_AVR8.o
Endpoint_Read_EStream_BE                          .build/obj_dz60_paul2/lib/lufa/LUFA/Drivers/USB/Core/AVR8/EndpointStream_AVR8.o
Endpoint_Read_EStream_LE                          .build/obj_dz60_paul2/lib/lufa/LUFA/Drivers/USB/Core/AVR8/EndpointStream_AVR8.o
Endpoint_Read_Stream_BE                           .build/obj_dz60_paul2/lib/lufa/LUFA/Drivers/USB/Core/AVR8/EndpointStream_AVR8.o
Endpoint_Read_Stream_LE                           .build/obj_dz60_paul2/lib/lufa/LUFA/Drivers/USB/Core/AVR8/EndpointStream_AVR8.o
Endpoint_WaitUntilReady                           .build/obj_dz60_paul2/lib/lufa/LUFA/Drivers/USB/Core/AVR8/Endpoint_AVR8.o
                                                  .build/obj_dz60_paul2/lib/lufa/LUFA/Drivers/USB/Core/AVR8/EndpointStream_AVR8.o
Endpoint_Write_Control_EStream_BE                 .build/obj_dz60_paul2/lib/lufa/LUFA/Drivers/USB/Core/AVR8/EndpointStream_AVR8.o
Endpoint_Write_Control_EStream_LE                 .build/obj_dz60_paul2/lib/lufa/LUFA/Drivers/USB/Core/AVR8/EndpointStream_AVR8.o
Endpoint_Write_Control_PStream_BE                 .build/obj_dz60_paul2/lib/lufa/LUFA/Drivers/USB/Core/AVR8/EndpointStream_AVR8.o
Endpoint_Write_Control_PStream_LE                 .build/obj_dz60_paul2/lib/lufa/LUFA/Drivers/USB/Core/AVR8/EndpointStream_AVR8.o
                                                  .build/obj_dz60_paul2/lib/lufa/LUFA/Drivers/USB/Core/DeviceStandardReq.o
Endpoint_Write_Control_Stream_BE                  .build/obj_dz60_paul2/lib/lufa/LUFA/Drivers/USB/Core/AVR8/EndpointStream_AVR8.o
Endpoint_Write_Control_Stream_LE                  .build/obj_dz60_paul2/lib/lufa/LUFA/Drivers/USB/Core/AVR8/EndpointStream_AVR8.o
                                                  .build/obj_dz60_paul2/lib/lufa/LUFA/Drivers/USB/Core/DeviceStandardReq.o
                                                  .build/obj_dz60_paul2/lufa.o
Endpoint_Write_EStream_BE                         .build/obj_dz60_paul2/lib/lufa/LUFA/Drivers/USB/Core/AVR8/EndpointStream_AVR8.o
Endpoint_Write_EStream_LE                         .build/obj_dz60_paul2/lib/lufa/LUFA/Drivers/USB/Core/AVR8/EndpointStream_AVR8.o
Endpoint_Write_PStream_BE                         .build/obj_dz60_paul2/lib/lufa/LUFA/Drivers/USB/Core/AVR8/EndpointStream_AVR8.o
Endpoint_Write_PStream_LE                         .build/obj_dz60_paul2/lib/lufa/LUFA/Drivers/USB/Core/AVR8/EndpointStream_AVR8.o
Endpoint_Write_Stream_BE                          .build/obj_dz60_paul2/lib/lufa/LUFA/Drivers/USB/Core/AVR8/EndpointStream_AVR8.o
Endpoint_Write_Stream_LE                          .build/obj_dz60_paul2/lib/lufa/LUFA/Drivers/USB/Core/AVR8/EndpointStream_AVR8.o
                                                  .build/obj_dz60_paul2/lufa.o
KeyboardReport                                    .build/obj_dz60_paul2/usb_descriptor.o
LED_BREATHING_TABLE                               .build/obj_dz60_paul2/quantum/led_tables.o
LanguageString                                    .build/obj_dz60_paul2/usb_descriptor.o
ManufacturerString                                .build/obj_dz60_paul2/usb_descriptor.o
ProductString                                     .build/obj_dz60_paul2/usb_descriptor.o
RGBLED_BREATHING_INTERVALS                        .build/obj_dz60_paul2/quantum/rgblight.o
RGBLED_GRADIENT_RANGES                            .build/obj_dz60_paul2/quantum/rgblight.o
RGBLED_KNIGHT_INTERVALS                           .build/obj_dz60_paul2/quantum/rgblight.o
RGBLED_RAINBOW_MOOD_INTERVALS                     .build/obj_dz60_paul2/quantum/rgblight.o
RGBLED_RAINBOW_SWIRL_INTERVALS                    .build/obj_dz60_paul2/quantum/rgblight.o
RGBLED_RGBTEST_INTERVALS                          .build/obj_dz60_paul2/quantum/rgblight.o
RGBLED_SNAKE_INTERVALS                            .build/obj_dz60_paul2/quantum/rgblight.o
SerialNumberString                                .build/obj_dz60_paul2/usb_descriptor.o
SharedReport                                      .build/obj_dz60_paul2/usb_descriptor.o
USB_ControlRequest                                .build/obj_dz60_paul2/lib/lufa/LUFA/Drivers/USB/Core/USBTask.o
                                                  .build/obj_dz60_paul2/lib/lufa/LUFA/Drivers/USB/Core/DeviceStandardReq.o
                                                  .build/obj_dz60_paul2/lib/lufa/LUFA/Drivers/USB/Core/AVR8/Endpoint_AVR8.o
                                                  .build/obj_dz60_paul2/lib/lufa/LUFA/Drivers/USB/Core/AVR8/EndpointStream_AVR8.o
                                                  .build/obj_dz60_paul2/lufa.o
USB_DeviceState                                   .build/obj_dz60_paul2/lib/lufa/LUFA/Drivers/USB/Core/USBTask.o
                                                  .build/obj_dz60_paul2/lib/lufa/LUFA/Drivers/USB/Core/DeviceStandardReq.o
                                                  .build/obj_dz60_paul2/lib/lufa/LUFA/Drivers/USB/Core/AVR8/USBInterrupt_AVR8.o
                                                  .build/obj_dz60_paul2/lib/lufa/LUFA/Drivers/USB/Core/AVR8/USBController_AVR8.o
                                                  .build/obj_dz60_paul2/lib/lufa/LUFA/Drivers/USB/Core/AVR8/Endpoint_AVR8.o
                                                  .build/obj_dz60_paul2/lib/lufa/LUFA/Drivers/USB/Core/AVR8/EndpointStream_AVR8.o
                                                  .build/obj_dz60_paul2/outputselect.o
                                                  .build/obj_dz60_paul2/lufa.o
                                                  .build/obj_dz60_paul2/common/avr/suspend.o
USB_Device_ConfigurationNumber                    .build/obj_dz60_paul2/lib/lufa/LUFA/Drivers/USB/Core/DeviceStandardReq.o
                                                  .build/obj_dz60_paul2/lib/lufa/LUFA/Drivers/USB/Core/AVR8/USBInterrupt_AVR8.o
                                                  .build/obj_dz60_paul2/lib/lufa/LUFA/Drivers/USB/Core/AVR8/USBController_AVR8.o
USB_Device_CurrentlySelfPowered                   .build/obj_dz60_paul2/lib/lufa/LUFA/Drivers/USB/Core/DeviceStandardReq.o
                                                  .build/obj_dz60_paul2/lib/lufa/LUFA/Drivers/USB/Core/AVR8/USBController_AVR8.o
USB_Device_ProcessControlRequest                  .build/obj_dz60_paul2/lib/lufa/LUFA/Drivers/USB/Core/DeviceStandardReq.o
                                                  .build/obj_dz60_paul2/lib/lufa/LUFA/Drivers/USB/Core/USBTask.o
                                                  .build/obj_dz60_paul2/lib/lufa/LUFA/Drivers/USB/Core/AVR8/USBInterrupt_AVR8.o
USB_Device_RemoteWakeupEnabled                    .build/obj_dz60_paul2/lib/lufa/LUFA/Drivers/USB/Core/DeviceStandardReq.o
                                                  .build/obj_dz60_paul2/lib/lufa/LUFA/Drivers/USB/Core/AVR8/USBController_AVR8.o
                                                  .build/obj_dz60_paul2/lufa.o
USB_Device_SendRemoteWakeup                       .build/obj_dz60_paul2/lib/lufa/LUFA/Drivers/USB/Core/AVR8/Device_AVR8.o
                                                  .build/obj_dz60_paul2/lufa.o
USB_Disable                                       .build/obj_dz60_paul2/lib/lufa/LUFA/Drivers/USB/Core/AVR8/USBController_AVR8.o
                                                  .build/obj_dz60_paul2/lufa.o
USB_Event_Stub                                    .build/obj_dz60_paul2/lib/lufa/LUFA/Drivers/USB/Core/Events.o
USB_Event_Stub_2                                  .build/obj_dz60_paul2/lib/lufa/LUFA/Drivers/USB/Core/Events.o
USB_Event_Stub_3                                  .build/obj_dz60_paul2/lib/lufa/LUFA/Drivers/USB/Core/Events.o
USB_GetHIDReportItemInfo                          .build/obj_dz60_paul2/lib/lufa/LUFA/Drivers/USB/Class/Common/HIDParser.o
USB_GetHIDReportSize                              .build/obj_dz60_paul2/lib/lufa/LUFA/Drivers/USB/Class/Common/HIDParser.o
USB_GetNextDescriptorComp                         .build/obj_dz60_paul2/lib/lufa/LUFA/Drivers/USB/Core/ConfigDescriptors.o
USB_GetNextDescriptorOfType                       .build/obj_dz60_paul2/lib/lufa/LUFA/Drivers/USB/Core/ConfigDescriptors.o
USB_GetNextDescriptorOfTypeAfter                  .build/obj_dz60_paul2/lib/lufa/LUFA/Drivers/USB/Core/ConfigDescriptors.o
USB_GetNextDescriptorOfTypeBefore                 .build/obj_dz60_paul2/lib/lufa/LUFA/Drivers/USB/Core/ConfigDescriptors.o
USB_INT_ClearAllInterrupts                        .build/obj_dz60_paul2/lib/lufa/LUFA/Drivers/USB/Core/AVR8/USBInterrupt_AVR8.o
                                                  .build/obj_dz60_paul2/lib/lufa/LUFA/Drivers/USB/Core/AVR8/USBController_AVR8.o
USB_INT_DisableAllInterrupts                      .build/obj_dz60_paul2/lib/lufa/LUFA/Drivers/USB/Core/AVR8/USBInterrupt_AVR8.o
                                                  .build/obj_dz60_paul2/lib/lufa/LUFA/Drivers/USB/Core/AVR8/USBController_AVR8.o
USB_Init                                          .build/obj_dz60_paul2/lib/lufa/LUFA/Drivers/USB/Core/AVR8/USBController_AVR8.o
                                                  .build/obj_dz60_paul2/lufa.o
USB_IsInitialized                                 .build/obj_dz60_paul2/lib/lufa/LUFA/Drivers/USB/Core/USBTask.o
                                                  .build/obj_dz60_paul2/lib/lufa/LUFA/Drivers/USB/Core/AVR8/USBController_AVR8.o
                                                  .build/obj_dz60_paul2/lufa.o
USB_ProcessHIDReport                              .build/obj_dz60_paul2/lib/lufa/LUFA/Drivers/USB/Class/Common/HIDParser.o
USB_ResetInterface                                .build/obj_dz60_paul2/lib/lufa/LUFA/Drivers/USB/Core/AVR8/USBController_AVR8.o
USB_SetHIDReportItemInfo                          .build/obj_dz60_paul2/lib/lufa/LUFA/Drivers/USB/Class/Common/HIDParser.o
USB_USBTask                                       .build/obj_dz60_paul2/lib/lufa/LUFA/Drivers/USB/Core/USBTask.o
                                                  .build/obj_dz60_paul2/lufa.o
__bad_interrupt                                   /usr/lib/gcc/avr/8.3.0/../../../../avr/lib/avr5/crtatmega32u4.o
__bss_end                                         /usr/lib/gcc/avr/8.3.0/avr5/libgcc.a(_clear_bss.o)
__bss_start                                       /usr/lib/gcc/avr/8.3.0/avr5/libgcc.a(_clear_bss.o)
__data_end                                        /usr/lib/gcc/avr/8.3.0/avr5/libgcc.a(_copy_data.o)
__data_load_start                                 /usr/lib/gcc/avr/8.3.0/avr5/libgcc.a(_copy_data.o)
__data_start                                      /usr/lib/gcc/avr/8.3.0/avr5/libgcc.a(_copy_data.o)
__divmodhi4                                       /usr/lib/gcc/avr/8.3.0/avr5/libgcc.a(_divmodhi4.o)
                                                  .build/obj_dz60_paul2/common/mousekey.o
                                                  .build/obj_dz60_paul2/quantum/rgblight.o
__do_clear_bss                                    /usr/lib/gcc/avr/8.3.0/avr5/libgcc.a(_clear_bss.o)
                                                  .build/obj_dz60_paul2/lib/lufa/LUFA/Drivers/USB/Core/USBTask.o
                                                  .build/obj_dz60_paul2/lib/lufa/LUFA/Drivers/USB/Core/DeviceStandardReq.o
                                                  .build/obj_dz60_paul2/outputselect.o
                                                  .build/obj_dz60_paul2/lufa.o
                                                  .build/obj_dz60_paul2/common/backlight.o
                                                  .build/obj_dz60_paul2/common/mousekey.o
                                                  .build/obj_dz60_paul2/common/bootmagic.o
                                                  .build/obj_dz60_paul2/common/avr/timer.o
                                                  .build/obj_dz60_paul2/common/avr/suspend.o
                                                  .build/obj_dz60_paul2/common/debug.o
                                                  .build/obj_dz60_paul2/common/action_util.o
                                                  .build/obj_dz60_paul2/common/action_layer.o
                                                  .build/obj_dz60_paul2/common/action_tapping.o
                                                  .build/obj_dz60_paul2/common/action.o
                                                  .build/obj_dz60_paul2/common/keyboard.o
                                                  .build/obj_dz60_paul2/common/host.o
                                                  .build/obj_dz60_paul2/quantum/process_keycode/process_space_cadet.o
                                                  .build/obj_dz60_paul2/quantum/rgblight.o
                                                  .build/obj_dz60_paul2/quantum/debounce/sym_g.o
                                                  .build/obj_dz60_paul2/quantum/matrix.o
                                                  .build/obj_dz60_paul2/quantum/quantum.o
__do_copy_data                                    /usr/lib/gcc/avr/8.3.0/avr5/libgcc.a(_copy_data.o)
                                                  .build/obj_dz60_paul2/lufa.o
                                                  .build/obj_dz60_paul2/common/mousekey.o
                                                  .build/obj_dz60_paul2/common/action_util.o
                                                  .build/obj_dz60_paul2/quantum/rgblight.o
                                                  .build/obj_dz60_paul2/quantum/matrix.o
__heap_end                                        /usr/lib/gcc/avr/8.3.0/../../../../avr/lib/avr5/crtatmega32u4.o
__init                                            /usr/lib/gcc/avr/8.3.0/../../../../avr/lib/avr5/crtatmega32u4.o
__mulsi3                                          /usr/lib/gcc/avr/8.3.0/avr5/libgcc.a(_mulsi3.o)
                                                  .build/obj_dz60_paul2/quantum/quantum.o
__muluhisi3                                       /usr/lib/gcc/avr/8.3.0/avr5/libgcc.a(_muluhisi3.o)
                                                  /usr/lib/gcc/avr/8.3.0/avr5/libgcc.a(_mulsi3.o)
__stack                                           /usr/lib/gcc/avr/8.3.0/../../../../avr/lib/avr5/crtatmega32u4.o
__tablejump2__                                    /usr/lib/gcc/avr/8.3.0/avr5/libgcc.a(_tablejump2.o)
                                                  .build/obj_dz60_paul2/lib/lufa/LUFA/Drivers/USB/Core/DeviceStandardReq.o
                                                  .build/obj_dz60_paul2/common/action.o
                                                  .build/obj_dz60_paul2/quantum/quantum.o
__udivmodhi4                                      /usr/lib/gcc/avr/8.3.0/avr5/libgcc.a(_udivmodhi4.o)
                                                  /usr/lib/gcc/avr/8.3.0/avr5/libgcc.a(_divmodhi4.o)
                                                  .build/obj_dz60_paul2/quantum/color.o
                                                  .build/obj_dz60_paul2/quantum/quantum.o
__udivmodsi4                                      /usr/lib/gcc/avr/8.3.0/avr5/libgcc.a(_udivmodsi4.o)
                                                  .build/obj_dz60_paul2/quantum/quantum.o
__umulhisi3                                       /usr/lib/gcc/avr/8.3.0/avr5/libgcc.a(_umulhisi3.o)
                                                  /usr/lib/gcc/avr/8.3.0/avr5/libgcc.a(_muluhisi3.o)
                                                  .build/obj_dz60_paul2/quantum/quantum.o
__vector_1                                        /usr/lib/gcc/avr/8.3.0/../../../../avr/lib/avr5/crtatmega32u4.o
__vector_10                                       .build/obj_dz60_paul2/lib/lufa/LUFA/Drivers/USB/Core/AVR8/USBInterrupt_AVR8.o
                                                  /usr/lib/gcc/avr/8.3.0/../../../../avr/lib/avr5/crtatmega32u4.o
__vector_11                                       .build/obj_dz60_paul2/lib/lufa/LUFA/Drivers/USB/Core/AVR8/USBInterrupt_AVR8.o
                                                  /usr/lib/gcc/avr/8.3.0/../../../../avr/lib/avr5/crtatmega32u4.o
__vector_12                                       .build/obj_dz60_paul2/common/avr/suspend.o
                                                  /usr/lib/gcc/avr/8.3.0/../../../../avr/lib/avr5/crtatmega32u4.o
__vector_13                                       /usr/lib/gcc/avr/8.3.0/../../../../avr/lib/avr5/crtatmega32u4.o
__vector_14                                       /usr/lib/gcc/avr/8.3.0/../../../../avr/lib/avr5/crtatmega32u4.o
__vector_15                                       /usr/lib/gcc/avr/8.3.0/../../../../avr/lib/avr5/crtatmega32u4.o
__vector_16                                       /usr/lib/gcc/avr/8.3.0/../../../../avr/lib/avr5/crtatmega32u4.o
__vector_17                                       /usr/lib/gcc/avr/8.3.0/../../../../avr/lib/avr5/crtatmega32u4.o
__vector_18                                       /usr/lib/gcc/avr/8.3.0/../../../../avr/lib/avr5/crtatmega32u4.o
__vector_19                                       /usr/lib/gcc/avr/8.3.0/../../../../avr/lib/avr5/crtatmega32u4.o
__vector_2                                        /usr/lib/gcc/avr/8.3.0/../../../../avr/lib/avr5/crtatmega32u4.o
__vector_20                                       /usr/lib/gcc/avr/8.3.0/../../../../avr/lib/avr5/crtatmega32u4.o
__vector_21                                       .build/obj_dz60_paul2/common/avr/timer.o
                                                  /usr/lib/gcc/avr/8.3.0/../../../../avr/lib/avr5/crtatmega32u4.o
__vector_22                                       /usr/lib/gcc/avr/8.3.0/../../../../avr/lib/avr5/crtatmega32u4.o
__vector_23                                       /usr/lib/gcc/avr/8.3.0/../../../../avr/lib/avr5/crtatmega32u4.o
__vector_24                                       /usr/lib/gcc/avr/8.3.0/../../../../avr/lib/avr5/crtatmega32u4.o
__vector_25                                       /usr/lib/gcc/avr/8.3.0/../../../../avr/lib/avr5/crtatmega32u4.o
__vector_26                                       /usr/lib/gcc/avr/8.3.0/../../../../avr/lib/avr5/crtatmega32u4.o
__vector_27                                       /usr/lib/gcc/avr/8.3.0/../../../../avr/lib/avr5/crtatmega32u4.o
__vector_28                                       /usr/lib/gcc/avr/8.3.0/../../../../avr/lib/avr5/crtatmega32u4.o
__vector_29                                       /usr/lib/gcc/avr/8.3.0/../../../../avr/lib/avr5/crtatmega32u4.o
__vector_3                                        /usr/lib/gcc/avr/8.3.0/../../../../avr/lib/avr5/crtatmega32u4.o
__vector_30                                       /usr/lib/gcc/avr/8.3.0/../../../../avr/lib/avr5/crtatmega32u4.o
__vector_31                                       /usr/lib/gcc/avr/8.3.0/../../../../avr/lib/avr5/crtatmega32u4.o
__vector_32                                       /usr/lib/gcc/avr/8.3.0/../../../../avr/lib/avr5/crtatmega32u4.o
__vector_33                                       /usr/lib/gcc/avr/8.3.0/../../../../avr/lib/avr5/crtatmega32u4.o
__vector_34                                       /usr/lib/gcc/avr/8.3.0/../../../../avr/lib/avr5/crtatmega32u4.o
__vector_35                                       /usr/lib/gcc/avr/8.3.0/../../../../avr/lib/avr5/crtatmega32u4.o
__vector_36                                       /usr/lib/gcc/avr/8.3.0/../../../../avr/lib/avr5/crtatmega32u4.o
__vector_37                                       /usr/lib/gcc/avr/8.3.0/../../../../avr/lib/avr5/crtatmega32u4.o
__vector_38                                       /usr/lib/gcc/avr/8.3.0/../../../../avr/lib/avr5/crtatmega32u4.o
__vector_39                                       /usr/lib/gcc/avr/8.3.0/../../../../avr/lib/avr5/crtatmega32u4.o
__vector_4                                        /usr/lib/gcc/avr/8.3.0/../../../../avr/lib/avr5/crtatmega32u4.o
__vector_40                                       /usr/lib/gcc/avr/8.3.0/../../../../avr/lib/avr5/crtatmega32u4.o
__vector_41                                       /usr/lib/gcc/avr/8.3.0/../../../../avr/lib/avr5/crtatmega32u4.o
__vector_42                                       /usr/lib/gcc/avr/8.3.0/../../../../avr/lib/avr5/crtatmega32u4.o
__vector_5                                        /usr/lib/gcc/avr/8.3.0/../../../../avr/lib/avr5/crtatmega32u4.o
__vector_6                                        /usr/lib/gcc/avr/8.3.0/../../../../avr/lib/avr5/crtatmega32u4.o
__vector_7                                        /usr/lib/gcc/avr/8.3.0/../../../../avr/lib/avr5/crtatmega32u4.o
__vector_8                                        /usr/lib/gcc/avr/8.3.0/../../../../avr/lib/avr5/crtatmega32u4.o
__vector_9                                        /usr/lib/gcc/avr/8.3.0/../../../../avr/lib/avr5/crtatmega32u4.o
__vector_default                                  /usr/lib/gcc/avr/8.3.0/../../../../avr/lib/avr5/crtatmega32u4.o
__vectors                                         /usr/lib/gcc/avr/8.3.0/../../../../avr/lib/avr5/crtatmega32u4.o
__xprintf                                         .build/obj_dz60_paul2/common/avr/xprintf.o
_div                                              /usr/lib/gcc/avr/8.3.0/avr5/libgcc.a(_divmodhi4.o)
_exit                                             /usr/lib/gcc/avr/8.3.0/avr5/libgcc.a(_exit.o)
action_exec                                       .build/obj_dz60_paul2/common/action.o
                                                  .build/obj_dz60_paul2/common/keyboard.o
action_for_key                                    .build/obj_dz60_paul2/quantum/keymap_common.o
                                                  .build/obj_dz60_paul2/common/action_layer.o
action_function                                   .build/obj_dz60_paul2/quantum/keymap_common.o
                                                  .build/obj_dz60_paul2/common/action.o
action_get_macro                                  .build/obj_dz60_paul2/quantum/keymap_common.o
                                                  .build/obj_dz60_paul2/common/action.o
action_macro_play                                 .build/obj_dz60_paul2/common/action_macro.o
                                                  .build/obj_dz60_paul2/common/action.o
action_tapping_process                            .build/obj_dz60_paul2/common/action_tapping.o
                                                  .build/obj_dz60_paul2/common/action.o
add_key                                           .build/obj_dz60_paul2/common/action_util.o
                                                  .build/obj_dz60_paul2/common/action.o
                                                  .build/obj_dz60_paul2/quantum/quantum.o
add_key_bit                                       .build/obj_dz60_paul2/common/report.o
add_key_byte                                      .build/obj_dz60_paul2/common/report.o
add_key_to_report                                 .build/obj_dz60_paul2/common/report.o
                                                  .build/obj_dz60_paul2/common/action_util.o
add_macro_mods                                    .build/obj_dz60_paul2/common/action_util.o
                                                  .build/obj_dz60_paul2/common/action_macro.o
add_mods                                          .build/obj_dz60_paul2/common/action_util.o
                                                  .build/obj_dz60_paul2/common/action.o
add_weak_mods                                     .build/obj_dz60_paul2/common/action_util.o
                                                  .build/obj_dz60_paul2/common/action.o
                                                  .build/obj_dz60_paul2/quantum/quantum.o
animation_status                                  .build/obj_dz60_paul2/quantum/rgblight.o
api_send_unicode                                  .build/obj_dz60_paul2/quantum/quantum.o
ascii_to_altgr_lut                                .build/obj_dz60_paul2/quantum/quantum.o
ascii_to_keycode_lut                              .build/obj_dz60_paul2/quantum/quantum.o
ascii_to_shift_lut                                .build/obj_dz60_paul2/quantum/quantum.o
auto_detect_output                                .build/obj_dz60_paul2/outputselect.o
backlight_config                                  .build/obj_dz60_paul2/common/backlight.o
backlight_decrease                                .build/obj_dz60_paul2/common/backlight.o
                                                  .build/obj_dz60_paul2/common/action.o
backlight_disable                                 .build/obj_dz60_paul2/common/backlight.o
backlight_enable                                  .build/obj_dz60_paul2/common/backlight.o
backlight_increase                                .build/obj_dz60_paul2/common/backlight.o
                                                  .build/obj_dz60_paul2/common/action.o
backlight_init                                    .build/obj_dz60_paul2/common/backlight.o
                                                  .build/obj_dz60_paul2/common/avr/suspend.o
                                                  .build/obj_dz60_paul2/common/keyboard.o
                                                  .build/obj_dz60_paul2/quantum/quantum.o
backlight_init_ports                              .build/obj_dz60_paul2/quantum/quantum.o
backlight_level                                   .build/obj_dz60_paul2/common/backlight.o
                                                  .build/obj_dz60_paul2/common/action.o
backlight_off                                     .build/obj_dz60_paul2/quantum/quantum.o
backlight_on                                      .build/obj_dz60_paul2/quantum/quantum.o
backlight_set                                     .build/obj_dz60_paul2/quantum/quantum.o
                                                  .build/obj_dz60_paul2/common/backlight.o
                                                  .build/obj_dz60_paul2/common/avr/suspend.o
backlight_step                                    .build/obj_dz60_paul2/common/backlight.o
                                                  .build/obj_dz60_paul2/common/action.o
backlight_task                                    .build/obj_dz60_paul2/quantum/quantum.o
backlight_toggle                                  .build/obj_dz60_paul2/common/backlight.o
                                                  .build/obj_dz60_paul2/common/action.o
biton                                             .build/obj_dz60_paul2/common/util.o
                                                  .build/obj_dz60_paul2/common/report.o
biton16                                           .build/obj_dz60_paul2/common/util.o
biton32                                           .build/obj_dz60_paul2/common/util.o
bitpop                                            .build/obj_dz60_paul2/common/util.o
                                                  .build/obj_dz60_paul2/common/action_util.o
bitpop16                                          .build/obj_dz60_paul2/common/util.o
                                                  .build/obj_dz60_paul2/quantum/matrix.o
bitpop32                                          .build/obj_dz60_paul2/common/util.o
bitrev                                            .build/obj_dz60_paul2/common/util.o
bitrev16                                          .build/obj_dz60_paul2/common/util.o
bitrev32                                          .build/obj_dz60_paul2/common/util.o
bootloader_jump                                   .build/obj_dz60_paul2/common/avr/bootloader.o
                                                  .build/obj_dz60_paul2/common/bootmagic.o
                                                  .build/obj_dz60_paul2/quantum/quantum.o
bootloader_jump_after_watchdog_reset              .build/obj_dz60_paul2/common/avr/bootloader.o
bootmagic                                         .build/obj_dz60_paul2/common/bootmagic.o
                                                  .build/obj_dz60_paul2/common/keyboard.o
bootmagic_lite                                    .build/obj_dz60_paul2/quantum/quantum.o
bootmagic_scan_keycode                            .build/obj_dz60_paul2/common/bootmagic.o
clear_keyboard                                    .build/obj_dz60_paul2/common/action.o
                                                  .build/obj_dz60_paul2/lufa.o
                                                  .build/obj_dz60_paul2/common/avr/suspend.o
                                                  .build/obj_dz60_paul2/common/action_tapping.o
                                                  .build/obj_dz60_paul2/quantum/quantum.o
clear_keyboard_but_mods                           .build/obj_dz60_paul2/common/action.o
clear_keyboard_but_mods_and_keys                  .build/obj_dz60_paul2/common/action.o
                                                  .build/obj_dz60_paul2/common/action_layer.o
clear_keys                                        .build/obj_dz60_paul2/common/action_util.o
                                                  .build/obj_dz60_paul2/common/action.o
clear_keys_from_report                            .build/obj_dz60_paul2/common/report.o
                                                  .build/obj_dz60_paul2/common/action_util.o
clear_macro_mods                                  .build/obj_dz60_paul2/common/action_util.o
                                                  .build/obj_dz60_paul2/common/action.o
clear_mods                                        .build/obj_dz60_paul2/common/action_util.o
                                                  .build/obj_dz60_paul2/common/action.o
clear_oneshot_layer_state                         .build/obj_dz60_paul2/common/action_util.o
                                                  .build/obj_dz60_paul2/common/action.o
clear_oneshot_locked_mods                         .build/obj_dz60_paul2/common/action_util.o
clear_oneshot_mods                                .build/obj_dz60_paul2/common/action_util.o
                                                  .build/obj_dz60_paul2/common/action.o
clear_weak_mods                                   .build/obj_dz60_paul2/common/action_util.o
                                                  .build/obj_dz60_paul2/common/action.o
debounce                                          .build/obj_dz60_paul2/quantum/debounce/sym_g.o
                                                  .build/obj_dz60_paul2/quantum/matrix.o
debounce_active                                   .build/obj_dz60_paul2/quantum/debounce/sym_g.o
                                                  .build/obj_dz60_paul2/quantum/matrix.o
debounce_init                                     .build/obj_dz60_paul2/quantum/debounce/sym_g.o
                                                  .build/obj_dz60_paul2/quantum/matrix.o
debug_action                                      .build/obj_dz60_paul2/common/action.o
debug_config                                      .build/obj_dz60_paul2/common/debug.o
                                                  .build/obj_dz60_paul2/common/bootmagic.o
                                                  .build/obj_dz60_paul2/common/keyboard.o
                                                  .build/obj_dz60_paul2/quantum/rgblight.o
                                                  .build/obj_dz60_paul2/quantum/quantum.o
debug_event                                       .build/obj_dz60_paul2/common/action.o
                                                  .build/obj_dz60_paul2/common/action_tapping.o
debug_record                                      .build/obj_dz60_paul2/common/action.o
                                                  .build/obj_dz60_paul2/common/action_tapping.o
default_layer_and                                 .build/obj_dz60_paul2/common/action_layer.o
                                                  .build/obj_dz60_paul2/common/action.o
default_layer_debug                               .build/obj_dz60_paul2/common/action_layer.o
                                                  .build/obj_dz60_paul2/common/action.o
default_layer_or                                  .build/obj_dz60_paul2/common/action_layer.o
                                                  .build/obj_dz60_paul2/common/action.o
default_layer_set                                 .build/obj_dz60_paul2/common/action_layer.o
                                                  .build/obj_dz60_paul2/common/bootmagic.o
                                                  .build/obj_dz60_paul2/quantum/quantum.o
default_layer_state                               .build/obj_dz60_paul2/common/action_layer.o
                                                  .build/obj_dz60_paul2/common/eeconfig.o
default_layer_state_set_kb                        .build/obj_dz60_paul2/common/action_layer.o
default_layer_state_set_user                      .build/obj_dz60_paul2/common/action_layer.o
default_layer_xor                                 .build/obj_dz60_paul2/common/action_layer.o
                                                  .build/obj_dz60_paul2/common/action.o
del_key                                           .build/obj_dz60_paul2/common/action_util.o
                                                  .build/obj_dz60_paul2/common/action.o
                                                  .build/obj_dz60_paul2/quantum/quantum.o
del_key_bit                                       .build/obj_dz60_paul2/common/report.o
del_key_byte                                      .build/obj_dz60_paul2/common/report.o
del_key_from_report                               .build/obj_dz60_paul2/common/report.o
                                                  .build/obj_dz60_paul2/common/action_util.o
del_macro_mods                                    .build/obj_dz60_paul2/common/action_util.o
                                                  .build/obj_dz60_paul2/common/action_macro.o
del_mods                                          .build/obj_dz60_paul2/common/action_util.o
                                                  .build/obj_dz60_paul2/common/action.o
del_weak_mods                                     .build/obj_dz60_paul2/common/action_util.o
                                                  .build/obj_dz60_paul2/common/action.o
                                                  .build/obj_dz60_paul2/quantum/quantum.o
desired_output                                    .build/obj_dz60_paul2/outputselect.o
disable_action_cache                              .build/obj_dz60_paul2/common/action.o
                                                  .build/obj_dz60_paul2/common/action_layer.o
                                                  .build/obj_dz60_paul2/quantum/quantum.o
disable_jtag                                      .build/obj_dz60_paul2/common/keyboard.o
eeconfig_debug_rgblight                           .build/obj_dz60_paul2/quantum/rgblight.o
eeconfig_disable                                  .build/obj_dz60_paul2/common/eeconfig.o
                                                  .build/obj_dz60_paul2/quantum/quantum.o
eeconfig_enable                                   .build/obj_dz60_paul2/common/eeconfig.o
eeconfig_init                                     .build/obj_dz60_paul2/common/eeconfig.o
                                                  .build/obj_dz60_paul2/common/backlight.o
                                                  .build/obj_dz60_paul2/common/bootmagic.o
                                                  .build/obj_dz60_paul2/quantum/rgblight.o
                                                  .build/obj_dz60_paul2/quantum/quantum.o
eeconfig_init_kb                                  .build/obj_dz60_paul2/common/eeconfig.o
eeconfig_init_quantum                             .build/obj_dz60_paul2/common/eeconfig.o
eeconfig_init_user                                .build/obj_dz60_paul2/common/eeconfig.o
eeconfig_is_disabled                              .build/obj_dz60_paul2/common/eeconfig.o
eeconfig_is_enabled                               .build/obj_dz60_paul2/common/eeconfig.o
                                                  .build/obj_dz60_paul2/common/backlight.o
                                                  .build/obj_dz60_paul2/common/bootmagic.o
                                                  .build/obj_dz60_paul2/quantum/rgblight.o
                                                  .build/obj_dz60_paul2/quantum/quantum.o
eeconfig_read_audio                               .build/obj_dz60_paul2/common/eeconfig.o
eeconfig_read_backlight                           .build/obj_dz60_paul2/common/eeconfig.o
                                                  .build/obj_dz60_paul2/common/backlight.o
eeconfig_read_debug                               .build/obj_dz60_paul2/common/eeconfig.o
                                                  .build/obj_dz60_paul2/common/bootmagic.o
eeconfig_read_default_layer                       .build/obj_dz60_paul2/common/eeconfig.o
                                                  .build/obj_dz60_paul2/common/bootmagic.o
eeconfig_read_haptic                              .build/obj_dz60_paul2/common/eeconfig.o
eeconfig_read_kb                                  .build/obj_dz60_paul2/common/eeconfig.o
eeconfig_read_keymap                              .build/obj_dz60_paul2/common/eeconfig.o
                                                  .build/obj_dz60_paul2/common/bootmagic.o
                                                  .build/obj_dz60_paul2/quantum/quantum.o
eeconfig_read_rgblight                            .build/obj_dz60_paul2/quantum/rgblight.o
eeconfig_read_user                                .build/obj_dz60_paul2/common/eeconfig.o
eeconfig_update_audio                             .build/obj_dz60_paul2/common/eeconfig.o
eeconfig_update_backlight                         .build/obj_dz60_paul2/common/eeconfig.o
                                                  .build/obj_dz60_paul2/common/backlight.o
eeconfig_update_debug                             .build/obj_dz60_paul2/common/eeconfig.o
                                                  .build/obj_dz60_paul2/common/bootmagic.o
eeconfig_update_default_layer                     .build/obj_dz60_paul2/common/eeconfig.o
                                                  .build/obj_dz60_paul2/common/bootmagic.o
                                                  .build/obj_dz60_paul2/quantum/quantum.o
eeconfig_update_haptic                            .build/obj_dz60_paul2/common/eeconfig.o
eeconfig_update_kb                                .build/obj_dz60_paul2/common/eeconfig.o
eeconfig_update_keymap                            .build/obj_dz60_paul2/common/eeconfig.o
                                                  .build/obj_dz60_paul2/common/bootmagic.o
                                                  .build/obj_dz60_paul2/quantum/quantum.o
eeconfig_update_rgblight                          .build/obj_dz60_paul2/quantum/rgblight.o
eeconfig_update_rgblight_default                  .build/obj_dz60_paul2/quantum/rgblight.o
eeconfig_update_user                              .build/obj_dz60_paul2/common/eeconfig.o
eeprom_read_block                                 /usr/lib/gcc/avr/8.3.0/../../../../avr/lib/avr5/libatmega32u4.a(eerd_block.o)
eeprom_read_blraw                                 /usr/lib/gcc/avr/8.3.0/../../../../avr/lib/avr5/libatmega32u4.a(eerd_block.o)
                                                  /usr/lib/gcc/avr/8.3.0/../../../../avr/lib/avr5/libatmega32u4.a(eerd_word.o)
                                                  /usr/lib/gcc/avr/8.3.0/../../../../avr/lib/avr5/libatmega32u4.a(eerd_dword.o)
eeprom_read_byte                                  /usr/lib/gcc/avr/8.3.0/../../../../avr/lib/avr5/libatmega32u4.a(eerd_byte.o)
                                                  .build/obj_dz60_paul2/lib/lufa/LUFA/Drivers/USB/Core/AVR8/EndpointStream_AVR8.o
                                                  .build/obj_dz60_paul2/common/eeconfig.o
eeprom_read_dword                                 /usr/lib/gcc/avr/8.3.0/../../../../avr/lib/avr5/libatmega32u4.a(eerd_dword.o)
                                                  .build/obj_dz60_paul2/common/eeconfig.o
                                                  .build/obj_dz60_paul2/quantum/rgblight.o
eeprom_read_float                                 /usr/lib/gcc/avr/8.3.0/../../../../avr/lib/avr5/libatmega32u4.a(eerd_dword.o)
eeprom_read_word                                  /usr/lib/gcc/avr/8.3.0/../../../../avr/lib/avr5/libatmega32u4.a(eerd_word.o)
                                                  .build/obj_dz60_paul2/common/eeconfig.o
eeprom_update_byte                                /usr/lib/gcc/avr/8.3.0/../../../../avr/lib/avr5/libatmega32u4.a(eeupd_byte.o)
                                                  /usr/lib/gcc/avr/8.3.0/../../../../avr/lib/avr5/libatmega32u4.a(eeupd_word.o)
                                                  /usr/lib/gcc/avr/8.3.0/../../../../avr/lib/avr5/libatmega32u4.a(eeupd_dword.o)
                                                  .build/obj_dz60_paul2/lib/lufa/LUFA/Drivers/USB/Core/AVR8/EndpointStream_AVR8.o
                                                  .build/obj_dz60_paul2/common/eeconfig.o
eeprom_update_dword                               /usr/lib/gcc/avr/8.3.0/../../../../avr/lib/avr5/libatmega32u4.a(eeupd_dword.o)
                                                  .build/obj_dz60_paul2/common/eeconfig.o
                                                  .build/obj_dz60_paul2/quantum/rgblight.o
eeprom_update_float                               /usr/lib/gcc/avr/8.3.0/../../../../avr/lib/avr5/libatmega32u4.a(eeupd_dword.o)
eeprom_update_r18                                 /usr/lib/gcc/avr/8.3.0/../../../../avr/lib/avr5/libatmega32u4.a(eeupd_byte.o)
                                                  /usr/lib/gcc/avr/8.3.0/../../../../avr/lib/avr5/libatmega32u4.a(eeupd_word.o)
                                                  /usr/lib/gcc/avr/8.3.0/../../../../avr/lib/avr5/libatmega32u4.a(eeupd_dword.o)
eeprom_update_word                                /usr/lib/gcc/avr/8.3.0/../../../../avr/lib/avr5/libatmega32u4.a(eeupd_word.o)
                                                  .build/obj_dz60_paul2/common/eeconfig.o
exit                                              /usr/lib/gcc/avr/8.3.0/avr5/libgcc.a(_exit.o)
                                                  /usr/lib/gcc/avr/8.3.0/../../../../avr/lib/avr5/crtatmega32u4.o
fn_actions                                        .build/obj_dz60_paul2/quantum/keymap_common.o
get_backlight_level                               .build/obj_dz60_paul2/common/backlight.o
get_event_keycode                                 .build/obj_dz60_paul2/quantum/quantum.o
get_first_key                                     .build/obj_dz60_paul2/common/report.o
get_macro_mods                                    .build/obj_dz60_paul2/common/action_util.o
get_mods                                          .build/obj_dz60_paul2/common/action_util.o
                                                  .build/obj_dz60_paul2/quantum/quantum.o
get_oneshot_layer                                 .build/obj_dz60_paul2/common/action_util.o
                                                  .build/obj_dz60_paul2/common/action.o
get_oneshot_layer_state                           .build/obj_dz60_paul2/common/action_util.o
                                                  .build/obj_dz60_paul2/common/action.o
get_oneshot_locked_mods                           .build/obj_dz60_paul2/common/action_util.o
get_oneshot_mods                                  .build/obj_dz60_paul2/common/action_util.o
                                                  .build/obj_dz60_paul2/common/action.o
get_record_keycode                                .build/obj_dz60_paul2/quantum/quantum.o
get_tapping_term                                  .build/obj_dz60_paul2/common/action_tapping.o
get_usb_descriptor                                .build/obj_dz60_paul2/usb_descriptor.o
                                                  .build/obj_dz60_paul2/lufa.o
get_weak_mods                                     .build/obj_dz60_paul2/common/action_util.o
has_anykey                                        .build/obj_dz60_paul2/common/report.o
                                                  .build/obj_dz60_paul2/common/action_util.o
has_anymod                                        .build/obj_dz60_paul2/common/action_util.o
has_oneshot_mods_timed_out                        .build/obj_dz60_paul2/common/action_util.o
hex_to_keycode                                    .build/obj_dz60_paul2/quantum/quantum.o
host_consumer_send                                .build/obj_dz60_paul2/common/host.o
                                                  .build/obj_dz60_paul2/common/action.o
host_get_driver                                   .build/obj_dz60_paul2/common/host.o
host_keyboard_leds                                .build/obj_dz60_paul2/common/host.o
                                                  .build/obj_dz60_paul2/common/avr/suspend.o
                                                  .build/obj_dz60_paul2/common/action.o
                                                  .build/obj_dz60_paul2/common/keyboard.o
host_keyboard_send                                .build/obj_dz60_paul2/common/host.o
                                                  .build/obj_dz60_paul2/common/action_util.o
host_last_consumer_report                         .build/obj_dz60_paul2/common/host.o
host_last_system_report                           .build/obj_dz60_paul2/common/host.o
host_mouse_send                                   .build/obj_dz60_paul2/common/host.o
                                                  .build/obj_dz60_paul2/common/mousekey.o
host_set_driver                                   .build/obj_dz60_paul2/common/host.o
                                                  .build/obj_dz60_paul2/lufa.o
host_system_send                                  .build/obj_dz60_paul2/common/host.o
                                                  .build/obj_dz60_paul2/common/action.o
hsv_to_rgb                                        .build/obj_dz60_paul2/quantum/color.o
                                                  .build/obj_dz60_paul2/quantum/rgblight.o
is_backlight_enabled                              .build/obj_dz60_paul2/common/backlight.o
is_keyboard_master                                .build/obj_dz60_paul2/common/keyboard.o
is_oneshot_layer_active                           .build/obj_dz60_paul2/common/action_util.o
                                                  .build/obj_dz60_paul2/common/action.o
is_rgblight_initialized                           .build/obj_dz60_paul2/quantum/rgblight.o
is_tap_action                                     .build/obj_dz60_paul2/common/action.o
is_tap_key                                        .build/obj_dz60_paul2/common/action.o
                                                  .build/obj_dz60_paul2/common/action_tapping.o
keyboard_idle                                     .build/obj_dz60_paul2/lufa.o
keyboard_init                                     .build/obj_dz60_paul2/common/keyboard.o
                                                  .build/obj_dz60_paul2/lufa.o
keyboard_post_init_kb                             .build/obj_dz60_paul2/common/keyboard.o
keyboard_post_init_user                           .build/obj_dz60_paul2/common/keyboard.o
keyboard_pre_init_kb                              .build/obj_dz60_paul2/common/keyboard.o
keyboard_pre_init_user                            .build/obj_dz60_paul2/common/keyboard.o
keyboard_protocol                                 .build/obj_dz60_paul2/lufa.o
                                                  .build/obj_dz60_paul2/common/report.o
                                                  .build/obj_dz60_paul2/common/host.o
keyboard_report                                   .build/obj_dz60_paul2/common/action_util.o
keyboard_set_leds                                 .build/obj_dz60_paul2/common/keyboard.o
keyboard_setup                                    .build/obj_dz60_paul2/common/keyboard.o
                                                  .build/obj_dz60_paul2/lufa.o
keyboard_task                                     .build/obj_dz60_paul2/common/keyboard.o
                                                  .build/obj_dz60_paul2/lufa.o
keycode_config                                    .build/obj_dz60_paul2/quantum/keycode_config.o
                                                  .build/obj_dz60_paul2/quantum/keymap_common.o
keymap_config                                     .build/obj_dz60_paul2/common/bootmagic.o
                                                  .build/obj_dz60_paul2/lufa.o
                                                  .build/obj_dz60_paul2/common/report.o
                                                  .build/obj_dz60_paul2/common/host.o
                                                  .build/obj_dz60_paul2/quantum/keycode_config.o
                                                  .build/obj_dz60_paul2/quantum/quantum.o
keymap_function_id_to_action                      .build/obj_dz60_paul2/quantum/keymap_common.o
keymap_key_to_keycode                             .build/obj_dz60_paul2/quantum/keymap_common.o
                                                  .build/obj_dz60_paul2/common/bootmagic.o
                                                  .build/obj_dz60_paul2/quantum/quantum.o
keymaps                                           .build/obj_dz60_paul2/keyboards/dz60/keymaps/paul2/keymap.o
                                                  .build/obj_dz60_paul2/quantum/keymap_common.o
layer_and                                         .build/obj_dz60_paul2/common/action_layer.o
                                                  .build/obj_dz60_paul2/common/action.o
layer_clear                                       .build/obj_dz60_paul2/common/action_layer.o
                                                  .build/obj_dz60_paul2/common/action.o
layer_debug                                       .build/obj_dz60_paul2/common/action_layer.o
                                                  .build/obj_dz60_paul2/common/action.o
layer_invert                                      .build/obj_dz60_paul2/common/action_layer.o
                                                  .build/obj_dz60_paul2/common/action.o
layer_move                                        .build/obj_dz60_paul2/common/action_layer.o
                                                  .build/obj_dz60_paul2/common/action.o
layer_off                                         .build/obj_dz60_paul2/common/action_layer.o
                                                  .build/obj_dz60_paul2/common/action_util.o
                                                  .build/obj_dz60_paul2/common/action.o
layer_on                                          .build/obj_dz60_paul2/common/action_layer.o
                                                  .build/obj_dz60_paul2/common/action_util.o
                                                  .build/obj_dz60_paul2/common/action.o
layer_or                                          .build/obj_dz60_paul2/common/action_layer.o
                                                  .build/obj_dz60_paul2/common/action.o
layer_state                                       .build/obj_dz60_paul2/common/action_layer.o
                                                  .build/obj_dz60_paul2/quantum/quantum.o
layer_state_cmp                                   .build/obj_dz60_paul2/common/action_layer.o
layer_state_is                                    .build/obj_dz60_paul2/common/action_layer.o
layer_state_set                                   .build/obj_dz60_paul2/common/action_layer.o
                                                  .build/obj_dz60_paul2/quantum/quantum.o
layer_state_set_kb                                .build/obj_dz60_paul2/common/action_layer.o
layer_state_set_user                              .build/obj_dz60_paul2/common/action_layer.o
layer_switch_get_action                           .build/obj_dz60_paul2/common/action_layer.o
                                                  .build/obj_dz60_paul2/common/action_tapping.o
                                                  .build/obj_dz60_paul2/common/action.o
layer_switch_get_layer                            .build/obj_dz60_paul2/common/action_layer.o
                                                  .build/obj_dz60_paul2/quantum/quantum.o
layer_xor                                         .build/obj_dz60_paul2/common/action_layer.o
                                                  .build/obj_dz60_paul2/common/action.o
led                                               .build/obj_dz60_paul2/quantum/rgblight.o
led_init_ports                                    .build/obj_dz60_paul2/keyboards/dz60/dz60.o
led_set                                           .build/obj_dz60_paul2/quantum/quantum.o
                                                  .build/obj_dz60_paul2/common/avr/suspend.o
                                                  .build/obj_dz60_paul2/common/action.o
                                                  .build/obj_dz60_paul2/common/keyboard.o
led_set_kb                                        .build/obj_dz60_paul2/keyboards/dz60/dz60.o
led_set_user                                      .build/obj_dz60_paul2/quantum/quantum.o
                                                  .build/obj_dz60_paul2/keyboards/dz60/dz60.o
lufa_driver                                       .build/obj_dz60_paul2/lufa.o
main                                              .build/obj_dz60_paul2/lufa.o
                                                  /usr/lib/gcc/avr/8.3.0/../../../../avr/lib/avr5/crtatmega32u4.o
matrix_cols                                       .build/obj_dz60_paul2/quantum/matrix.o
matrix_get_row                                    .build/obj_dz60_paul2/quantum/matrix.o
                                                  .build/obj_dz60_paul2/common/bootmagic.o
                                                  .build/obj_dz60_paul2/common/avr/suspend.o
                                                  .build/obj_dz60_paul2/common/keyboard.o
                                                  .build/obj_dz60_paul2/quantum/quantum.o
matrix_init                                       .build/obj_dz60_paul2/quantum/matrix.o
                                                  .build/obj_dz60_paul2/common/keyboard.o
matrix_init_kb                                    .build/obj_dz60_paul2/keyboards/dz60/dz60.o
                                                  .build/obj_dz60_paul2/quantum/quantum.o
matrix_init_quantum                               .build/obj_dz60_paul2/quantum/quantum.o
matrix_init_user                                  .build/obj_dz60_paul2/quantum/matrix.o
                                                  .build/obj_dz60_paul2/keyboards/dz60/dz60.o
matrix_is_modified                                .build/obj_dz60_paul2/quantum/matrix.o
matrix_is_on                                      .build/obj_dz60_paul2/quantum/matrix.o
matrix_key_count                                  .build/obj_dz60_paul2/quantum/matrix.o
matrix_power_down                                 .build/obj_dz60_paul2/common/avr/suspend.o
matrix_power_up                                   .build/obj_dz60_paul2/common/avr/suspend.o
matrix_print                                      .build/obj_dz60_paul2/quantum/matrix.o
                                                  .build/obj_dz60_paul2/common/keyboard.o
matrix_rows                                       .build/obj_dz60_paul2/quantum/matrix.o
matrix_scan                                       .build/obj_dz60_paul2/quantum/matrix.o
                                                  .build/obj_dz60_paul2/common/bootmagic.o
                                                  .build/obj_dz60_paul2/common/avr/suspend.o
                                                  .build/obj_dz60_paul2/common/keyboard.o
                                                  .build/obj_dz60_paul2/quantum/quantum.o
matrix_scan_kb                                    .build/obj_dz60_paul2/keyboards/dz60/dz60.o
                                                  .build/obj_dz60_paul2/quantum/quantum.o
matrix_scan_quantum                               .build/obj_dz60_paul2/quantum/quantum.o
matrix_scan_user                                  .build/obj_dz60_paul2/quantum/matrix.o
                                                  .build/obj_dz60_paul2/keyboards/dz60/dz60.o
matrix_setup                                      .build/obj_dz60_paul2/common/keyboard.o
memchr                                            /usr/lib/gcc/avr/8.3.0/../../../../avr/lib/avr5/libc.a(memchr.o)
                                                  .build/obj_dz60_paul2/quantum/rgblight.o
memcpy                                            /usr/lib/gcc/avr/8.3.0/../../../../avr/lib/avr5/libc.a(memcpy.o)
                                                  /usr/lib/gcc/avr/8.3.0/../../../../avr/lib/avr5/libc.a(memmove.o)
memmove                                           /usr/lib/gcc/avr/8.3.0/../../../../avr/lib/avr5/libc.a(memmove.o)
                                                  .build/obj_dz60_paul2/lib/lufa/LUFA/Drivers/USB/Class/Common/HIDParser.o
mk_delay                                          .build/obj_dz60_paul2/common/mousekey.o
mk_interval                                       .build/obj_dz60_paul2/common/mousekey.o
mk_max_speed                                      .build/obj_dz60_paul2/common/mousekey.o
mk_time_to_max                                    .build/obj_dz60_paul2/common/mousekey.o
mk_wheel_max_speed                                .build/obj_dz60_paul2/common/mousekey.o
mk_wheel_time_to_max                              .build/obj_dz60_paul2/common/mousekey.o
mod_config                                        .build/obj_dz60_paul2/quantum/keycode_config.o
                                                  .build/obj_dz60_paul2/quantum/keymap_common.o
mousekey_clear                                    .build/obj_dz60_paul2/common/mousekey.o
                                                  .build/obj_dz60_paul2/common/action.o
mousekey_off                                      .build/obj_dz60_paul2/common/mousekey.o
                                                  .build/obj_dz60_paul2/common/action.o
mousekey_on                                       .build/obj_dz60_paul2/common/mousekey.o
                                                  .build/obj_dz60_paul2/common/action.o
mousekey_send                                     .build/obj_dz60_paul2/common/mousekey.o
                                                  .build/obj_dz60_paul2/common/action.o
mousekey_task                                     .build/obj_dz60_paul2/common/mousekey.o
                                                  .build/obj_dz60_paul2/common/keyboard.o
oneshot_layer_changed_kb                          .build/obj_dz60_paul2/common/action_util.o
oneshot_layer_changed_user                        .build/obj_dz60_paul2/common/action_util.o
oneshot_locked_mods_changed_kb                    .build/obj_dz60_paul2/common/action_util.o
oneshot_locked_mods_changed_user                  .build/obj_dz60_paul2/common/action_util.o
oneshot_mods_changed_kb                           .build/obj_dz60_paul2/common/action_util.o
oneshot_mods_changed_user                         .build/obj_dz60_paul2/common/action_util.o
perform_space_cadet                               .build/obj_dz60_paul2/quantum/process_keycode/process_space_cadet.o
process_action                                    .build/obj_dz60_paul2/common/action.o
process_action_kb                                 .build/obj_dz60_paul2/quantum/quantum.o
process_record                                    .build/obj_dz60_paul2/common/action.o
                                                  .build/obj_dz60_paul2/common/action_tapping.o
process_record_kb                                 .build/obj_dz60_paul2/quantum/quantum.o
process_record_nocache                            .build/obj_dz60_paul2/common/action.o
process_record_quantum                            .build/obj_dz60_paul2/quantum/quantum.o
process_record_tap_hint                           .build/obj_dz60_paul2/common/action.o
                                                  .build/obj_dz60_paul2/common/action_tapping.o
process_record_user                               .build/obj_dz60_paul2/quantum/quantum.o
process_space_cadet                               .build/obj_dz60_paul2/quantum/process_keycode/process_space_cadet.o
                                                  .build/obj_dz60_paul2/quantum/quantum.o
read_source_layers_cache                          .build/obj_dz60_paul2/common/action_layer.o
                                                  .build/obj_dz60_paul2/quantum/quantum.o
register_code                                     .build/obj_dz60_paul2/common/action.o
                                                  .build/obj_dz60_paul2/common/action_macro.o
                                                  .build/obj_dz60_paul2/quantum/quantum.o
register_code16                                   .build/obj_dz60_paul2/quantum/quantum.o
register_mods                                     .build/obj_dz60_paul2/common/action.o
                                                  .build/obj_dz60_paul2/quantum/process_keycode/process_space_cadet.o
reset_key                                         .build/obj_dz60_paul2/common/avr/bootloader.o
reset_keyboard                                    .build/obj_dz60_paul2/quantum/quantum.o
reset_oneshot_layer                               .build/obj_dz60_paul2/common/action_util.o
rgblight_check_config                             .build/obj_dz60_paul2/quantum/rgblight.o
rgblight_config                                   .build/obj_dz60_paul2/quantum/rgblight.o
rgblight_decrease                                 .build/obj_dz60_paul2/quantum/rgblight.o
rgblight_decrease_hue                             .build/obj_dz60_paul2/quantum/rgblight.o
                                                  .build/obj_dz60_paul2/quantum/quantum.o
rgblight_decrease_hue_helper                      .build/obj_dz60_paul2/quantum/rgblight.o
rgblight_decrease_hue_noeeprom                    .build/obj_dz60_paul2/quantum/rgblight.o
rgblight_decrease_sat                             .build/obj_dz60_paul2/quantum/rgblight.o
                                                  .build/obj_dz60_paul2/quantum/quantum.o
rgblight_decrease_sat_helper                      .build/obj_dz60_paul2/quantum/rgblight.o
rgblight_decrease_sat_noeeprom                    .build/obj_dz60_paul2/quantum/rgblight.o
rgblight_decrease_speed                           .build/obj_dz60_paul2/quantum/rgblight.o
                                                  .build/obj_dz60_paul2/quantum/quantum.o
rgblight_decrease_val                             .build/obj_dz60_paul2/quantum/rgblight.o
                                                  .build/obj_dz60_paul2/quantum/quantum.o
rgblight_decrease_val_helper                      .build/obj_dz60_paul2/quantum/rgblight.o
rgblight_decrease_val_noeeprom                    .build/obj_dz60_paul2/quantum/rgblight.o
rgblight_disable                                  .build/obj_dz60_paul2/quantum/rgblight.o
rgblight_disable_noeeprom                         .build/obj_dz60_paul2/quantum/rgblight.o
rgblight_effect_alternating                       .build/obj_dz60_paul2/quantum/rgblight.o
rgblight_effect_breathe_table                     .build/obj_dz60_paul2/quantum/rgblight.o
rgblight_effect_breathing                         .build/obj_dz60_paul2/quantum/rgblight.o
rgblight_effect_christmas                         .build/obj_dz60_paul2/quantum/rgblight.o
rgblight_effect_knight                            .build/obj_dz60_paul2/quantum/rgblight.o
rgblight_effect_rainbow_mood                      .build/obj_dz60_paul2/quantum/rgblight.o
rgblight_effect_rainbow_swirl                     .build/obj_dz60_paul2/quantum/rgblight.o
rgblight_effect_rgbtest                           .build/obj_dz60_paul2/quantum/rgblight.o
rgblight_effect_snake                             .build/obj_dz60_paul2/quantum/rgblight.o
rgblight_enable                                   .build/obj_dz60_paul2/quantum/rgblight.o
rgblight_enable_noeeprom                          .build/obj_dz60_paul2/quantum/rgblight.o
rgblight_get_hue                                  .build/obj_dz60_paul2/quantum/rgblight.o
rgblight_get_mode                                 .build/obj_dz60_paul2/quantum/rgblight.o
                                                  .build/obj_dz60_paul2/quantum/quantum.o
rgblight_get_sat                                  .build/obj_dz60_paul2/quantum/rgblight.o
rgblight_get_val                                  .build/obj_dz60_paul2/quantum/rgblight.o
rgblight_increase                                 .build/obj_dz60_paul2/quantum/rgblight.o
rgblight_increase_hue                             .build/obj_dz60_paul2/quantum/rgblight.o
                                                  .build/obj_dz60_paul2/quantum/quantum.o
rgblight_increase_hue_helper                      .build/obj_dz60_paul2/quantum/rgblight.o
rgblight_increase_hue_noeeprom                    .build/obj_dz60_paul2/quantum/rgblight.o
rgblight_increase_sat                             .build/obj_dz60_paul2/quantum/rgblight.o
                                                  .build/obj_dz60_paul2/quantum/quantum.o
rgblight_increase_sat_helper                      .build/obj_dz60_paul2/quantum/rgblight.o
rgblight_increase_sat_noeeprom                    .build/obj_dz60_paul2/quantum/rgblight.o
rgblight_increase_speed                           .build/obj_dz60_paul2/quantum/rgblight.o
                                                  .build/obj_dz60_paul2/quantum/quantum.o
rgblight_increase_val                             .build/obj_dz60_paul2/quantum/rgblight.o
                                                  .build/obj_dz60_paul2/quantum/quantum.o
rgblight_increase_val_helper                      .build/obj_dz60_paul2/quantum/rgblight.o
rgblight_increase_val_noeeprom                    .build/obj_dz60_paul2/quantum/rgblight.o
rgblight_init                                     .build/obj_dz60_paul2/quantum/rgblight.o
                                                  .build/obj_dz60_paul2/common/keyboard.o
rgblight_mode                                     .build/obj_dz60_paul2/quantum/rgblight.o
                                                  .build/obj_dz60_paul2/quantum/quantum.o
rgblight_mode_eeprom_helper                       .build/obj_dz60_paul2/quantum/rgblight.o
rgblight_mode_noeeprom                            .build/obj_dz60_paul2/quantum/rgblight.o
rgblight_read_dword                               .build/obj_dz60_paul2/quantum/rgblight.o
rgblight_set                                      .build/obj_dz60_paul2/quantum/rgblight.o
rgblight_set_clipping_range                       .build/obj_dz60_paul2/quantum/rgblight.o
rgblight_sethsv                                   .build/obj_dz60_paul2/quantum/rgblight.o
rgblight_sethsv_at                                .build/obj_dz60_paul2/quantum/rgblight.o
rgblight_sethsv_eeprom_helper                     .build/obj_dz60_paul2/quantum/rgblight.o
rgblight_sethsv_master                            .build/obj_dz60_paul2/quantum/rgblight.o
rgblight_sethsv_noeeprom                          .build/obj_dz60_paul2/quantum/rgblight.o
rgblight_sethsv_noeeprom_old                      .build/obj_dz60_paul2/quantum/rgblight.o
rgblight_sethsv_range                             .build/obj_dz60_paul2/quantum/rgblight.o
rgblight_sethsv_slave                             .build/obj_dz60_paul2/quantum/rgblight.o
rgblight_setrgb                                   .build/obj_dz60_paul2/quantum/rgblight.o
rgblight_setrgb_at                                .build/obj_dz60_paul2/quantum/rgblight.o
rgblight_setrgb_master                            .build/obj_dz60_paul2/quantum/rgblight.o
rgblight_setrgb_range                             .build/obj_dz60_paul2/quantum/rgblight.o
rgblight_setrgb_slave                             .build/obj_dz60_paul2/quantum/rgblight.o
rgblight_show_solid_color                         .build/obj_dz60_paul2/quantum/rgblight.o
rgblight_status                                   .build/obj_dz60_paul2/quantum/rgblight.o
rgblight_step                                     .build/obj_dz60_paul2/quantum/rgblight.o
                                                  .build/obj_dz60_paul2/quantum/quantum.o
rgblight_step_helper                              .build/obj_dz60_paul2/quantum/rgblight.o
rgblight_step_noeeprom                            .build/obj_dz60_paul2/quantum/rgblight.o
rgblight_step_reverse                             .build/obj_dz60_paul2/quantum/rgblight.o
                                                  .build/obj_dz60_paul2/quantum/quantum.o
rgblight_step_reverse_helper                      .build/obj_dz60_paul2/quantum/rgblight.o
rgblight_step_reverse_noeeprom                    .build/obj_dz60_paul2/quantum/rgblight.o
rgblight_task                                     .build/obj_dz60_paul2/quantum/rgblight.o
                                                  .build/obj_dz60_paul2/lufa.o
rgblight_timer_disable                            .build/obj_dz60_paul2/quantum/rgblight.o
rgblight_timer_enable                             .build/obj_dz60_paul2/quantum/rgblight.o
rgblight_timer_init                               .build/obj_dz60_paul2/quantum/rgblight.o
rgblight_timer_toggle                             .build/obj_dz60_paul2/quantum/rgblight.o
rgblight_toggle                                   .build/obj_dz60_paul2/quantum/rgblight.o
                                                  .build/obj_dz60_paul2/quantum/quantum.o
rgblight_toggle_noeeprom                          .build/obj_dz60_paul2/quantum/rgblight.o
rgblight_update_dword                             .build/obj_dz60_paul2/quantum/rgblight.o
send_byte                                         .build/obj_dz60_paul2/quantum/quantum.o
send_char                                         .build/obj_dz60_paul2/quantum/quantum.o
send_dword                                        .build/obj_dz60_paul2/quantum/quantum.o
send_keyboard_report                              .build/obj_dz60_paul2/common/action_util.o
                                                  .build/obj_dz60_paul2/common/action_macro.o
                                                  .build/obj_dz60_paul2/common/action.o
                                                  .build/obj_dz60_paul2/quantum/quantum.o
send_nibble                                       .build/obj_dz60_paul2/quantum/quantum.o
send_string                                       .build/obj_dz60_paul2/quantum/quantum.o
send_string_P                                     .build/obj_dz60_paul2/quantum/quantum.o
send_string_with_delay                            .build/obj_dz60_paul2/quantum/quantum.o
send_string_with_delay_P                          .build/obj_dz60_paul2/quantum/quantum.o
send_word                                         .build/obj_dz60_paul2/quantum/quantum.o
sendchar                                          .build/obj_dz60_paul2/lufa.o
set_macro_mods                                    .build/obj_dz60_paul2/common/action_util.o
set_mods                                          .build/obj_dz60_paul2/common/action_util.o
set_oneshot_layer                                 .build/obj_dz60_paul2/common/action_util.o
                                                  .build/obj_dz60_paul2/common/action.o
set_oneshot_locked_mods                           .build/obj_dz60_paul2/common/action_util.o
set_oneshot_mods                                  .build/obj_dz60_paul2/common/action_util.o
                                                  .build/obj_dz60_paul2/common/action.o
set_output                                        .build/obj_dz60_paul2/outputselect.o
                                                  .build/obj_dz60_paul2/quantum/quantum.o
set_output_user                                   .build/obj_dz60_paul2/outputselect.o
set_single_persistent_default_layer               .build/obj_dz60_paul2/quantum/quantum.o
set_weak_mods                                     .build/obj_dz60_paul2/common/action_util.o
sethsv                                            .build/obj_dz60_paul2/quantum/rgblight.o
setrgb                                            .build/obj_dz60_paul2/quantum/rgblight.o
shutdown_user                                     .build/obj_dz60_paul2/quantum/quantum.o
source_layers_cache                               .build/obj_dz60_paul2/common/action_layer.o
startup_user                                      .build/obj_dz60_paul2/quantum/quantum.o
store_or_get_action                               .build/obj_dz60_paul2/common/action_layer.o
                                                  .build/obj_dz60_paul2/common/action.o
suspend_idle                                      .build/obj_dz60_paul2/common/avr/suspend.o
suspend_power_down                                .build/obj_dz60_paul2/common/avr/suspend.o
                                                  .build/obj_dz60_paul2/lufa.o
suspend_power_down_kb                             .build/obj_dz60_paul2/common/avr/suspend.o
suspend_power_down_user                           .build/obj_dz60_paul2/common/avr/suspend.o
suspend_wakeup_condition                          .build/obj_dz60_paul2/common/avr/suspend.o
                                                  .build/obj_dz60_paul2/lufa.o
suspend_wakeup_init                               .build/obj_dz60_paul2/common/avr/suspend.o
                                                  .build/obj_dz60_paul2/lufa.o
suspend_wakeup_init_kb                            .build/obj_dz60_paul2/common/avr/suspend.o
suspend_wakeup_init_user                          .build/obj_dz60_paul2/common/avr/suspend.o
tap_code                                          .build/obj_dz60_paul2/common/action.o
                                                  .build/obj_dz60_paul2/quantum/process_keycode/process_space_cadet.o
                                                  .build/obj_dz60_paul2/quantum/quantum.o
tap_code16                                        .build/obj_dz60_paul2/quantum/quantum.o
